{
    "contractName": "MainTokenGovernor",
    "abi": [
        {
            "inputs": [
                {
                    "internalType": "contract IVotes",
                    "name": "_token",
                    "type": "address"
                },
                {
                    "internalType": "contract TimelockController",
                    "name": "_timelock",
                    "type": "address"
                },
                {
                    "internalType": "address",
                    "name": "_multiSig",
                    "type": "address"
                },
                {
                    "internalType": "uint256",
                    "name": "_initialVotingDelay",
                    "type": "uint256"
                },
                {
                    "internalType": "uint256",
                    "name": "_votingPeriod",
                    "type": "uint256"
                },
                {
                    "internalType": "uint256",
                    "name": "_initialProposalThreshold",
                    "type": "uint256"
                },
                {
                    "internalType": "uint256",
                    "name": "_proposalTimeDelay",
                    "type": "uint256"
                },
                {
                    "internalType": "uint256",
                    "name": "_proposalLifetime",
                    "type": "uint256"
                }
            ],
            "stateMutability": "nonpayable",
            "type": "constructor"
        },
        {
            "inputs": [],
            "name": "Empty",
            "type": "error"
        },
        {
            "anonymous": false,
            "inputs": [
                {
                    "indexed": true,
                    "internalType": "address",
                    "name": "signer",
                    "type": "address"
                },
                {
                    "indexed": true,
                    "internalType": "uint256",
                    "name": "proposalId",
                    "type": "uint256"
                }
            ],
            "name": "ConfirmProposal",
            "type": "event"
        },
        {
            "anonymous": false,
            "inputs": [],
            "name": "EmergencyStop",
            "type": "event"
        },
        {
            "anonymous": false,
            "inputs": [
                {
                    "indexed": true,
                    "internalType": "address",
                    "name": "signer",
                    "type": "address"
                },
                {
                    "indexed": true,
                    "internalType": "uint256",
                    "name": "proposalId",
                    "type": "uint256"
                }
            ],
            "name": "ExecuteProposal",
            "type": "event"
        },
        {
            "anonymous": false,
            "inputs": [
                {
                    "indexed": true,
                    "internalType": "address",
                    "name": "owner",
                    "type": "address"
                },
                {
                    "indexed": true,
                    "internalType": "bool",
                    "name": "success",
                    "type": "bool"
                },
                {
                    "indexed": false,
                    "internalType": "bytes",
                    "name": "data",
                    "type": "bytes"
                }
            ],
            "name": "ExecuteTransaction",
            "type": "event"
        },
        {
            "anonymous": false,
            "inputs": [
                {
                    "indexed": false,
                    "internalType": "uint256",
                    "name": "newMaxTargets",
                    "type": "uint256"
                },
                {
                    "indexed": false,
                    "internalType": "uint256",
                    "name": "oldMaxTargets",
                    "type": "uint256"
                }
            ],
            "name": "MaxTargetUpdated",
            "type": "event"
        },
        {
            "anonymous": false,
            "inputs": [
                {
                    "indexed": false,
                    "internalType": "address",
                    "name": "newMultiSig",
                    "type": "address"
                },
                {
                    "indexed": false,
                    "internalType": "address",
                    "name": "oldMultiSig",
                    "type": "address"
                }
            ],
            "name": "MultiSigUpdated",
            "type": "event"
        },
        {
            "anonymous": false,
            "inputs": [
                {
                    "indexed": true,
                    "internalType": "uint256",
                    "name": "proposalId",
                    "type": "uint256"
                }
            ],
            "name": "ProposalCanceled",
            "type": "event"
        },
        {
            "anonymous": false,
            "inputs": [
                {
                    "indexed": true,
                    "internalType": "uint256",
                    "name": "proposalId",
                    "type": "uint256"
                },
                {
                    "indexed": true,
                    "internalType": "address",
                    "name": "proposer",
                    "type": "address"
                },
                {
                    "indexed": false,
                    "internalType": "address[]",
                    "name": "targets",
                    "type": "address[]"
                },
                {
                    "indexed": false,
                    "internalType": "uint256[]",
                    "name": "values",
                    "type": "uint256[]"
                },
                {
                    "indexed": false,
                    "internalType": "string[]",
                    "name": "signatures",
                    "type": "string[]"
                },
                {
                    "indexed": false,
                    "internalType": "bytes[]",
                    "name": "calldatas",
                    "type": "bytes[]"
                },
                {
                    "indexed": false,
                    "internalType": "uint256",
                    "name": "startBlock",
                    "type": "uint256"
                },
                {
                    "indexed": true,
                    "internalType": "uint256",
                    "name": "endBlock",
                    "type": "uint256"
                },
                {
                    "indexed": false,
                    "internalType": "string",
                    "name": "description",
                    "type": "string"
                }
            ],
            "name": "ProposalCreated",
            "type": "event"
        },
        {
            "anonymous": false,
            "inputs": [
                {
                    "indexed": true,
                    "internalType": "uint256",
                    "name": "proposalId",
                    "type": "uint256"
                }
            ],
            "name": "ProposalExecuted",
            "type": "event"
        },
        {
            "anonymous": false,
            "inputs": [
                {
                    "indexed": false,
                    "internalType": "uint256",
                    "name": "proposalId",
                    "type": "uint256"
                },
                {
                    "indexed": false,
                    "internalType": "uint256",
                    "name": "eta",
                    "type": "uint256"
                }
            ],
            "name": "ProposalQueued",
            "type": "event"
        },
        {
            "anonymous": false,
            "inputs": [
                {
                    "indexed": false,
                    "internalType": "uint256",
                    "name": "oldProposalThreshold",
                    "type": "uint256"
                },
                {
                    "indexed": false,
                    "internalType": "uint256",
                    "name": "newProposalThreshold",
                    "type": "uint256"
                }
            ],
            "name": "ProposalThresholdSet",
            "type": "event"
        },
        {
            "anonymous": false,
            "inputs": [
                {
                    "indexed": false,
                    "internalType": "uint256",
                    "name": "newProposalTimeDelay",
                    "type": "uint256"
                },
                {
                    "indexed": false,
                    "internalType": "uint256",
                    "name": "oldProposalTimeDelay",
                    "type": "uint256"
                }
            ],
            "name": "ProposalTimeDelayUpdated",
            "type": "event"
        },
        {
            "anonymous": false,
            "inputs": [
                {
                    "indexed": false,
                    "internalType": "uint256",
                    "name": "oldQuorumNumerator",
                    "type": "uint256"
                },
                {
                    "indexed": false,
                    "internalType": "uint256",
                    "name": "newQuorumNumerator",
                    "type": "uint256"
                }
            ],
            "name": "QuorumNumeratorUpdated",
            "type": "event"
        },
        {
            "anonymous": false,
            "inputs": [
                {
                    "indexed": true,
                    "internalType": "address",
                    "name": "signer",
                    "type": "address"
                },
                {
                    "indexed": true,
                    "internalType": "uint256",
                    "name": "proposalId",
                    "type": "uint256"
                }
            ],
            "name": "RevokeConfirmation",
            "type": "event"
        },
        {
            "anonymous": false,
            "inputs": [
                {
                    "indexed": false,
                    "internalType": "address",
                    "name": "oldTimelock",
                    "type": "address"
                },
                {
                    "indexed": false,
                    "internalType": "address",
                    "name": "newTimelock",
                    "type": "address"
                }
            ],
            "name": "TimelockChange",
            "type": "event"
        },
        {
            "anonymous": false,
            "inputs": [
                {
                    "indexed": true,
                    "internalType": "address",
                    "name": "voter",
                    "type": "address"
                },
                {
                    "indexed": true,
                    "internalType": "uint256",
                    "name": "proposalId",
                    "type": "uint256"
                },
                {
                    "indexed": false,
                    "internalType": "uint8",
                    "name": "support",
                    "type": "uint8"
                },
                {
                    "indexed": false,
                    "internalType": "uint256",
                    "name": "weight",
                    "type": "uint256"
                },
                {
                    "indexed": false,
                    "internalType": "string",
                    "name": "reason",
                    "type": "string"
                }
            ],
            "name": "VoteCast",
            "type": "event"
        },
        {
            "anonymous": false,
            "inputs": [
                {
                    "indexed": true,
                    "internalType": "address",
                    "name": "voter",
                    "type": "address"
                },
                {
                    "indexed": true,
                    "internalType": "uint256",
                    "name": "proposalId",
                    "type": "uint256"
                },
                {
                    "indexed": false,
                    "internalType": "uint8",
                    "name": "support",
                    "type": "uint8"
                },
                {
                    "indexed": false,
                    "internalType": "uint256",
                    "name": "weight",
                    "type": "uint256"
                },
                {
                    "indexed": false,
                    "internalType": "string",
                    "name": "reason",
                    "type": "string"
                },
                {
                    "indexed": false,
                    "internalType": "bytes",
                    "name": "params",
                    "type": "bytes"
                }
            ],
            "name": "VoteCastWithParams",
            "type": "event"
        },
        {
            "anonymous": false,
            "inputs": [
                {
                    "indexed": false,
                    "internalType": "uint256",
                    "name": "oldVotingDelay",
                    "type": "uint256"
                },
                {
                    "indexed": false,
                    "internalType": "uint256",
                    "name": "newVotingDelay",
                    "type": "uint256"
                }
            ],
            "name": "VotingDelaySet",
            "type": "event"
        },
        {
            "anonymous": false,
            "inputs": [
                {
                    "indexed": false,
                    "internalType": "uint256",
                    "name": "oldVotingPeriod",
                    "type": "uint256"
                },
                {
                    "indexed": false,
                    "internalType": "uint256",
                    "name": "newVotingPeriod",
                    "type": "uint256"
                }
            ],
            "name": "VotingPeriodSet",
            "type": "event"
        },
        {
            "inputs": [],
            "name": "BALLOT_TYPEHASH",
            "outputs": [
                {
                    "internalType": "bytes32",
                    "name": "",
                    "type": "bytes32"
                }
            ],
            "stateMutability": "view",
            "type": "function"
        },
        {
            "inputs": [],
            "name": "EXTENDED_BALLOT_TYPEHASH",
            "outputs": [
                {
                    "internalType": "bytes32",
                    "name": "",
                    "type": "bytes32"
                }
            ],
            "stateMutability": "view",
            "type": "function"
        },
        {
            "inputs": [],
            "name": "MINIMUM_LIFETIME",
            "outputs": [
                {
                    "internalType": "uint256",
                    "name": "",
                    "type": "uint256"
                }
            ],
            "stateMutability": "view",
            "type": "function"
        },
        {
            "inputs": [],
            "name": "MINIMUM_QUORUM_NUMERATOR",
            "outputs": [
                {
                    "internalType": "uint256",
                    "name": "",
                    "type": "uint256"
                }
            ],
            "stateMutability": "view",
            "type": "function"
        },
        {
            "inputs": [
                {
                    "internalType": "uint256",
                    "name": "proposalId",
                    "type": "uint256"
                },
                {
                    "internalType": "uint8",
                    "name": "support",
                    "type": "uint8"
                }
            ],
            "name": "castVote",
            "outputs": [
                {
                    "internalType": "uint256",
                    "name": "",
                    "type": "uint256"
                }
            ],
            "stateMutability": "nonpayable",
            "type": "function"
        },
        {
            "inputs": [
                {
                    "internalType": "uint256",
                    "name": "proposalId",
                    "type": "uint256"
                },
                {
                    "internalType": "uint8",
                    "name": "support",
                    "type": "uint8"
                },
                {
                    "internalType": "uint8",
                    "name": "v",
                    "type": "uint8"
                },
                {
                    "internalType": "bytes32",
                    "name": "r",
                    "type": "bytes32"
                },
                {
                    "internalType": "bytes32",
                    "name": "s",
                    "type": "bytes32"
                }
            ],
            "name": "castVoteBySig",
            "outputs": [
                {
                    "internalType": "uint256",
                    "name": "",
                    "type": "uint256"
                }
            ],
            "stateMutability": "nonpayable",
            "type": "function"
        },
        {
            "inputs": [
                {
                    "internalType": "uint256",
                    "name": "proposalId",
                    "type": "uint256"
                },
                {
                    "internalType": "uint8",
                    "name": "support",
                    "type": "uint8"
                },
                {
                    "internalType": "string",
                    "name": "reason",
                    "type": "string"
                }
            ],
            "name": "castVoteWithReason",
            "outputs": [
                {
                    "internalType": "uint256",
                    "name": "",
                    "type": "uint256"
                }
            ],
            "stateMutability": "nonpayable",
            "type": "function"
        },
        {
            "inputs": [
                {
                    "internalType": "uint256",
                    "name": "proposalId",
                    "type": "uint256"
                },
                {
                    "internalType": "uint8",
                    "name": "support",
                    "type": "uint8"
                },
                {
                    "internalType": "string",
                    "name": "reason",
                    "type": "string"
                },
                {
                    "internalType": "bytes",
                    "name": "params",
                    "type": "bytes"
                }
            ],
            "name": "castVoteWithReasonAndParams",
            "outputs": [
                {
                    "internalType": "uint256",
                    "name": "",
                    "type": "uint256"
                }
            ],
            "stateMutability": "nonpayable",
            "type": "function"
        },
        {
            "inputs": [
                {
                    "internalType": "uint256",
                    "name": "proposalId",
                    "type": "uint256"
                },
                {
                    "internalType": "uint8",
                    "name": "support",
                    "type": "uint8"
                },
                {
                    "internalType": "string",
                    "name": "reason",
                    "type": "string"
                },
                {
                    "internalType": "bytes",
                    "name": "params",
                    "type": "bytes"
                },
                {
                    "internalType": "uint8",
                    "name": "v",
                    "type": "uint8"
                },
                {
                    "internalType": "bytes32",
                    "name": "r",
                    "type": "bytes32"
                },
                {
                    "internalType": "bytes32",
                    "name": "s",
                    "type": "bytes32"
                }
            ],
            "name": "castVoteWithReasonAndParamsBySig",
            "outputs": [
                {
                    "internalType": "uint256",
                    "name": "",
                    "type": "uint256"
                }
            ],
            "stateMutability": "nonpayable",
            "type": "function"
        },
        {
            "inputs": [
                {
                    "internalType": "uint256",
                    "name": "_proposalId",
                    "type": "uint256"
                }
            ],
            "name": "confirmProposal",
            "outputs": [],
            "stateMutability": "nonpayable",
            "type": "function"
        },
        {
            "inputs": [
                {
                    "internalType": "address[]",
                    "name": "targets",
                    "type": "address[]"
                },
                {
                    "internalType": "uint256[]",
                    "name": "values",
                    "type": "uint256[]"
                },
                {
                    "internalType": "bytes[]",
                    "name": "calldatas",
                    "type": "bytes[]"
                },
                {
                    "internalType": "bytes32",
                    "name": "descriptionHash",
                    "type": "bytes32"
                }
            ],
            "name": "execute",
            "outputs": [
                {
                    "internalType": "uint256",
                    "name": "",
                    "type": "uint256"
                }
            ],
            "stateMutability": "payable",
            "type": "function"
        },
        {
            "inputs": [
                {
                    "internalType": "uint256",
                    "name": "_proposalId",
                    "type": "uint256"
                }
            ],
            "name": "getDescription",
            "outputs": [
                {
                    "internalType": "string",
                    "name": "",
                    "type": "string"
                }
            ],
            "stateMutability": "view",
            "type": "function"
        },
        {
            "inputs": [],
            "name": "getProposalIds",
            "outputs": [
                {
                    "internalType": "uint256[]",
                    "name": "",
                    "type": "uint256[]"
                }
            ],
            "stateMutability": "view",
            "type": "function"
        },
        {
            "inputs": [
                {
                    "internalType": "uint256",
                    "name": "_numIndexes",
                    "type": "uint256"
                }
            ],
            "name": "getProposals",
            "outputs": [
                {
                    "internalType": "string[]",
                    "name": "",
                    "type": "string[]"
                },
                {
                    "internalType": "string[]",
                    "name": "",
                    "type": "string[]"
                },
                {
                    "internalType": "string[]",
                    "name": "",
                    "type": "string[]"
                }
            ],
            "stateMutability": "view",
            "type": "function"
        },
        {
            "inputs": [
                {
                    "internalType": "address",
                    "name": "account",
                    "type": "address"
                },
                {
                    "internalType": "uint256",
                    "name": "blockNumber",
                    "type": "uint256"
                }
            ],
            "name": "getVotes",
            "outputs": [
                {
                    "internalType": "uint256",
                    "name": "",
                    "type": "uint256"
                }
            ],
            "stateMutability": "view",
            "type": "function"
        },
        {
            "inputs": [
                {
                    "internalType": "address",
                    "name": "account",
                    "type": "address"
                },
                {
                    "internalType": "uint256",
                    "name": "blockNumber",
                    "type": "uint256"
                },
                {
                    "internalType": "bytes",
                    "name": "params",
                    "type": "bytes"
                }
            ],
            "name": "getVotesWithParams",
            "outputs": [
                {
                    "internalType": "uint256",
                    "name": "",
                    "type": "uint256"
                }
            ],
            "stateMutability": "view",
            "type": "function"
        },
        {
            "inputs": [
                {
                    "internalType": "uint256",
                    "name": "proposalId",
                    "type": "uint256"
                },
                {
                    "internalType": "address",
                    "name": "account",
                    "type": "address"
                }
            ],
            "name": "hasVoted",
            "outputs": [
                {
                    "internalType": "bool",
                    "name": "",
                    "type": "bool"
                }
            ],
            "stateMutability": "view",
            "type": "function"
        },
        {
            "inputs": [
                {
                    "internalType": "address[]",
                    "name": "targets",
                    "type": "address[]"
                },
                {
                    "internalType": "uint256[]",
                    "name": "values",
                    "type": "uint256[]"
                },
                {
                    "internalType": "bytes[]",
                    "name": "calldatas",
                    "type": "bytes[]"
                },
                {
                    "internalType": "bytes32",
                    "name": "descriptionHash",
                    "type": "bytes32"
                }
            ],
            "name": "hashProposal",
            "outputs": [
                {
                    "internalType": "uint256",
                    "name": "",
                    "type": "uint256"
                }
            ],
            "stateMutability": "pure",
            "type": "function"
        },
        {
            "inputs": [
                {
                    "internalType": "uint256",
                    "name": "",
                    "type": "uint256"
                }
            ],
            "name": "isConfirmed",
            "outputs": [
                {
                    "internalType": "bool",
                    "name": "",
                    "type": "bool"
                }
            ],
            "stateMutability": "view",
            "type": "function"
        },
        {
            "inputs": [
                {
                    "internalType": "address",
                    "name": "",
                    "type": "address"
                }
            ],
            "name": "isSupportedToken",
            "outputs": [
                {
                    "internalType": "bool",
                    "name": "",
                    "type": "bool"
                }
            ],
            "stateMutability": "view",
            "type": "function"
        },
        {
            "inputs": [
                {
                    "internalType": "uint256",
                    "name": "",
                    "type": "uint256"
                }
            ],
            "name": "listOfSupportedTokens",
            "outputs": [
                {
                    "internalType": "address",
                    "name": "",
                    "type": "address"
                }
            ],
            "stateMutability": "view",
            "type": "function"
        },
        {
            "inputs": [],
            "name": "live",
            "outputs": [
                {
                    "internalType": "uint256",
                    "name": "",
                    "type": "uint256"
                }
            ],
            "stateMutability": "view",
            "type": "function"
        },
        {
            "inputs": [],
            "name": "maxTargets",
            "outputs": [
                {
                    "internalType": "uint256",
                    "name": "",
                    "type": "uint256"
                }
            ],
            "stateMutability": "view",
            "type": "function"
        },
        {
            "inputs": [],
            "name": "name",
            "outputs": [
                {
                    "internalType": "string",
                    "name": "",
                    "type": "string"
                }
            ],
            "stateMutability": "view",
            "type": "function"
        },
        {
            "inputs": [
                {
                    "internalType": "address",
                    "name": "",
                    "type": "address"
                }
            ],
            "name": "nextAcceptableProposalTimestamp",
            "outputs": [
                {
                    "internalType": "uint256",
                    "name": "",
                    "type": "uint256"
                }
            ],
            "stateMutability": "view",
            "type": "function"
        },
        {
            "inputs": [
                {
                    "internalType": "uint256",
                    "name": "proposalId",
                    "type": "uint256"
                }
            ],
            "name": "proposalDeadline",
            "outputs": [
                {
                    "internalType": "uint256",
                    "name": "",
                    "type": "uint256"
                }
            ],
            "stateMutability": "view",
            "type": "function"
        },
        {
            "inputs": [
                {
                    "internalType": "uint256",
                    "name": "proposalId",
                    "type": "uint256"
                }
            ],
            "name": "proposalEta",
            "outputs": [
                {
                    "internalType": "uint256",
                    "name": "",
                    "type": "uint256"
                }
            ],
            "stateMutability": "view",
            "type": "function"
        },
        {
            "inputs": [],
            "name": "proposalLifetime",
            "outputs": [
                {
                    "internalType": "uint256",
                    "name": "",
                    "type": "uint256"
                }
            ],
            "stateMutability": "view",
            "type": "function"
        },
        {
            "inputs": [
                {
                    "internalType": "uint256",
                    "name": "proposalId",
                    "type": "uint256"
                }
            ],
            "name": "proposalSnapshot",
            "outputs": [
                {
                    "internalType": "uint256",
                    "name": "",
                    "type": "uint256"
                }
            ],
            "stateMutability": "view",
            "type": "function"
        },
        {
            "inputs": [],
            "name": "proposalTimeDelay",
            "outputs": [
                {
                    "internalType": "uint256",
                    "name": "",
                    "type": "uint256"
                }
            ],
            "stateMutability": "view",
            "type": "function"
        },
        {
            "inputs": [
                {
                    "internalType": "uint256",
                    "name": "proposalId",
                    "type": "uint256"
                }
            ],
            "name": "proposalVotes",
            "outputs": [
                {
                    "internalType": "uint256",
                    "name": "againstVotes",
                    "type": "uint256"
                },
                {
                    "internalType": "uint256",
                    "name": "forVotes",
                    "type": "uint256"
                },
                {
                    "internalType": "uint256",
                    "name": "abstainVotes",
                    "type": "uint256"
                }
            ],
            "stateMutability": "view",
            "type": "function"
        },
        {
            "inputs": [
                {
                    "internalType": "address[]",
                    "name": "targets",
                    "type": "address[]"
                },
                {
                    "internalType": "uint256[]",
                    "name": "values",
                    "type": "uint256[]"
                },
                {
                    "internalType": "bytes[]",
                    "name": "calldatas",
                    "type": "bytes[]"
                },
                {
                    "internalType": "bytes32",
                    "name": "descriptionHash",
                    "type": "bytes32"
                }
            ],
            "name": "queue",
            "outputs": [
                {
                    "internalType": "uint256",
                    "name": "",
                    "type": "uint256"
                }
            ],
            "stateMutability": "nonpayable",
            "type": "function"
        },
        {
            "inputs": [],
            "name": "quorumDenominator",
            "outputs": [
                {
                    "internalType": "uint256",
                    "name": "",
                    "type": "uint256"
                }
            ],
            "stateMutability": "view",
            "type": "function"
        },
        {
            "inputs": [],
            "name": "quorumNumerator",
            "outputs": [
                {
                    "internalType": "uint256",
                    "name": "",
                    "type": "uint256"
                }
            ],
            "stateMutability": "view",
            "type": "function"
        },
        {
            "inputs": [
                {
                    "internalType": "uint256",
                    "name": "_proposalId",
                    "type": "uint256"
                }
            ],
            "name": "revokeConfirmation",
            "outputs": [],
            "stateMutability": "nonpayable",
            "type": "function"
        },
        {
            "inputs": [
                {
                    "internalType": "uint256",
                    "name": "newProposalThreshold",
                    "type": "uint256"
                }
            ],
            "name": "setProposalThreshold",
            "outputs": [],
            "stateMutability": "nonpayable",
            "type": "function"
        },
        {
            "inputs": [
                {
                    "internalType": "uint256",
                    "name": "newVotingDelay",
                    "type": "uint256"
                }
            ],
            "name": "setVotingDelay",
            "outputs": [],
            "stateMutability": "nonpayable",
            "type": "function"
        },
        {
            "inputs": [
                {
                    "internalType": "uint256",
                    "name": "newVotingPeriod",
                    "type": "uint256"
                }
            ],
            "name": "setVotingPeriod",
            "outputs": [],
            "stateMutability": "nonpayable",
            "type": "function"
        },
        {
            "inputs": [],
            "name": "timelock",
            "outputs": [
                {
                    "internalType": "address",
                    "name": "",
                    "type": "address"
                }
            ],
            "stateMutability": "view",
            "type": "function"
        },
        {
            "inputs": [],
            "name": "token",
            "outputs": [
                {
                    "internalType": "contract IVotes",
                    "name": "",
                    "type": "address"
                }
            ],
            "stateMutability": "view",
            "type": "function"
        },
        {
            "inputs": [
                {
                    "internalType": "uint256",
                    "name": "newMaxTargets",
                    "type": "uint256"
                }
            ],
            "name": "updateMaxTargets",
            "outputs": [],
            "stateMutability": "nonpayable",
            "type": "function"
        },
        {
            "inputs": [
                {
                    "internalType": "address",
                    "name": "newMultiSig",
                    "type": "address"
                }
            ],
            "name": "updateMultiSig",
            "outputs": [],
            "stateMutability": "nonpayable",
            "type": "function"
        },
        {
            "inputs": [
                {
                    "internalType": "uint256",
                    "name": "newProposalLifetime",
                    "type": "uint256"
                }
            ],
            "name": "updateProposalLifetime",
            "outputs": [],
            "stateMutability": "nonpayable",
            "type": "function"
        },
        {
            "inputs": [
                {
                    "internalType": "uint256",
                    "name": "newProposalTimeDelay",
                    "type": "uint256"
                }
            ],
            "name": "updateProposalTimeDelay",
            "outputs": [],
            "stateMutability": "nonpayable",
            "type": "function"
        },
        {
            "inputs": [
                {
                    "internalType": "uint256",
                    "name": "newQuorumNumerator",
                    "type": "uint256"
                }
            ],
            "name": "updateQuorumNumerator",
            "outputs": [],
            "stateMutability": "nonpayable",
            "type": "function"
        },
        {
            "inputs": [
                {
                    "internalType": "contract TimelockController",
                    "name": "newTimelock",
                    "type": "address"
                }
            ],
            "name": "updateTimelock",
            "outputs": [],
            "stateMutability": "nonpayable",
            "type": "function"
        },
        {
            "inputs": [],
            "name": "version",
            "outputs": [
                {
                    "internalType": "string",
                    "name": "",
                    "type": "string"
                }
            ],
            "stateMutability": "view",
            "type": "function"
        },
        {
            "stateMutability": "payable",
            "type": "receive"
        },
        {
            "inputs": [
                {
                    "internalType": "address[]",
                    "name": "targets",
                    "type": "address[]"
                },
                {
                    "internalType": "uint256[]",
                    "name": "values",
                    "type": "uint256[]"
                },
                {
                    "internalType": "bytes[]",
                    "name": "calldatas",
                    "type": "bytes[]"
                },
                {
                    "internalType": "string",
                    "name": "description",
                    "type": "string"
                }
            ],
            "name": "propose",
            "outputs": [
                {
                    "internalType": "uint256",
                    "name": "",
                    "type": "uint256"
                }
            ],
            "stateMutability": "nonpayable",
            "type": "function"
        },
        {
            "inputs": [
                {
                    "internalType": "address[]",
                    "name": "targets",
                    "type": "address[]"
                },
                {
                    "internalType": "uint256[]",
                    "name": "values",
                    "type": "uint256[]"
                },
                {
                    "internalType": "bytes[]",
                    "name": "calldatas",
                    "type": "bytes[]"
                },
                {
                    "internalType": "bytes32",
                    "name": "descriptionHash",
                    "type": "bytes32"
                }
            ],
            "name": "cancelProposal",
            "outputs": [
                {
                    "internalType": "uint256",
                    "name": "",
                    "type": "uint256"
                }
            ],
            "stateMutability": "nonpayable",
            "type": "function"
        },
        {
            "inputs": [],
            "name": "proposalThreshold",
            "outputs": [
                {
                    "internalType": "uint256",
                    "name": "",
                    "type": "uint256"
                }
            ],
            "stateMutability": "view",
            "type": "function"
        },
        {
            "inputs": [
                {
                    "internalType": "bytes4",
                    "name": "interfaceId",
                    "type": "bytes4"
                }
            ],
            "name": "supportsInterface",
            "outputs": [
                {
                    "internalType": "bool",
                    "name": "",
                    "type": "bool"
                }
            ],
            "stateMutability": "view",
            "type": "function"
        },
        {
            "inputs": [],
            "name": "votingDelay",
            "outputs": [
                {
                    "internalType": "uint256",
                    "name": "",
                    "type": "uint256"
                }
            ],
            "stateMutability": "view",
            "type": "function"
        },
        {
            "inputs": [],
            "name": "votingPeriod",
            "outputs": [
                {
                    "internalType": "uint256",
                    "name": "",
                    "type": "uint256"
                }
            ],
            "stateMutability": "view",
            "type": "function"
        },
        {
            "inputs": [
                {
                    "internalType": "uint256",
                    "name": "blockNumber",
                    "type": "uint256"
                }
            ],
            "name": "quorum",
            "outputs": [
                {
                    "internalType": "uint256",
                    "name": "",
                    "type": "uint256"
                }
            ],
            "stateMutability": "view",
            "type": "function"
        },
        {
            "inputs": [
                {
                    "internalType": "uint256",
                    "name": "proposalId",
                    "type": "uint256"
                }
            ],
            "name": "state",
            "outputs": [
                {
                    "internalType": "enum IGovernor.ProposalState",
                    "name": "",
                    "type": "uint8"
                }
            ],
            "stateMutability": "view",
            "type": "function"
        },
        {
            "inputs": [],
            "name": "emergencyStop",
            "outputs": [],
            "stateMutability": "nonpayable",
            "type": "function"
        },
        {
            "inputs": [
                {
                    "internalType": "address",
                    "name": "_token",
                    "type": "address"
                }
            ],
            "name": "addSupportingToken",
            "outputs": [],
            "stateMutability": "nonpayable",
            "type": "function"
        },
        {
            "inputs": [
                {
                    "internalType": "address",
                    "name": "_token",
                    "type": "address"
                }
            ],
            "name": "removeSupportingToken",
            "outputs": [],
            "stateMutability": "nonpayable",
            "type": "function"
        },
        {
            "inputs": [
                {
                    "internalType": "address",
                    "name": "target",
                    "type": "address"
                },
                {
                    "internalType": "bytes",
                    "name": "data",
                    "type": "bytes"
                }
            ],
            "name": "relayERC20",
            "outputs": [],
            "stateMutability": "nonpayable",
            "type": "function"
        },
        {
            "inputs": [
                {
                    "internalType": "address",
                    "name": "target",
                    "type": "address"
                },
                {
                    "internalType": "uint256",
                    "name": "value",
                    "type": "uint256"
                },
                {
                    "internalType": "bytes",
                    "name": "data",
                    "type": "bytes"
                }
            ],
            "name": "relayNativeToken",
            "outputs": [],
            "stateMutability": "payable",
            "type": "function"
        }
    ],
    "bytecode": "0x6101606040523480156200001257600080fd5b5060405162006bce38038062006bce833981016040819052620000359162000564565b866004898787876040518060400160405280601181526020017026b0b4b72a37b5b2b723b7bb32b93737b960791b8152508c60148a8a846200007c6200026960201b60201c565b815160208084019190912082519183019190912060e08290526101008190527f8b73c3c69bb8fe3d512ecc4cf759cc79239f7b179b0ffacaa9a75d522b39400f4660a052620000cd81848462000284565b6080523060c052610120525050506001600160a01b03851690506200010f5760405162461bcd60e51b815260040162000106906200066e565b60405180910390fd5b82600003620001325760405162461bcd60e51b81526004016200010690620006b7565b81600003620001555760405162461bcd60e51b81526004016200010690620006fe565b620151808110156200017b5760405162461bcd60e51b8152600401620001069062000745565b60026200018986826200086a565b50600580546001600160a01b0319166001600160a01b039590951694909417909355600091909155600190815560069190915560045550620001cb83620002c1565b620001d68262000303565b620001e18162000368565b5050506001600160a01b0381166200020d5760405162461bcd60e51b8152600401620001069062000979565b6001600160a01b0316610140526200022581620003cd565b506001600160a01b0381166200024f5760405162461bcd60e51b81526004016200010690620009cd565b6200025a816200045d565b50505050505050505062000c70565b6040805180820190915260018152603160f81b602082015290565b60008383834630604051602001620002a1959493929190620009f2565b6040516020818303038152906040528051906020012090505b9392505050565b7fc565b045403dc03c2eea82b81a0465edad9e2e7fc4d97e11421c209da93d7a93600d5482604051620002f692919062000a48565b60405180910390a1600d55565b60008111620003265760405162461bcd60e51b8152600401620001069062000aac565b7f7e3f7f0708a84de9203036abaa450dccc85ad5ff52f78c170f3edb55cf5e8828600e54826040516200035b92919062000a48565b60405180910390a1600e55565b7fccb45da8d5717e6c4544694297c4ba5cf151d455c9bb0ed4fc7a38411bc05461600f54826040516200039d92919062000a48565b60405180910390a160008111620003c85760405162461bcd60e51b8152600401620001069062000b19565b600f55565b6064811115620003f15760405162461bcd60e51b8152600401620001069062000b2b565b6002811015620004155760405162461bcd60e51b8152600401620001069062000bd2565b60118054908290556040517f0553476bf02ef2726e8ce5ced78d63e26e602e4a2257b1f559418e24b46339979062000451908390859062000a48565b60405180910390a15050565b6001600160a01b038116620004865760405162461bcd60e51b8152600401620001069062000c3f565b6012546040517f08f74ea46ef7894f65eabfb5e6e695de773a000b47c529ab559178069b22640191620004c7916001600160a01b0390911690849062000c51565b60405180910390a1601280546001600160a01b0319166001600160a01b0392909216919091179055565b60006001600160a01b0382165b92915050565b6000620004fe82620004f1565b6200051c8162000504565b81146200052857600080fd5b50565b8051620004fe8162000511565b6200051c81620004f1565b8051620004fe8162000538565b806200051c565b8051620004fe8162000550565b600080600080600080600080610100898b031215620005865762000586600080fd5b6000620005948b8b6200052b565b9850506020620005a78b828c016200052b565b9750506040620005ba8b828c0162000543565b9650506060620005cd8b828c0162000557565b9550506080620005e08b828c0162000557565b94505060a0620005f38b828c0162000557565b93505060c0620006068b828c0162000557565b92505060e0620006198b828c0162000557565b9150509295985092959890939650565b602581526000602082017f6d756c746953696720616464726573732063616e74206265207a65726f206164815264647265737360d81b602082015291505b5060400190565b60208082528101620004fe8162000629565b601681526000602082017f6d61785461726765742063616e74206265207a65726f00000000000000000000815291505b5060200190565b60208082528101620004fe8162000680565b601e81526000602082017f70726f706f73616c54696d6544656c61792063616e74206265207a65726f000081529150620006b0565b60208082528101620004fe81620006c9565b601a81526000602082017f6c69666574696d65206c657373207468616e206d696e696d756d00000000000081529150620006b0565b60208082528101620004fe8162000710565b634e487b7160e01b600052604160045260246000fd5b634e487b7160e01b600052602260045260246000fd5b6002810460018216806200079857607f821691505b602082108103620007ad57620007ad6200076d565b50919050565b6000620004fe620007c18381565b90565b620007cf83620007b3565b81546008840282811b60001990911b908116901990911617825550505050565b6000620007fe818484620007c4565b505050565b81811015620008225762000819600082620007ef565b60010162000803565b5050565b601f821115620007fe576000818152602090206020601f850104810160208510156200084f5750805b620008636020601f86010483018262000803565b5050505050565b81516001600160401b0381111562000886576200088662000757565b62000892825462000783565b6200089f82828562000826565b6020601f831160018114620008d65760008415620008bd5750858201515b600019600886021c198116600286021786555062000932565b600085815260208120601f198616915b82811015620009085788850151825560209485019460019092019101620008e6565b86831015620009255784890151600019601f89166008021c191682555b6001600288020188555050505b505050505050565b602181526000602082017f746f6b656e416464726573732063616e74206265207a65726f206164647265738152607360f81b6020820152915062000667565b60208082528101620004fe816200093a565b602481526000602082017f74696d656c6f636b416464726573732063616e74206265207a65726f206164648152637265737360e01b6020820152915062000667565b60208082528101620004fe816200098b565b805b82525050565b620009e181620004f1565b60a0810162000a028288620009df565b62000a116020830187620009df565b62000a206040830186620009df565b62000a2f6060830185620009df565b62000a3e6080830184620009e7565b9695505050505050565b6040810162000a588285620009df565b620002ba6020830184620009df565b602781526000602082017f476f7665726e6f7253657474696e67733a20766f74696e6720706572696f6420815266746f6f206c6f7760c81b6020820152915062000667565b60208082528101620004fe8162000a67565b603a81526000602082017f5f73657450726f706f73616c5468726573686f6c643a205468726573686f6c6481527f20666f722070726f706f73616c2063616e74206265207a65726f0000000000006020820152915062000667565b60208082528101620004fe8162000abe565b60208082528101620004fe816043815260008051602062006bae83398151915260208201527f72756d4e756d657261746f72206f7665722071756f72756d44656e6f6d696e616040820152623a37b960e91b606082015260800190565b603e815260006020820160008051602062006bae83398151915281527f72756d4e756d657261746f72206c657373207468616e204d696e696d756d00006020820152915062000667565b60208082528101620004fe8162000b88565b603a81526000602082017f75706461746554696d656c6f636b3a206e657754696d656c6f636b206164647281527f6573732063616e6e6f74206265207a65726f20616464726573730000000000006020820152915062000667565b60208082528101620004fe8162000be4565b6040810162000c618285620009e7565b620002ba6020830184620009e7565b60805160a05160c05160e051610100516101205161014051615ed562000cd960003960008181610bb801528181613048015261322d0152600061338f015260006133d1015260006133b0015260006133140152600061333e015260006133680152615ed56000f3fe60806040526004361061039b5760003560e01c806370b0f660116101dc578063c59057e411610102578063ea0217cf116100a0578063f3191bd91161006f578063f3191bd914610b46578063f4a4f4d214610b66578063f8ce560a14610b86578063fc0c546a14610ba657600080fd5b8063ea0217cf14610ac6578063eb9019d414610ae6578063ece40cc114610b06578063f27715b414610b2657600080fd5b8063d19949fc116100dc578063d19949fc14610a3f578063d33219b414610a54578063deaaa7cc14610a72578063e4facb4d14610aa657600080fd5b8063c59057e4146109dc578063caba5884146109fc578063cf66138b14610a2957600080fd5b806397c3d3341161017a578063ab58fb8e11610149578063ab58fb8e14610971578063b58131b014610991578063bd015f5d146109a6578063c01f9e37146109bc57600080fd5b806397c3d334146109085780639a802a6d1461091c578063a7713a701461093c578063a890c9101461095157600080fd5b80637d5e81e2116101b65780637d5e81e2146108a85780637fcc53ee146108c8578063929e1e20146108df578063957aa58c146108f257600080fd5b806370b0f66014610838578063784547a7146108585780637b3c71d31461088857600080fd5b80633932abb1116102c1578063544ffc9c1161025f5780635f3207751161022e5780635f320775146107c05780635f398a14146107d657806363a599a4146107f65780636484783e1461080b57600080fd5b8063544ffc9c1461070d57806354fd4d5014610756578063567813881461078057806358df30f1146107a057600080fd5b80633eadf4dc1161029b5780633eadf4dc1461066157806340ba1b1e1461068157806343859632146106a35780634925ec55146106ed57600080fd5b80633932abb1146105ff5780633bccf4fd146106145780633e4f49e61461063457600080fd5b806320ea8d861161033957806327374c761161030857806327374c761461055c5780632c72fdfc1461057c5780632d63f693146105ab5780632fe3e261146105cb57600080fd5b806320ea8d86146104d957806321cd4131146104f9578063240028e8146105195780632656227d1461054957600080fd5b806306f3f9e61161037557806306f3f9e61461045757806306fdde0314610477578063160cbed7146104995780631c12dd73146104b957600080fd5b806301ffc9a7146103df57806302a251a314610415578063034201811461043757600080fd5b366103da57306103a9610be7565b6001600160a01b0316146103d85760405162461bcd60e51b81526004016103cf90613d53565b60405180910390fd5b005b600080fd5b3480156103eb57600080fd5b506103ff6103fa366004613d85565b610c00565b60405161040c9190613db0565b60405180910390f35b34801561042157600080fd5b5061042a610c11565b60405161040c9190613dc4565b34801561044357600080fd5b5061042a610452366004613ef0565b610c1c565b34801561046357600080fd5b506103d8610472366004613fc3565b610cd0565b34801561048357600080fd5b5061048c610d5a565b60405161040c919061403a565b3480156104a557600080fd5b5061042a6104b4366004614218565b610dec565b3480156104c557600080fd5b5061042a6104d4366004614218565b61101b565b3480156104e557600080fd5b506103d86104f4366004613fc3565b611066565b34801561050557600080fd5b506103d86105143660046142c9565b61111a565b34801561052557600080fd5b506103ff6105343660046142c9565b60156020526000908152604090205460ff1681565b61042a610557366004614218565b6111a1565b34801561056857600080fd5b506103d8610577366004613fc3565b611388565b34801561058857600080fd5b5061059c610597366004613fc3565b61141b565b60405161040c9392919061435c565b3480156105b757600080fd5b5061042a6105c6366004613fc3565b611462565b3480156105d757600080fd5b5061042a7fb3b3f3b703cd84ce352197dcff232b1b5d3cfb2025ce47cf04742d0651f1af8881565b34801561060b57600080fd5b5061042a611499565b34801561062057600080fd5b5061042a61062f366004614395565b6114a4565b34801561064057600080fd5b5061065461064f366004613fc3565b611522565b60405161040c9190614451565b34801561066d57600080fd5b506103d861067c366004613fc3565b61152d565b34801561068d57600080fd5b506106966115c0565b60405161040c91906144bc565b3480156106af57600080fd5b506103ff6106be3660046144cd565b60008281526010602090815260408083206001600160a01b038516845260030190915290205460ff1692915050565b3480156106f957600080fd5b5061048c610708366004613fc3565b611617565b34801561071957600080fd5b50610747610728366004613fc3565b6000908152601060205260409020805460018201546002909201549092565b60405161040c9392919061450a565b34801561076257600080fd5b506040805180820190915260018152603160f81b602082015261048c565b34801561078c57600080fd5b5061042a61079b366004614532565b6116b9565b3480156107ac57600080fd5b506103d86107bb3660046142c9565b6116fd565b3480156107cc57600080fd5b5061042a60005481565b3480156107e257600080fd5b5061042a6107f1366004614565565b611784565b34801561080257600080fd5b506103d86117c0565b34801561081757600080fd5b5061042a6108263660046142c9565b600a6020526000908152604090205481565b34801561084457600080fd5b506103d8610853366004613fc3565b61194f565b34801561086457600080fd5b506103ff610873366004613fc3565b60096020526000908152604090205460ff1681565b34801561089457600080fd5b5061042a6108a33660046145f1565b6119d6565b3480156108b457600080fd5b5061042a6108c336600461465b565b611a12565b3480156108d457600080fd5b5061042a6201518081565b6103d86108ed366004614740565b611a20565b3480156108fe57600080fd5b5061042a60045481565b34801561091457600080fd5b50606461042a565b34801561092857600080fd5b5061042a6109373660046147ad565b611b68565b34801561094857600080fd5b5060115461042a565b34801561095d57600080fd5b506103d861096c366004614801565b611b75565b34801561097d57600080fd5b5061042a61098c366004613fc3565b611bfc565b34801561099d57600080fd5b5061042a611c98565b3480156109b257600080fd5b5061042a60065481565b3480156109c857600080fd5b5061042a6109d7366004613fc3565b611ca3565b3480156109e857600080fd5b5061042a6109f7366004614218565b611cd2565b348015610a0857600080fd5b50610a1c610a17366004613fc3565b611d0c565b60405161040c919061482b565b348015610a3557600080fd5b5061042a60015481565b348015610a4b57600080fd5b5061042a600281565b348015610a6057600080fd5b506012546001600160a01b0316610a1c565b348015610a7e57600080fd5b5061042a7f150214d74d59b7d1e90c73fc22ef3d991dd0a76b046543d4d80ab92d2a50328f81565b348015610ab257600080fd5b506103d8610ac1366004613fc3565b611d36565b348015610ad257600080fd5b506103d8610ae1366004613fc3565b611dca565b348015610af257600080fd5b5061042a610b01366004614839565b611e51565b348015610b1257600080fd5b506103d8610b21366004613fc3565b611e72565b348015610b3257600080fd5b506103d8610b413660046142c9565b611ef9565b348015610b5257600080fd5b506103d8610b6136600461486c565b611fb9565b348015610b7257600080fd5b506103d8610b81366004613fc3565b6120fe565b348015610b9257600080fd5b5061042a610ba1366004613fc3565b612243565b348015610bb257600080fd5b50610bda7f000000000000000000000000000000000000000000000000000000000000000081565b60405161040c9190614909565b6000610bfb6012546001600160a01b031690565b905090565b6000610c0b8261224e565b92915050565b6000610bfb600e5490565b6000600454600114610c405760405162461bcd60e51b81526004016103cf90614939565b6000610cb2610caa7fb3b3f3b703cd84ce352197dcff232b1b5d3cfb2025ce47cf04742d0651f1af888b8b8b805190602001208b80519060200120604051602001610c8f959493929190614952565b60405160208183030381529060405280519060200120612273565b868686612286565b9050610cc189828a8a8a6122ae565b9150505b979650505050505050565b610cd8610be7565b6001600160a01b0316336001600160a01b031614610d085760405162461bcd60e51b81526004016103cf906149c8565b30610d11610be7565b6001600160a01b031614610d4e5760008036604051610d319291906149eb565b604051809103902090505b80610d47600b6123d4565b03610d3c57505b610d5781612453565b50565b606060028054610d6990614a0e565b80601f0160208091040260200160405190810160405280929190818152602001828054610d9590614a0e565b8015610de25780601f10610db757610100808354040283529160200191610de2565b820191906000526020600020905b815481529060010190602001808311610dc557829003601f168201915b5050505050905090565b600080610dfb86868686611cd2565b60008181526009602052604090205490915060ff16610e2c5760405162461bcd60e51b81526004016103cf90614a6c565b6004610e3782611522565b6007811115610e4857610e4861440d565b14610e655760405162461bcd60e51b81526004016103cf90614aba565b6012546040805163793d064960e11b815290516000926001600160a01b03169163f27a0c929160048083019260209291908290030181865afa158015610eaf573d6000803e3d6000fd5b505050506040513d601f19601f82011682018060405250810190610ed39190614ad5565b60125460405163b1c5f42760e01b81529192506001600160a01b03169063b1c5f42790610f0d908a908a908a906000908b90600401614bae565b602060405180830381865afa158015610f2a573d6000803e3d6000fd5b505050506040513d601f19601f82011682018060405250810190610f4e9190614ad5565b6000838152601360205260408082209290925560125491516308f2a0bb60e41b81526001600160a01b0390921691638f2a0bb091610f99918b918b918b91908b908990600401614bf6565b600060405180830381600087803b158015610fb357600080fd5b505af1158015610fc7573d6000803e3d6000fd5b505050507f9a2e42fd6722813d69113e7d0079d3d940171428df7373df9c7f7617cfda2892828242610ff99190614c6e565b604051611007929190614c81565b60405180910390a15090505b949350505050565b6005546000906001600160a01b0316336001600160a01b0316146110515760405162461bcd60e51b81526004016103cf90614cc9565b61105d858585856124db565b95945050505050565b6005546001600160a01b0316336001600160a01b0316146110995760405162461bcd60e51b81526004016103cf90614cc9565b600081815260076020526040902060020154819060ff16156110cd5760405162461bcd60e51b81526004016103cf90614d0d565b6110d6826124e9565b600082815260096020526040808220805460ff1916905551839133917ff0dca620e2e81f7841d07bcc105e1704fb01475b278a9d4c236e1c62945edd559190a35050565b611122610be7565b6001600160a01b0316336001600160a01b0316146111525760405162461bcd60e51b81526004016103cf906149c8565b3061115b610be7565b6001600160a01b031614611198576000803660405161117b9291906149eb565b604051809103902090505b80611191600b6123d4565b0361118657505b610d5781612517565b60006004546001146111c55760405162461bcd60e51b81526004016103cf90614939565b60006111d386868686611cd2565b90506111de816125b6565b6111e7816124e9565b60006111f282611522565b905060058160078111156112085761120861440d565b146112255760405162461bcd60e51b81526004016103cf90614aba565b6000805b875181101561126b5787818151811061124457611244614d1d565b6020026020010151826112579190614c6e565b91508061126381614d33565b915050611229565b508034101561128c5760405162461bcd60e51b81526004016103cf90614d8b565b600083815260076020526040808220600201805460ff191660011790555184917f712ae1383f79ac853f8d882153778e0260ef8f03b504e2866e0593e04d2b291f91a26112dc83898989896125e7565b6112e98389898989612687565b6112f683898989896126c2565b8034111561137c5760003361130b8334614d9b565b60405161131790614dae565b60006040518083038185875af1925050503d8060008114611354576040519150601f19603f3d011682016040523d82523d6000602084013e611359565b606091505b505090508061137a5760405162461bcd60e51b81526004016103cf90614de4565b505b50909695505050505050565b6005546001600160a01b0316336001600160a01b0316146113bb5760405162461bcd60e51b81526004016103cf90614cc9565b806000036113db5760405162461bcd60e51b81526004016103cf90614e4e565b7f3da73a181c2b3944927ac2df9dc262cf838e775431feb05974323f1cdabe38968160015460405161140e929190614c81565b60405180910390a1600155565b60035460609081908190600081900361143e57506060925082915081905061145b565b8085111561144a578094505b611453856126fb565b935093509350505b9193909250565b60008181526007602090815260408083208151928301909152546001600160401b0316908190525b6001600160401b031692915050565b6000610bfb600d5490565b60006004546001146114c85760405162461bcd60e51b81526004016103cf90614939565b6000611505610caa7f150214d74d59b7d1e90c73fc22ef3d991dd0a76b046543d4d80ab92d2a50328f8989604051602001610c8f93929190614e5e565b9050610cc5878288604051806020016040528060008152506129bb565b6000610c0b826129de565b6005546001600160a01b0316336001600160a01b0316146115605760405162461bcd60e51b81526004016103cf90614cc9565b806000036115805760405162461bcd60e51b81526004016103cf90614ecf565b7f9187ebb0ce0ff73eeba0fa7031c0d57dcf43f08ac34102f94434e5c0c108c964816000546040516115b3929190614c81565b60405180910390a1600055565b60606003805480602002602001604051908101604052809291908181526020018280548015610de257602002820191906000526020600020905b8154815260200190600101908083116115fa575050505050905090565b600081815260086020526040902080546060919061163490614a0e565b80601f016020809104026020016040519081016040528092919081815260200182805461166090614a0e565b80156116ad5780601f10611682576101008083540402835291602001916116ad565b820191906000526020600020905b81548152906001019060200180831161169057829003601f168201915b50505050509050919050565b60006004546001146116dd5760405162461bcd60e51b81526004016103cf90614939565b6000339050611013848285604051806020016040528060008152506129bb565b611705610be7565b6001600160a01b0316336001600160a01b0316146117355760405162461bcd60e51b81526004016103cf906149c8565b3061173e610be7565b6001600160a01b03161461177b576000803660405161175e9291906149eb565b604051809103902090505b80611774600b6123d4565b0361176957505b610d5781612ad5565b60006004546001146117a85760405162461bcd60e51b81526004016103cf90614939565b336117b686828787876122ae565b9695505050505050565b6005546001600160a01b0316336001600160a01b0316146117f35760405162461bcd60e51b81526004016103cf90614cc9565b6117fb612be1565b60005b6016548110156118ca5760006016828154811061181d5761181d614d1d565b60009182526020822001546040516370a0823160e01b81526001600160a01b03909116925082906370a082319061185890309060040161482b565b602060405180830381865afa158015611875573d6000803e3d6000fd5b505050506040513d601f19601f820116820180604052508101906118999190614ad5565b905080156118b5576118b56001600160a01b0383163383612c33565b505080806118c290614d33565b9150506117fe565b50471561194d576000336001600160a01b0316476040516118ea90614dae565b60006040518083038185875af1925050503d8060008114611927576040519150601f19603f3d011682016040523d82523d6000602084013e61192c565b606091505b5050905080610d575760405162461bcd60e51b81526004016103cf90614de4565b565b611957610be7565b6001600160a01b0316336001600160a01b0316146119875760405162461bcd60e51b81526004016103cf906149c8565b30611990610be7565b6001600160a01b0316146119cd57600080366040516119b09291906149eb565b604051809103902090505b806119c6600b6123d4565b036119bb57505b610d5781612c8e565b60006004546001146119fa5760405162461bcd60e51b81526004016103cf90614939565b33611a07858286866129bb565b9150505b9392505050565b600061105d85858585612cce565b611a28610be7565b6001600160a01b0316336001600160a01b031614611a585760405162461bcd60e51b81526004016103cf906149c8565b30611a61610be7565b6001600160a01b031614611a9e5760008036604051611a819291906149eb565b604051809103902090505b80611a97600b6123d4565b03611a8c57505b6001600160a01b03841660009081526015602052604090205460ff1615611ad75760405162461bcd60e51b81526004016103cf90614f39565b600080856001600160a01b0316858585604051611af59291906149eb565b60006040518083038185875af1925050503d8060008114611b32576040519150601f19603f3d011682016040523d82523d6000602084013e611b37565b606091505b5091509150611b5f8282604051806060016040528060338152602001615e6d60339139612ff5565b50505050505050565b600061101384848461302e565b611b7d610be7565b6001600160a01b0316336001600160a01b031614611bad5760405162461bcd60e51b81526004016103cf906149c8565b30611bb6610be7565b6001600160a01b031614611bf35760008036604051611bd69291906149eb565b604051809103902090505b80611bec600b6123d4565b03611be157505b610d57816130c0565b60125460008281526013602052604080822054905163d45c443560e01b8152919283926001600160a01b039091169163d45c443591611c3e9190600401613dc4565b602060405180830381865afa158015611c5b573d6000803e3d6000fd5b505050506040513d601f19601f82011682018060405250810190611c7f9190614ad5565b905080600114611c8f5780611a0b565b60009392505050565b6000610bfb600f5490565b60008181526007602090815260408083208151928301909152600101546001600160401b03169081905261148a565b600084848484604051602001611ceb9493929190614f49565b60408051601f19818403018152919052805160209091012095945050505050565b60168181548110611d1c57600080fd5b6000918252602090912001546001600160a01b0316905081565b6005546001600160a01b0316336001600160a01b031614611d695760405162461bcd60e51b81526004016103cf90614cc9565b62015180811015611d8c5760405162461bcd60e51b81526004016103cf90614feb565b7f3da73a181c2b3944927ac2df9dc262cf838e775431feb05974323f1cdabe38968182604051611dbd929190614c81565b60405180910390a1600655565b611dd2610be7565b6001600160a01b0316336001600160a01b031614611e025760405162461bcd60e51b81526004016103cf906149c8565b30611e0b610be7565b6001600160a01b031614611e485760008036604051611e2b9291906149eb565b604051809103902090505b80611e41600b6123d4565b03611e3657505b610d578161314f565b6000611a0b8383611e6d60408051602081019091526000815290565b61302e565b611e7a610be7565b6001600160a01b0316336001600160a01b031614611eaa5760405162461bcd60e51b81526004016103cf906149c8565b30611eb3610be7565b6001600160a01b031614611ef05760008036604051611ed39291906149eb565b604051809103902090505b80611ee9600b6123d4565b03611ede57505b610d57816131af565b6005546001600160a01b0316336001600160a01b031614611f2c5760405162461bcd60e51b81526004016103cf90614cc9565b6001600160a01b038116611f525760405162461bcd60e51b81526004016103cf90615055565b6005546040517fa31378226bf642b76b52240a017232ce81a41924f7e964dfe5b2cc0ebe6287ca91611f8f9184916001600160a01b031690615065565b60405180910390a1600580546001600160a01b0319166001600160a01b0392909216919091179055565b611fc1610be7565b6001600160a01b0316336001600160a01b031614611ff15760405162461bcd60e51b81526004016103cf906149c8565b30611ffa610be7565b6001600160a01b031614612037576000803660405161201a9291906149eb565b604051809103902090505b80612030600b6123d4565b0361202557505b6001600160a01b03831660009081526015602052604090205460ff1661206f5760405162461bcd60e51b81526004016103cf906150b4565b600080846001600160a01b0316848460405161208c9291906149eb565b6000604051808303816000865af19150503d80600081146120c9576040519150601f19603f3d011682016040523d82523d6000602084013e6120ce565b606091505b50915091506120f682826040518060600160405280602d8152602001615e40602d9139612ff5565b505050505050565b6005546001600160a01b0316336001600160a01b0316146121315760405162461bcd60e51b81526004016103cf90614cc9565b600081815260076020526040902060020154819060ff16156121655760405162461bcd60e51b81526004016103cf90614d0d565b600082815260096020526040902054829060ff16156121965760405162461bcd60e51b81526004016103cf906150f8565b61219f836125b6565b6000838152600960205260408120805460ff191660011790556121c184611522565b905060048160078111156121d7576121d761440d565b14806121f4575060058160078111156121f2576121f261440d565b145b6122105760405162461bcd60e51b81526004016103cf90614aba565b604051849033907fc465ffb6829baf0ff01f0180d8bc0dca7de4bb775e4d3a1bf155f9047da4026c90600090a350505050565b6000610c0b8261320f565b60006001600160e01b03198216636e665ced60e01b1480610c0b5750610c0b826132b7565b6000610c0b612280613307565b836133f5565b600080600061229787878787613428565b915091506122a481613508565b5095945050505050565b600085815260076020526040812060016122c788611522565b60078111156122d8576122d861440d565b146122f55760405162461bcd60e51b81526004016103cf90615148565b604080516020810190915281546001600160401b03169081905260009061231e9088908661302e565b905061232d88888884886135e8565b83516000036123815787876001600160a01b03167fb8e138887d0aa13bab447e82de9d5c1777041ecd21ca36ba824ff1e6c07ddda488848960405161237493929190615158565b60405180910390a3610cc5565b87876001600160a01b03167fe2babfbac5889a709b63bb7f598b324e08bc5a4fb9ec647fb3cbc9ec07eb8712888489896040516123c19493929190615185565b60405180910390a3979650505050505050565b60006123ef8254600f81810b600160801b909204900b131590565b1561240d57604051631ed9509560e11b815260040160405180910390fd5b508054600f0b6000818152600180840160205260408220805492905583546fffffffffffffffffffffffffffffffff191692016001600160801b03169190911790915590565b60648111156124745760405162461bcd60e51b81526004016103cf906151c6565b60028110156124955760405162461bcd60e51b81526004016103cf9061528d565b60118054908290556040517f0553476bf02ef2726e8ce5ced78d63e26e602e4a2257b1f559418e24b4633997906124cf9083908590614c81565b60405180910390a15050565b600061105d858585856136d4565b60008181526009602052604090205460ff16610d575760405162461bcd60e51b81526004016103cf906152ca565b6001600160a01b03811660009081526015602052604090205460ff16156125505760405162461bcd60e51b81526004016103cf90615305565b6001600160a01b03166000818152601560205260408120805460ff191660019081179091556016805491820181559091527fd833147d7dc355ba459fc788f669e58cfaf9dc25ddcd0702e87d69c7b51242890180546001600160a01b0319169091179055565b600081815260076020526040902060030154421115610d575760405162461bcd60e51b81526004016103cf9061533c565b306125f0610be7565b6001600160a01b0316146126805760005b84518110156120f657306001600160a01b031685828151811061262657612626614d1d565b60200260200101516001600160a01b0316036126705761267083828151811061265157612651614d1d565b602002602001015180519060200120600b61378290919063ffffffff16565b61267981614d33565b9050612601565b5050505050565b60008581526009602052604090205460ff166126b55760405162461bcd60e51b81526004016103cf9061539d565b61268085858585856137be565b306126cb610be7565b6001600160a01b03161461268057600b54600f81810b600160801b909204900b1315612680576000600b55612680565b60608060606000846001600160401b0381111561271a5761271a613df7565b60405190808252806020026020018201604052801561274d57816020015b60608152602001906001900390816127385790505b5090506000856001600160401b0381111561276a5761276a613df7565b60405190808252806020026020018201604052801561279d57816020015b60608152602001906001900390816127885790505b5090506000866001600160401b038111156127ba576127ba613df7565b6040519080825280602002602001820160405280156127ed57816020015b60608152602001906001900390816127d85790505b50600354909150600061280160018a614d9b565b905081891061281857612815600183614d9b565b90505b60006003612827600185614d9b565b8154811061283757612837614d1d565b9060005260206000200154905061284d8161387a565b84838151811061285f5761285f614d1d565b602002602001018190525060086000828152602001908152602001600020805461288890614a0e565b80601f01602080910402602001604051908101604052809291908181526020018280546128b490614a0e565b80156129015780601f106128d657610100808354040283529160200191612901565b820191906000526020600020905b8154815290600101906020018083116128e457829003601f168201915b505050505085838151811061291857612918614d1d565b602002602001018190525061294861292f82611522565b60078111156129405761294061440d565b60ff1661387a565b86838151811061295a5761295a614d1d565b6020908102919091010152612970600184614d9b565b60000361297d57506129ac565b8160000361298b57506129ac565b82612995816153ad565b93505081806129a3906153ad565b92505050612818565b50909791965091945092505050565b600061105d858585856129d960408051602081019091526000815290565b6122ae565b6000806129ea8361397a565b90506004816007811115612a0057612a0061440d565b14612a0b5792915050565b60008381526013602052604090205480612a26575092915050565b60008481526014602052604090205460ff161515600103612a4b575060079392505050565b601254604051632c258a9f60e11b81526001600160a01b039091169063584b153e90612a7b908490600401613dc4565b602060405180830381865afa158015612a98573d6000803e3d6000fd5b505050506040513d601f19601f82011682018060405250810190612abc91906153d7565b15612acb575060059392505050565b5060029392505050565b60005b601654811015612baa57816001600160a01b031660168281548110612aff57612aff614d1d565b6000918252602090912001546001600160a01b031603612b985760168054612b2990600190614d9b565b81548110612b3957612b39614d1d565b600091825260209091200154601680546001600160a01b039092169183908110612b6557612b65614d1d565b9060005260206000200160006101000a8154816001600160a01b0302191690836001600160a01b03160217905550612baa565b80612ba281614d33565b915050612ad8565b506016805480612bbc57612bbc6153f8565b600082815260209020810160001990810180546001600160a01b031916905501905550565b600454600114612c035760405162461bcd60e51b81526004016103cf9061542d565b600060048190556040517f4e97bcfc80ae353daee1a1990d5b388eef167d3e197ebf5243cc4d43b4125c099190a1565b612c898363a9059cbb60e01b8484604051602401612c5292919061543d565b60408051601f198184030181529190526020810180516001600160e01b03166001600160e01b031990931692909217909152613a59565b505050565b7fc565b045403dc03c2eea82b81a0465edad9e2e7fc4d97e11421c209da93d7a93600d5482604051612cc1929190614c81565b60405180910390a1600d55565b6000600454600114612cf25760405162461bcd60e51b81526004016103cf90614939565b612cfa611c98565b612d0933610b01600143614d9b565b1015612d275760405162461bcd60e51b81526004016103cf90615499565b336000908152600a60205260409020544211612d555760405162461bcd60e51b81526004016103cf90615503565b600154612d629042614c6e565b600a6000336001600160a01b03166001600160a01b03168152602001908152602001600020819055506000612da08686868680519060200120611cd2565b90508451865114612dc35760405162461bcd60e51b81526004016103cf90615551565b8351865114612de45760405162461bcd60e51b81526004016103cf90615551565b6000865111612e055760405162461bcd60e51b81526004016103cf90615595565b60005486511115612e285760405162461bcd60e51b81526004016103cf906155d9565b600081815260076020908152604091829020825191820190925281546001600160401b03169081905215612e6e5760405162461bcd60e51b81526004016103cf90615627565b6000612e80612e7b611499565b613ae8565b612e8943613ae8565b612e939190615637565b90506000612ea2612e7b610c11565b612eac9083615637565b835467ffffffffffffffff19166001600160401b038416178455905060018301805467ffffffffffffffff19166001600160401b038316179055600654612ef39042614c6e565b60038401556000848152600860205260409020612f1087826156e8565b50600380546001810182556000919091527fc2575a0e9e593c00f959f8c92f12db2869c3395a3b0502d05e2516446f71f85b018490556001600160401b038116336001600160a01b0316857f7d84a6263ae0d98d3329bd7b46bb4e8d6f98cd35a7adb45c274c8b7fd5ebd5e08c8c8e516001600160401b03811115612f9757612f97613df7565b604051908082528060200260200182016040528015612fca57816020015b6060815260200190600190039081612fb55790505b508d898e604051612fe0969594939291906157c8565b60405180910390a45091979650505050505050565b60608315613004575081611a0b565b8251156130145782518084602001fd5b8160405162461bcd60e51b81526004016103cf919061403a565b604051630748d63560e31b81526000906001600160a01b037f00000000000000000000000000000000000000000000000000000000000000001690633a46b1a89061307f908790879060040161543d565b602060405180830381865afa15801561309c573d6000803e3d6000fd5b505050506040513d601f19601f820116820180604052508101906110139190614ad5565b6001600160a01b0381166130e65760405162461bcd60e51b81526004016103cf9061589c565b6012546040517f08f74ea46ef7894f65eabfb5e6e695de773a000b47c529ab559178069b22640191613125916001600160a01b03909116908490615065565b60405180910390a1601280546001600160a01b0319166001600160a01b0392909216919091179055565b6000811161316f5760405162461bcd60e51b81526004016103cf906158f0565b7f7e3f7f0708a84de9203036abaa450dccc85ad5ff52f78c170f3edb55cf5e8828600e54826040516131a2929190614c81565b60405180910390a1600e55565b7fccb45da8d5717e6c4544694297c4ba5cf151d455c9bb0ed4fc7a38411bc05461600f54826040516131e2929190614c81565b60405180910390a16000811161320a5760405162461bcd60e51b81526004016103cf9061595a565b600f55565b60006064601154604051632394e7a360e21b81526001600160a01b037f00000000000000000000000000000000000000000000000000000000000000001690638e539e8c90613262908790600401613dc4565b602060405180830381865afa15801561327f573d6000803e3d6000fd5b505050506040513d601f19601f820116820180604052508101906132a39190614ad5565b6132ad919061596a565b610c0b919061599f565b60006001600160e01b03198216632dcb927b60e11b14806132e857506001600160e01b03198216634eb6428760e11b145b80610c0b57506301ffc9a760e01b6001600160e01b0319831614610c0b565b6000306001600160a01b037f00000000000000000000000000000000000000000000000000000000000000001614801561336057507f000000000000000000000000000000000000000000000000000000000000000046145b1561338a57507f000000000000000000000000000000000000000000000000000000000000000090565b610bfb7f00000000000000000000000000000000000000000000000000000000000000007f00000000000000000000000000000000000000000000000000000000000000007f0000000000000000000000000000000000000000000000000000000000000000613b15565b6000828260405160200161340a9291906159b3565b60405160208183030381529060405280519060200120905092915050565b6000807f7fffffffffffffffffffffffffffffff5d576e7357a4501ddfe92f46681b20a083111561345f57506000905060036134ff565b8460ff16601b1415801561347757508460ff16601c14155b1561348857506000905060046134ff565b6000600187878787604051600081526020016040526040516134ad94939291906159e4565b6020604051602081039080840390855afa1580156134cf573d6000803e3d6000fd5b5050604051601f1901519150506001600160a01b0381166134f8576000600192509250506134ff565b9150600090505b94509492505050565b600081600481111561351c5761351c61440d565b036135245750565b60018160048111156135385761353861440d565b036135555760405162461bcd60e51b81526004016103cf90615a4d565b60028160048111156135695761356961440d565b036135865760405162461bcd60e51b81526004016103cf90615a91565b600381600481111561359a5761359a61440d565b036135b75760405162461bcd60e51b81526004016103cf90615ae0565b60048160048111156135cb576135cb61440d565b03610d575760405162461bcd60e51b81526004016103cf90615b2f565b60008581526010602090815260408083206001600160a01b0388168452600381019092529091205460ff16156136305760405162461bcd60e51b81526004016103cf90615b83565b6001600160a01b03851660009081526003820160205260409020805460ff1916600117905560ff841661367c57828160000160008282546136719190614c6e565b909155506120f69050565b60001960ff85160161369c57828160010160008282546136719190614c6e565b60011960ff8516016136bc57828160020160008282546136719190614c6e565b60405162461bcd60e51b81526004016103cf90615be5565b6000806136e386868686613b4f565b6000818152601360205260409020549091501561105d576012546000828152601360205260409081902054905163c4d252f560e01b81526001600160a01b039092169163c4d252f59161373891600401613dc4565b600060405180830381600087803b15801561375257600080fd5b505af1158015613766573d6000803e3d6000fd5b5050506000828152601360205260408120555095945050505050565b8154600160801b90819004600f0b6000818152600180860160205260409091209390935583546001600160801b03908116939091011602179055565b60008581526014602052604090205460ff16156137ed5760405162461bcd60e51b81526004016103cf90615c35565b60125460405163e38335e560e01b81526001600160a01b039091169063e38335e5903490613828908890889088906000908990600401614bae565b6000604051808303818588803b15801561384157600080fd5b505af1158015613855573d6000803e3d6000fd5b50505060009687525050601460205250506040909220805460ff191660011790555050565b6060816000036138a15750506040805180820190915260018152600360fc1b602082015290565b8160005b81156138cb57806138b581614d33565b91506138c49050600a8361599f565b91506138a5565b6000816001600160401b038111156138e5576138e5613df7565b6040519080825280601f01601f19166020018201604052801561390f576020820181803683370190505b5090505b841561101357613924600183614d9b565b9150613931600a86615c45565b61393c906030614c6e565b60f81b81838151811061395157613951614d1d565b60200101906001600160f81b031916908160001a905350613973600a8661599f565b9450613913565b6000818152600760205260408120600281015460ff161561399e5750600792915050565b6002810154610100900460ff16156139b95750600292915050565b60006139c484611462565b9050806000036139e65760405162461bcd60e51b81526004016103cf90615c8d565b4381106139f7575060009392505050565b6000613a0285611ca3565b9050438110613a1657506001949350505050565b613a1f85613c2a565b8015613a3e575060008581526010602052604090208054600190910154115b15613a4e57506004949350505050565b506003949350505050565b6000613aae826040518060400160405280602081526020017f5361666545524332303a206c6f772d6c6576656c2063616c6c206661696c6564815250856001600160a01b0316613c619092919063ffffffff16565b805190915015612c895780806020019051810190613acc91906153d7565b612c895760405162461bcd60e51b81526004016103cf90615ce4565b60006001600160401b03821115613b115760405162461bcd60e51b81526004016103cf90615d37565b5090565b60008383834630604051602001613b30959493929190615d47565b6040516020818303038152906040528051906020012090509392505050565b600080613b5e86868686611cd2565b90506000613b6b82611522565b90506002816007811115613b8157613b8161440d565b14158015613ba157506006816007811115613b9e57613b9e61440d565b14155b8015613bbf57506007816007811115613bbc57613bbc61440d565b14155b613bdb5760405162461bcd60e51b81526004016103cf90615dbd565b600082815260076020526040808220600201805461ff0019166101001790555183917f789cf55be980739dad1d0699b93b58e806b51c9d96619bfa8fe0a28abaa7b30c91a25095945050505050565b600081815260106020526040812060028101546001820154613c4c9190614c6e565b613c58610ba185611462565b11159392505050565b60606110138484600085856001600160a01b0385163b613c935760405162461bcd60e51b81526004016103cf90615e01565b600080866001600160a01b03168587604051613caf9190615e33565b60006040518083038185875af1925050503d8060008114613cec576040519150601f19603f3d011682016040523d82523d6000602084013e613cf1565b606091505b5091509150610cc5828286612ff5565b603281526000602082017f476f7665726e6f722c207265636569766528293a20205f6578656375746f72288152712920213d206164647265737328746869732960701b602082015291505b5060400190565b60208082528101610c0b81613d01565b6001600160e01b031981165b8114610d5757600080fd5b8035610c0b81613d63565b600060208284031215613d9a57613d9a600080fd5b60006110138484613d7a565b8015155b82525050565b60208101610c0b8284613da6565b80613daa565b60208101610c0b8284613dbe565b80613d6f565b8035610c0b81613dd2565b60ff8116613d6f565b8035610c0b81613de3565b634e487b7160e01b600052604160045260246000fd5b601f19601f83011681018181106001600160401b0382111715613e3257613e32613df7565b6040525050565b6000613e4460405190565b9050613e508282613e0d565b919050565b60006001600160401b03821115613e6e57613e6e613df7565b601f19601f83011660200192915050565b82818337506000910152565b6000613e9e613e9984613e55565b613e39565b905082815260208101848484011115613eb957613eb9600080fd5b613ec4848285613e7f565b509392505050565b600082601f830112613ee057613ee0600080fd5b8135611013848260208601613e8b565b600080600080600080600060e0888a031215613f0e57613f0e600080fd5b6000613f1a8a8a613dd8565b9750506020613f2b8a828b01613dec565b96505060408801356001600160401b03811115613f4a57613f4a600080fd5b613f568a828b01613ecc565b95505060608801356001600160401b03811115613f7557613f75600080fd5b613f818a828b01613ecc565b9450506080613f928a828b01613dec565b93505060a0613fa38a828b01613dd8565b92505060c0613fb48a828b01613dd8565b91505092959891949750929550565b600060208284031215613fd857613fd8600080fd5b60006110138484613dd8565b60005b83811015613fff578181015183820152602001613fe7565b50506000910152565b6000614012825190565b808452602084019350614029818560208601613fe4565b601f01601f19169290920192915050565b60208082528101611a0b8184614008565b60006001600160401b0382111561406457614064613df7565b5060209081020190565b60006001600160a01b038216610c0b565b613d6f8161406e565b8035610c0b8161407f565b60006140a1613e998461404b565b838152905060208082019084028301858111156140c0576140c0600080fd5b835b818110156140e457806140d58882614088565b845250602092830192016140c2565b5050509392505050565b600082601f83011261410257614102600080fd5b8135611013848260208601614093565b6000614120613e998461404b565b8381529050602080820190840283018581111561413f5761413f600080fd5b835b818110156140e457806141548882613dd8565b84525060209283019201614141565b600082601f83011261417757614177600080fd5b8135611013848260208601614112565b6000614195613e998461404b565b838152905060208082019084028301858111156141b4576141b4600080fd5b835b818110156140e45780356001600160401b038111156141d7576141d7600080fd5b8086016141e48982613ecc565b85525050602092830192016141b6565b600082601f83011261420857614208600080fd5b8135611013848260208601614187565b6000806000806080858703121561423157614231600080fd5b84356001600160401b0381111561424a5761424a600080fd5b614256878288016140ee565b94505060208501356001600160401b0381111561427557614275600080fd5b61428187828801614163565b93505060408501356001600160401b038111156142a0576142a0600080fd5b6142ac878288016141f4565b92505060606142bd87828801613dd8565b91505092959194509250565b6000602082840312156142de576142de600080fd5b60006110138484614088565b6000611a0b8383614008565b6000614300825190565b8084526020840193508360208202850161431a8560200190565b8060005b8581101561434f578484038952815161433785826142ea565b94506020830160209a909a019992505060010161431e565b5091979650505050505050565b6060808252810161436d81866142f6565b9050818103602083015261438181856142f6565b9050818103604083015261105d81846142f6565b600080600080600060a086880312156143b0576143b0600080fd5b60006143bc8888613dd8565b95505060206143cd88828901613dec565b94505060406143de88828901613dec565b93505060606143ef88828901613dd8565b925050608061440088828901613dd8565b9150509295509295909350565b634e487b7160e01b600052602160045260246000fd5b60088110610d5757610d5761440d565b80613e5081614423565b6000610c0b82614433565b613daa8161443d565b60208101610c0b8284614448565b600061446b8383613dbe565b505060200190565b600061447d825190565b80845260209384019383018060005b838110156144b15781516144a0888261445f565b97506020830192505060010161448c565b509495945050505050565b60208082528101611a0b8184614473565b600080604083850312156144e3576144e3600080fd5b60006144ef8585613dd8565b925050602061450085828601614088565b9150509250929050565b606081016145188286613dbe565b6145256020830185613dbe565b6110136040830184613dbe565b6000806040838503121561454857614548600080fd5b60006145548585613dd8565b925050602061450085828601613dec565b6000806000806080858703121561457e5761457e600080fd5b600061458a8787613dd8565b945050602061459b87828801613dec565b93505060408501356001600160401b038111156145ba576145ba600080fd5b6145c687828801613ecc565b92505060608501356001600160401b038111156145e5576145e5600080fd5b6142bd87828801613ecc565b60008060006060848603121561460957614609600080fd5b60006146158686613dd8565b935050602061462686828701613dec565b92505060408401356001600160401b0381111561464557614645600080fd5b61465186828701613ecc565b9150509250925092565b6000806000806080858703121561467457614674600080fd5b84356001600160401b0381111561468d5761468d600080fd5b614699878288016140ee565b94505060208501356001600160401b038111156146b8576146b8600080fd5b6146c487828801614163565b93505060408501356001600160401b038111156146e3576146e3600080fd5b6145c6878288016141f4565b60008083601f84011261470457614704600080fd5b5081356001600160401b0381111561471e5761471e600080fd5b60208301915083600182028301111561473957614739600080fd5b9250929050565b6000806000806060858703121561475957614759600080fd5b60006147658787614088565b945050602061477687828801613dd8565b93505060408501356001600160401b0381111561479557614795600080fd5b6147a1878288016146ef565b95989497509550505050565b6000806000606084860312156147c5576147c5600080fd5b60006147d18686614088565b935050602061462686828701613dd8565b6000610c0b8261406e565b613d6f816147e2565b8035610c0b816147ed565b60006020828403121561481657614816600080fd5b600061101384846147f6565b613daa8161406e565b60208101610c0b8284614822565b6000806040838503121561484f5761484f600080fd5b600061485b8585614088565b925050602061450085828601613dd8565b60008060006040848603121561488457614884600080fd5b60006148908686614088565b93505060208401356001600160401b038111156148af576148af600080fd5b6148bb868287016146ef565b92509250509250925092565b6000610c0b6001600160a01b0383166148de565b90565b6001600160a01b031690565b6000610c0b826148c7565b6000610c0b826148ea565b613daa816148f5565b60208101610c0b8284614900565b60088152600060208201676e6f74206c69766560c01b815291505b5060200190565b60208082528101610c0b81614917565b60ff8116613daa565b60a081016149608288613dbe565b61496d6020830187613dbe565b61497a6040830186614949565b6149876060830185613dbe565b6117b66080830184613dbe565b601881526000602082017f476f7665726e6f723a206f6e6c79476f7665726e616e6365000000000000000081529150614932565b60208082528101610c0b81614994565b60006149e5838584613e7f565b50500190565b60006110138284866149d8565b634e487b7160e01b600052602260045260246000fd5b600281046001821680614a2257607f821691505b602082108103614a3457614a346149f8565b50919050565b60208082527f71756575653a206e6f7420636f6e6669726d6564206279206d756c746973696791019081526000614932565b60208082528101610c0b81614a3a565b602181526000602082017f476f7665726e6f723a2070726f706f73616c206e6f74207375636365737366758152601b60fa1b60208201529150613d4c565b60208082528101610c0b81614a7c565b8051610c0b81613dd2565b600060208284031215614aea57614aea600080fd5b60006110138484614aca565b600061446b8383614822565b6000614b0c825190565b80845260209384019383018060005b838110156144b1578151614b2f8882614af6565b975060208301925050600101614b1b565b6000614b4a825190565b80845260208401935083602082028501614b648560200190565b8060005b8581101561434f5784840389528151614b8185826142ea565b94506020830160209a909a0199925050600101614b68565b6000610c0b6148db8381565b613daa81614b99565b60a08082528101614bbf8188614b02565b90508181036020830152614bd38187614473565b90508181036040830152614be78186614b40565b90506149876060830185614ba5565b60c08082528101614c078189614b02565b90508181036020830152614c1b8188614473565b90508181036040830152614c2f8187614b40565b9050614c3e6060830186614ba5565b614c4b6080830185613dbe565b610cc560a0830184613dbe565b634e487b7160e01b600052601160045260246000fd5b80820180821115610c0b57610c0b614c58565b60408101614c8f8285613dbe565b611a0b6020830184613dbe565b6016815260006020820175476f7665726e6f723a206f6e6c794d756c746953696760501b81529150614932565b60208082528101610c0b81614c9c565b601981526000602082017f70726f706f73616c20616c72656164792065786563757465640000000000000081529150614932565b60208082528101610c0b81614cd9565b634e487b7160e01b600052603260045260246000fd5b60006000198203614d4657614d46614c58565b5060010190565b602181526000602082017f657865637574653a206d73672e76616c7565206e6f742073756666696369656e8152601d60fa1b60208201529150613d4c565b60208082528101610c0b81614d4d565b81810381811115610c0b57610c0b614c58565b6000610c0b826148db565b60148152600060208201732330b4b632b2103a379039b2b7321032ba3432b960611b81529150614932565b60208082528101610c0b81614db9565b603a81526000602082017f75706461746550726f706f73616c54696d6544656c61793a206e657750726f7081527f6f73616c54696d6544656c61792063616e74206265207a65726f00000000000060208201529150613d4c565b60208082528101610c0b81614df4565b60608101614e6c8286613dbe565b614e796020830185613dbe565b6110136040830184614949565b602c81526000602082017f7570646174654d6178546172676574733a206e65774d6178546172676574732081526b63616e74206265207a65726f60a01b60208201529150613d4c565b60208082528101610c0b81614e86565b603c81526000602082017f72656c61794e6174697665546f6b656e3a2063616e742072656c6179206e617481527f69766520746f6b656e20746f20737570706f7274656420746f6b656e0000000060208201529150613d4c565b60208082528101610c0b81614edf565b60808082528101614f5a8187614b02565b90508181036020830152614f6e8186614473565b90508181036040830152614f828185614b40565b905061105d6060830184613dbe565b604081526000602082017f75706461746550726f706f73616c4c69666574696d653a20757064617465507281527f6f706f73616c4c69666574696d65206c657373207468616e206d696e696d756d60208201529150613d4c565b60208082528101610c0b81614f91565b603781526000602082017f7570646174654d756c74695369673a206e65774d756c74695369672063616e7481527f2062652073657420746f207a65726f206164647265737300000000000000000060208201529150613d4c565b60208082528101610c0b81614ffb565b604081016150738285614822565b611a0b6020830184614822565b601f81526000602082017f72656c617945524332303a20746f6b656e206e6f7420737570706f727465640081529150614932565b60208082528101610c0b81615080565b601a81526000602082017f70726f706f73616c20616c726561647920636f6e6669726d656400000000000081529150614932565b60208082528101610c0b816150c4565b602381526000602082017f476f7665726e6f723a20766f7465206e6f742063757272656e746c792061637481526269766560e81b60208201529150613d4c565b60208082528101610c0b81615108565b606081016151668286614949565b6151736020830185613dbe565b818103604083015261105d8184614008565b608081016151938287614949565b6151a06020830186613dbe565b81810360408301526151b28185614008565b905081810360608301526117b68184614008565b60208082528101610c0b81604381527f476f7665726e6f72566f74657351756f72756d4672616374696f6e3a2071756f60208201527f72756d4e756d657261746f72206f7665722071756f72756d44656e6f6d696e616040820152623a37b960e91b606082015260800190565b603e81526000602082017f476f7665726e6f72566f74657351756f72756d4672616374696f6e3a2071756f81527f72756d4e756d657261746f72206c657373207468616e204d696e696d756d000060208201529150613d4c565b60208082528101610c0b81615233565b60168152600060208201751c1c9bdc1bdcd85b081b9bdd0818dbdb999a5c9b595960521b81529150614932565b60208082528101610c0b8161529d565b6014815260006020820173546f6b656e20616c72656164792065786973747360601b81529150614932565b60208082528101610c0b816152da565b601081526000602082016f1c1c9bdc1bdcd85b08195e1c1a5c995960821b81529150614932565b60208082528101610c0b81615315565b603481526000602082017f4d61696e546f6b656e476f7665726e6f723a2050726f706f73616c206e6f742081527318dbdb999a5c9b595908189e4818dbdd5b98da5b60621b60208201529150613d4c565b60208082528101610c0b8161534c565b6000816153bc576153bc614c58565b506000190190565b801515613d6f565b8051610c0b816153c4565b6000602082840312156153ec576153ec600080fd5b600061101384846153cc565b634e487b7160e01b600052603160045260246000fd5b60088152600060208201676e6f742d6c69766560c01b81529150614932565b60208082528101610c0b8161540e565b60408101614c8f8285614822565b603181526000602082017f476f7665726e6f723a2070726f706f73657220766f7465732062656c6f7720708152701c9bdc1bdcd85b081d1a1c995cda1bdb19607a1b60208201529150613d4c565b60208082528101610c0b8161544b565b603d81526000602082017f476f7665726e6f723a2043616e206f6e6c79207375626d6974206f6e6520707281527f6f706f73616c20666f722061206365727461696e20696e74657276616c00000060208201529150613d4c565b60208082528101610c0b816154a9565b602181526000602082017f476f7665726e6f723a20696e76616c69642070726f706f73616c206c656e67748152600d60fb1b60208201529150613d4c565b60208082528101610c0b81615513565b601881526000602082017f476f7665726e6f723a20656d7074792070726f706f73616c000000000000000081529150614932565b60208082528101610c0b81615561565b601b81526000602082017f476f7665726e6f723a206d617820746172676574206c656e677468000000000081529150614932565b60208082528101610c0b816155a5565b602181526000602082017f476f7665726e6f723a2070726f706f73616c20616c72656164792065786973748152607360f81b60208201529150613d4c565b60208082528101610c0b816155e9565b6001600160401b03918216919081169082820190811115610c0b57610c0b614c58565b61566383614b99565b81546008840282811b60001990911b908116901990911617825550505050565b6000612c8981848461565a565b818110156156ab576156a3600082615683565b600101615690565b5050565b601f821115612c89576000818152602090206020601f850104810160208510156156d65750805b6126806020601f860104830182615690565b81516001600160401b0381111561570157615701613df7565b61570b8254614a0e565b6157168282856156af565b6020601f83116001811461574a57600084156157325750858201515b600019600886021c19811660028602178655506120f6565b600085815260208120601f198616915b8281101561577a578885015182556020948501946001909201910161575a565b868310156157965784890151600019601f89166008021c191682555b600160028802018855505050505050505050565b6000610c0b6148db6001600160401b03841681565b613daa816157aa565b60c080825281016157d98189614b02565b905081810360208301526157ed8188614473565b9050818103604083015261580181876142f6565b905081810360608301526158158186614b40565b905061582460808301856157bf565b81810360a08301526158368184614008565b98975050505050505050565b603a81526000602082017f75706461746554696d656c6f636b3a206e657754696d656c6f636b206164647281527f6573732063616e6e6f74206265207a65726f206164647265737300000000000060208201529150613d4c565b60208082528101610c0b81615842565b602781526000602082017f476f7665726e6f7253657474696e67733a20766f74696e6720706572696f6420815266746f6f206c6f7760c81b60208201529150613d4c565b60208082528101610c0b816158ac565b603a81526000602082017f5f73657450726f706f73616c5468726573686f6c643a205468726573686f6c6481527f20666f722070726f706f73616c2063616e74206265207a65726f00000000000060208201529150613d4c565b60208082528101610c0b81615900565b600081600019048311821515161561598457615984614c58565b500290565b634e487b7160e01b600052601260045260246000fd5b6000826159ae576159ae615989565b500490565b61190160f01b815260020160006159ca8285613dbe565b6020820191506159da8284613dbe565b5060200192915050565b608081016159f28287613dbe565b6159ff6020830186614949565b615a0c6040830185613dbe565b61105d6060830184613dbe565b601881526000602082017f45434453413a20696e76616c6964207369676e6174757265000000000000000081529150614932565b60208082528101610c0b81615a19565b601f81526000602082017f45434453413a20696e76616c6964207369676e6174757265206c656e6774680081529150614932565b60208082528101610c0b81615a5d565b602281526000602082017f45434453413a20696e76616c6964207369676e6174757265202773272076616c815261756560f01b60208201529150613d4c565b60208082528101610c0b81615aa1565b602281526000602082017f45434453413a20696e76616c6964207369676e6174757265202776272076616c815261756560f01b60208201529150613d4c565b60208082528101610c0b81615af0565b602781526000602082017f476f7665726e6f72566f74696e6753696d706c653a20766f746520616c726561815266191e4818d85cdd60ca1b60208201529150613d4c565b60208082528101610c0b81615b3f565b603581526000602082017f476f7665726e6f72566f74696e6753696d706c653a20696e76616c69642076618152746c756520666f7220656e756d20566f74655479706560581b60208201529150613d4c565b60208082528101610c0b81615b93565b602381526000602082017f5f657865637574653a2070726f706f73616c20616c72656164792065786563758152621d195960ea1b60208201529150613d4c565b60208082528101610c0b81615bf5565b600082615c5457615c54615989565b500690565b601d81526000602082017f476f7665726e6f723a20756e6b6e6f776e2070726f706f73616c20696400000081529150614932565b60208082528101610c0b81615c59565b602a81526000602082017f5361666545524332303a204552433230206f7065726174696f6e20646964206e8152691bdd081cdd58d8d9595960b21b60208201529150613d4c565b60208082528101610c0b81615c9d565b602681526000602082017f53616665436173743a2076616c756520646f65736e27742066697420696e203681526534206269747360d01b60208201529150613d4c565b60208082528101610c0b81615cf4565b60a08101615d558288613dbe565b615d626020830187613dbe565b615d6f6040830186613dbe565b615d7c6060830185613dbe565b6117b66080830184614822565b601d81526000602082017f476f7665726e6f723a2070726f706f73616c206e6f742061637469766500000081529150614932565b60208082528101610c0b81615d89565b601d81526000602082017f416464726573733a2063616c6c20746f206e6f6e2d636f6e747261637400000081529150614932565b60208082528101610c0b81615dcd565b6000615e1b825190565b615e29818560208601613fe4565b9290920192915050565b6000611a0b8284615e1156fe476f7665726e6f723a2072656c6179455243323020726576657274656420776974686f7574206d657373616765476f7665726e6f723a2072656c61794e6174697665546f6b656e20726576657274656420776974686f7574206d657373616765a26469706673582212200de09c5c38cf7cfbd684a62c4312065d38a934c37204c08ad50c70a97d94bcea64736f6c63430008100033476f7665726e6f72566f74657351756f72756d4672616374696f6e3a2071756f",
    "immutableReferences": {
        "5681": [
            {
                "length": 32,
                "start": 13160
            }
        ],
        "5683": [
            {
                "length": 32,
                "start": 13118
            }
        ],
        "5685": [
            {
                "length": 32,
                "start": 13076
            }
        ],
        "5687": [
            {
                "length": 32,
                "start": 13232
            }
        ],
        "5689": [
            {
                "length": 32,
                "start": 13265
            }
        ],
        "5691": [
            {
                "length": 32,
                "start": 13199
            }
        ],
        "14369": [
            {
                "length": 32,
                "start": 3000
            },
            {
                "length": 32,
                "start": 12360
            },
            {
                "length": 32,
                "start": 12845
            }
        ]
    },
    "source": "// SPDX-License-Identifier: MIT\n// Copyright Fathom 2022\n\npragma solidity 0.8.16;\n\nimport \"./Governor.sol\";\nimport \"./extensions/GovernorSettings.sol\";\nimport \"./extensions/GovernorCountingSimple.sol\";\nimport \"./extensions/GovernorVotes.sol\";\nimport \"./extensions/GovernorVotesQuorumFraction.sol\";\nimport \"./extensions/GovernorTimelockControl.sol\";\nimport \"../tokens/ERC20/IERC20.sol\";\nimport \"../../common/SafeERC20.sol\";\n\ncontract MainTokenGovernor is\n    Governor,\n    GovernorSettings,\n    GovernorCountingSimple,\n    GovernorVotes,\n    GovernorVotesQuorumFraction,\n    GovernorTimelockControl\n{\n    using SafeERC20 for IERC20;\n    mapping(address => bool) public isSupportedToken;\n    address[] public listOfSupportedTokens;\n\n    constructor(\n        IVotes _token,\n        TimelockController _timelock,\n        address _multiSig,\n        uint256 _initialVotingDelay,\n        uint256 _votingPeriod,\n        uint256 _initialProposalThreshold,\n        uint256 _proposalTimeDelay,\n        uint256 _proposalLifetime\n    )\n        Governor(\"MainTokenGovernor\", _multiSig, 20, _proposalTimeDelay,_proposalLifetime)\n        GovernorSettings(_initialVotingDelay, _votingPeriod, _initialProposalThreshold)\n        GovernorVotes(_token)\n        GovernorVotesQuorumFraction(4)\n        GovernorTimelockControl(_timelock)\n    {}\n\n    function propose(\n        address[] memory targets,\n        uint256[] memory values,\n        bytes[] memory calldatas,\n        string memory description\n    ) public override(Governor, IGovernor) returns (uint256) {\n        return super.propose(targets, values, calldatas, description);\n    }\n\n    function cancelProposal(\n        address[] memory targets,\n        uint256[] memory values,\n        bytes[] memory calldatas,\n        bytes32 descriptionHash\n    ) public override onlyMultiSig returns (uint256) {\n        return _cancel(targets, values, calldatas, descriptionHash);\n    }\n\n    function proposalThreshold() public view override(Governor, GovernorSettings) returns (uint256) {\n        return super.proposalThreshold();\n    }\n\n    function supportsInterface(bytes4 interfaceId) public view override(Governor, GovernorTimelockControl) returns (bool) {\n        return super.supportsInterface(interfaceId);\n    }\n\n    function votingDelay() public view override(IGovernor, GovernorSettings) returns (uint256) {\n        return super.votingDelay();\n    }\n\n    function votingPeriod() public view override(IGovernor, GovernorSettings) returns (uint256) {\n        return super.votingPeriod();\n    }\n\n    function quorum(uint256 blockNumber) public view override(IGovernor, GovernorVotesQuorumFraction) returns (uint256) {\n        return super.quorum(blockNumber);\n    }\n\n    function state(uint256 proposalId) public view override(Governor, GovernorTimelockControl) returns (ProposalState) {\n        return super.state(proposalId);\n    }\n\n    function emergencyStop() public onlyMultiSig{\n        _emergencyStop();\n        for(uint i = 0; i < listOfSupportedTokens.length;i++){\n            address _token = listOfSupportedTokens[i];\n            uint256 balanceInContract = IERC20(_token).balanceOf(address(this));\n            if(balanceInContract > 0){\n                IERC20(_token).safeTransfer(msg.sender, balanceInContract);\n            }  \n        }\n        if (address(this).balance > 0){\n            (bool sent,) =   msg.sender.call{ value: (address(this).balance) }(\"\");\n            require(sent, \"Failed to send ether\");\n        } \n    }\n\n    function addSupportingToken(address _token) public onlyGovernance {\n        _addSupportedToken(_token);\n    }\n    function removeSupportingToken(address _token) public onlyGovernance {\n        _removeSupportingToken(_token);\n    }\n\n    function _addSupportedToken(address _token) internal {\n        require(!isSupportedToken[_token], \"Token already exists\");\n        isSupportedToken[_token] = true;\n        listOfSupportedTokens.push(_token);\n    }\n\n    function _removeSupportingToken(address _token) internal {\n        for (uint256 i = 0; i < listOfSupportedTokens.length; i++) {\n            if (listOfSupportedTokens[i] == _token) {\n                listOfSupportedTokens[i] = listOfSupportedTokens[listOfSupportedTokens.length - 1];\n                break;\n            }\n        }\n        listOfSupportedTokens.pop();\n    }\n    \n\n    /**\n     * @dev Relays a transaction or function call to an arbitrary target. In cases where the governance executor\n     * is some contract other than the governor itself, like when using a timelock, this function can be invoked\n     * in a governance proposal to recover tokens or Ether that was sent to the governor contract by mistake.\n     * Note that if the executor is simply the governor itself, use of `relay` is redundant.\n     */\n    function relayERC20(\n        address target,\n        bytes calldata data\n    ) external virtual onlyGovernance {\n        require(isSupportedToken[target], \"relayERC20: token not supported\");\n        (bool success, bytes memory returndata) = target.call(data);\n        Address.verifyCallResult(success, returndata, \"Governor: relayERC20 reverted without message\");\n    }\n\n    /**\n     * @dev Relays a transaction or function call to an arbitrary target. In cases where the governance executor\n     * is some contract other than the governor itself, like when using a timelock, this function can be invoked\n     * in a governance proposal to recover tokens or Ether that was sent to the governor contract by mistake.\n     * Note that if the executor is simply the governor itself, use of `relay` is redundant.\n     */\n    function relayNativeToken(\n        address target,\n        uint256 value,\n        bytes calldata data\n    ) external payable virtual onlyGovernance {\n        require(!isSupportedToken[target],\"relayNativeToken: cant relay native token to supported token\");\n        (bool success, bytes memory returndata) = target.call{ value: value }(data);\n        Address.verifyCallResult(success, returndata, \"Governor: relayNativeToken reverted without message\");\n    }\n\n    function _execute(\n        uint256 proposalId,\n        address[] memory targets,\n        uint256[] memory values,\n        bytes[] memory calldatas,\n        bytes32 descriptionHash\n    ) internal override(Governor, GovernorTimelockControl) {\n        require(isConfirmed[proposalId], \"MainTokenGovernor: Proposal not confirmed by council\");\n        super._execute(proposalId, targets, values, calldatas, descriptionHash);\n    }\n\n    function _cancel(\n        address[] memory targets,\n        uint256[] memory values,\n        bytes[] memory calldatas,\n        bytes32 descriptionHash\n    ) internal override(Governor, GovernorTimelockControl) returns (uint256) {\n        return super._cancel(targets, values, calldatas, descriptionHash);\n    }\n\n    function _executor() internal view override(Governor, GovernorTimelockControl) returns (address) {\n        return super._executor();\n    }\n}\n",
    "sourcePath": "/Users/subiksinghshrestha/Documents/FATHOM/fathom-dao-smart-contracts/contracts/dao/governance/MainTokenGovernor.sol",
    "compiler": {
        "name": "solc",
        "version": "0.8.16+commit.07a7930e.Darwin.appleclang"
    },
    "schemaVersion": "3.4.10",
    "updatedAt": "2023-02-04T08:03:31.855Z",
    "devdoc": {
        "errors": {
            "Empty()": [
                {
                    "details": "An operation (e.g. {front}) couldn't be completed due to the queue being empty."
                }
            ]
        },
        "kind": "dev",
        "methods": {
            "hashProposal(address[],uint256[],bytes[],bytes32)": {
                "details": "A description of the possible `support` values for {castVote} and the way these votes are counted, meant to be consumed by UIs to show correct vote options and interpret the results. The string is a URL-encoded sequence of key-value pairs that each describe one aspect, for example `support=bravo&quorum=for,abstain`. There are 2 standard keys: `support` and `quorum`. - `support=bravo` refers to the vote options 0 = Against, 1 = For, 2 = Abstain, as in `GovernorBravo`. - `quorum=bravo` means that only For votes are counted towards quorum. - `quorum=for,abstain` means that both For and Abstain votes are counted towards quorum. If a counting module makes use of encoded `params`, it should  include this under a `params` key with a unique name that describes the behavior. For example: - `params=fractional` might refer to a scheme where votes are divided fractionally between for/against/abstain. - `params=erc721` might refer to a scheme where specific NFTs are delegated to vote. NOTE: The string can be decoded by the standard https://developer.mozilla.org/en-US/docs/Web/API/URLSearchParams[`URLSearchParams`] JavaScript class."
            },
            "relayERC20(address,bytes)": {
                "details": "Relays a transaction or function call to an arbitrary target. In cases where the governance executor is some contract other than the governor itself, like when using a timelock, this function can be invoked in a governance proposal to recover tokens or Ether that was sent to the governor contract by mistake. Note that if the executor is simply the governor itself, use of `relay` is redundant."
            },
            "relayNativeToken(address,uint256,bytes)": {
                "details": "Relays a transaction or function call to an arbitrary target. In cases where the governance executor is some contract other than the governor itself, like when using a timelock, this function can be invoked in a governance proposal to recover tokens or Ether that was sent to the governor contract by mistake. Note that if the executor is simply the governor itself, use of `relay` is redundant."
            },
            "updateQuorumNumerator(uint256)": {
                "details": "Changes the quorum numerator. Emits a {QuorumNumeratorUpdated} event. Requirements: - Must be called through a governance proposal. - New numerator must be smaller or equal to the denominator."
            }
        },
        "version": 1
    },
    "userdoc": {
        "kind": "user",
        "methods": {},
        "version": 1
    }
}