{
    "contractName": "MainTokenGovernor",
    "abi": [
        {
            "inputs": [
                {
                    "internalType": "contract IVotes",
                    "name": "_token",
                    "type": "address"
                },
                {
                    "internalType": "contract TimelockController",
                    "name": "_timelock",
                    "type": "address"
                },
                {
                    "internalType": "address",
                    "name": "_multiSig",
                    "type": "address"
                },
                {
                    "internalType": "uint256",
                    "name": "_initialVotingDelay",
                    "type": "uint256"
                },
                {
                    "internalType": "uint256",
                    "name": "_votingPeriod",
                    "type": "uint256"
                },
                {
                    "internalType": "uint256",
                    "name": "_initialProposalThreshold",
                    "type": "uint256"
                },
                {
                    "internalType": "uint256",
                    "name": "_proposalTimeDelay",
                    "type": "uint256"
                },
                {
                    "internalType": "uint256",
                    "name": "_proposalLifetime",
                    "type": "uint256"
                }
            ],
            "stateMutability": "nonpayable",
            "type": "constructor"
        },
        {
            "inputs": [],
            "name": "Empty",
            "type": "error"
        },
        {
            "anonymous": false,
            "inputs": [
                {
                    "indexed": true,
                    "internalType": "address",
                    "name": "signer",
                    "type": "address"
                },
                {
                    "indexed": true,
                    "internalType": "uint256",
                    "name": "proposalId",
                    "type": "uint256"
                }
            ],
            "name": "ConfirmProposal",
            "type": "event"
        },
        {
            "anonymous": false,
            "inputs": [],
            "name": "EmergencyStop",
            "type": "event"
        },
        {
            "anonymous": false,
            "inputs": [
                {
                    "indexed": true,
                    "internalType": "address",
                    "name": "signer",
                    "type": "address"
                },
                {
                    "indexed": true,
                    "internalType": "uint256",
                    "name": "proposalId",
                    "type": "uint256"
                }
            ],
            "name": "ExecuteProposal",
            "type": "event"
        },
        {
            "anonymous": false,
            "inputs": [
                {
                    "indexed": true,
                    "internalType": "address",
                    "name": "owner",
                    "type": "address"
                },
                {
                    "indexed": true,
                    "internalType": "bool",
                    "name": "success",
                    "type": "bool"
                },
                {
                    "indexed": false,
                    "internalType": "bytes",
                    "name": "data",
                    "type": "bytes"
                }
            ],
            "name": "ExecuteTransaction",
            "type": "event"
        },
        {
            "anonymous": false,
            "inputs": [
                {
                    "indexed": false,
                    "internalType": "uint256",
                    "name": "newMaxTargets",
                    "type": "uint256"
                },
                {
                    "indexed": false,
                    "internalType": "uint256",
                    "name": "oldMaxTargets",
                    "type": "uint256"
                }
            ],
            "name": "MaxTargetUpdated",
            "type": "event"
        },
        {
            "anonymous": false,
            "inputs": [
                {
                    "indexed": false,
                    "internalType": "address",
                    "name": "newMultiSig",
                    "type": "address"
                },
                {
                    "indexed": false,
                    "internalType": "address",
                    "name": "oldMultiSig",
                    "type": "address"
                }
            ],
            "name": "MultiSigUpdated",
            "type": "event"
        },
        {
            "anonymous": false,
            "inputs": [
                {
                    "indexed": true,
                    "internalType": "uint256",
                    "name": "proposalId",
                    "type": "uint256"
                }
            ],
            "name": "ProposalCanceled",
            "type": "event"
        },
        {
            "anonymous": false,
            "inputs": [
                {
                    "indexed": true,
                    "internalType": "uint256",
                    "name": "proposalId",
                    "type": "uint256"
                },
                {
                    "indexed": true,
                    "internalType": "address",
                    "name": "proposer",
                    "type": "address"
                },
                {
                    "indexed": false,
                    "internalType": "address[]",
                    "name": "targets",
                    "type": "address[]"
                },
                {
                    "indexed": false,
                    "internalType": "uint256[]",
                    "name": "values",
                    "type": "uint256[]"
                },
                {
                    "indexed": false,
                    "internalType": "string[]",
                    "name": "signatures",
                    "type": "string[]"
                },
                {
                    "indexed": false,
                    "internalType": "bytes[]",
                    "name": "calldatas",
                    "type": "bytes[]"
                },
                {
                    "indexed": false,
                    "internalType": "uint256",
                    "name": "startBlock",
                    "type": "uint256"
                },
                {
                    "indexed": true,
                    "internalType": "uint256",
                    "name": "endBlock",
                    "type": "uint256"
                },
                {
                    "indexed": false,
                    "internalType": "string",
                    "name": "description",
                    "type": "string"
                }
            ],
            "name": "ProposalCreated",
            "type": "event"
        },
        {
            "anonymous": false,
            "inputs": [
                {
                    "indexed": true,
                    "internalType": "uint256",
                    "name": "proposalId",
                    "type": "uint256"
                }
            ],
            "name": "ProposalExecuted",
            "type": "event"
        },
        {
            "anonymous": false,
            "inputs": [
                {
                    "indexed": false,
                    "internalType": "uint256",
                    "name": "newProposalLifetime",
                    "type": "uint256"
                },
                {
                    "indexed": false,
                    "internalType": "uint256",
                    "name": "oldProposalLifetime",
                    "type": "uint256"
                }
            ],
            "name": "ProposalLifetimeUpdated",
            "type": "event"
        },
        {
            "anonymous": false,
            "inputs": [
                {
                    "indexed": false,
                    "internalType": "uint256",
                    "name": "proposalId",
                    "type": "uint256"
                },
                {
                    "indexed": false,
                    "internalType": "uint256",
                    "name": "eta",
                    "type": "uint256"
                }
            ],
            "name": "ProposalQueued",
            "type": "event"
        },
        {
            "anonymous": false,
            "inputs": [
                {
                    "indexed": false,
                    "internalType": "uint256",
                    "name": "oldProposalThreshold",
                    "type": "uint256"
                },
                {
                    "indexed": false,
                    "internalType": "uint256",
                    "name": "newProposalThreshold",
                    "type": "uint256"
                }
            ],
            "name": "ProposalThresholdSet",
            "type": "event"
        },
        {
            "anonymous": false,
            "inputs": [
                {
                    "indexed": false,
                    "internalType": "uint256",
                    "name": "newProposalTimeDelay",
                    "type": "uint256"
                },
                {
                    "indexed": false,
                    "internalType": "uint256",
                    "name": "oldProposalTimeDelay",
                    "type": "uint256"
                }
            ],
            "name": "ProposalTimeDelayUpdated",
            "type": "event"
        },
        {
            "anonymous": false,
            "inputs": [
                {
                    "indexed": false,
                    "internalType": "uint256",
                    "name": "oldQuorumNumerator",
                    "type": "uint256"
                },
                {
                    "indexed": false,
                    "internalType": "uint256",
                    "name": "newQuorumNumerator",
                    "type": "uint256"
                }
            ],
            "name": "QuorumNumeratorUpdated",
            "type": "event"
        },
        {
            "anonymous": false,
            "inputs": [
                {
                    "indexed": true,
                    "internalType": "address",
                    "name": "signer",
                    "type": "address"
                },
                {
                    "indexed": true,
                    "internalType": "uint256",
                    "name": "proposalId",
                    "type": "uint256"
                }
            ],
            "name": "RevokeConfirmation",
            "type": "event"
        },
        {
            "anonymous": false,
            "inputs": [
                {
                    "indexed": false,
                    "internalType": "address",
                    "name": "oldTimelock",
                    "type": "address"
                },
                {
                    "indexed": false,
                    "internalType": "address",
                    "name": "newTimelock",
                    "type": "address"
                }
            ],
            "name": "TimelockChange",
            "type": "event"
        },
        {
            "anonymous": false,
            "inputs": [
                {
                    "indexed": true,
                    "internalType": "address",
                    "name": "voter",
                    "type": "address"
                },
                {
                    "indexed": true,
                    "internalType": "uint256",
                    "name": "proposalId",
                    "type": "uint256"
                },
                {
                    "indexed": false,
                    "internalType": "uint8",
                    "name": "support",
                    "type": "uint8"
                },
                {
                    "indexed": false,
                    "internalType": "uint256",
                    "name": "weight",
                    "type": "uint256"
                },
                {
                    "indexed": false,
                    "internalType": "string",
                    "name": "reason",
                    "type": "string"
                }
            ],
            "name": "VoteCast",
            "type": "event"
        },
        {
            "anonymous": false,
            "inputs": [
                {
                    "indexed": true,
                    "internalType": "address",
                    "name": "voter",
                    "type": "address"
                },
                {
                    "indexed": true,
                    "internalType": "uint256",
                    "name": "proposalId",
                    "type": "uint256"
                },
                {
                    "indexed": false,
                    "internalType": "uint8",
                    "name": "support",
                    "type": "uint8"
                },
                {
                    "indexed": false,
                    "internalType": "uint256",
                    "name": "weight",
                    "type": "uint256"
                },
                {
                    "indexed": false,
                    "internalType": "string",
                    "name": "reason",
                    "type": "string"
                },
                {
                    "indexed": false,
                    "internalType": "bytes",
                    "name": "params",
                    "type": "bytes"
                }
            ],
            "name": "VoteCastWithParams",
            "type": "event"
        },
        {
            "anonymous": false,
            "inputs": [
                {
                    "indexed": false,
                    "internalType": "uint256",
                    "name": "oldVotingDelay",
                    "type": "uint256"
                },
                {
                    "indexed": false,
                    "internalType": "uint256",
                    "name": "newVotingDelay",
                    "type": "uint256"
                }
            ],
            "name": "VotingDelaySet",
            "type": "event"
        },
        {
            "anonymous": false,
            "inputs": [
                {
                    "indexed": false,
                    "internalType": "uint256",
                    "name": "oldVotingPeriod",
                    "type": "uint256"
                },
                {
                    "indexed": false,
                    "internalType": "uint256",
                    "name": "newVotingPeriod",
                    "type": "uint256"
                }
            ],
            "name": "VotingPeriodSet",
            "type": "event"
        },
        {
            "inputs": [],
            "name": "BALLOT_TYPEHASH",
            "outputs": [
                {
                    "internalType": "bytes32",
                    "name": "",
                    "type": "bytes32"
                }
            ],
            "stateMutability": "view",
            "type": "function"
        },
        {
            "inputs": [],
            "name": "EXTENDED_BALLOT_TYPEHASH",
            "outputs": [
                {
                    "internalType": "bytes32",
                    "name": "",
                    "type": "bytes32"
                }
            ],
            "stateMutability": "view",
            "type": "function"
        },
        {
            "inputs": [],
            "name": "MINIMUM_LIFETIME",
            "outputs": [
                {
                    "internalType": "uint256",
                    "name": "",
                    "type": "uint256"
                }
            ],
            "stateMutability": "view",
            "type": "function"
        },
        {
            "inputs": [],
            "name": "MINIMUM_QUORUM_NUMERATOR",
            "outputs": [
                {
                    "internalType": "uint256",
                    "name": "",
                    "type": "uint256"
                }
            ],
            "stateMutability": "view",
            "type": "function"
        },
        {
            "inputs": [
                {
                    "internalType": "uint256",
                    "name": "proposalId",
                    "type": "uint256"
                },
                {
                    "internalType": "uint8",
                    "name": "support",
                    "type": "uint8"
                }
            ],
            "name": "castVote",
            "outputs": [
                {
                    "internalType": "uint256",
                    "name": "",
                    "type": "uint256"
                }
            ],
            "stateMutability": "nonpayable",
            "type": "function"
        },
        {
            "inputs": [
                {
                    "internalType": "uint256",
                    "name": "proposalId",
                    "type": "uint256"
                },
                {
                    "internalType": "uint8",
                    "name": "support",
                    "type": "uint8"
                },
                {
                    "internalType": "uint8",
                    "name": "v",
                    "type": "uint8"
                },
                {
                    "internalType": "bytes32",
                    "name": "r",
                    "type": "bytes32"
                },
                {
                    "internalType": "bytes32",
                    "name": "s",
                    "type": "bytes32"
                }
            ],
            "name": "castVoteBySig",
            "outputs": [
                {
                    "internalType": "uint256",
                    "name": "",
                    "type": "uint256"
                }
            ],
            "stateMutability": "nonpayable",
            "type": "function"
        },
        {
            "inputs": [
                {
                    "internalType": "uint256",
                    "name": "proposalId",
                    "type": "uint256"
                },
                {
                    "internalType": "uint8",
                    "name": "support",
                    "type": "uint8"
                },
                {
                    "internalType": "string",
                    "name": "reason",
                    "type": "string"
                }
            ],
            "name": "castVoteWithReason",
            "outputs": [
                {
                    "internalType": "uint256",
                    "name": "",
                    "type": "uint256"
                }
            ],
            "stateMutability": "nonpayable",
            "type": "function"
        },
        {
            "inputs": [
                {
                    "internalType": "uint256",
                    "name": "proposalId",
                    "type": "uint256"
                },
                {
                    "internalType": "uint8",
                    "name": "support",
                    "type": "uint8"
                },
                {
                    "internalType": "string",
                    "name": "reason",
                    "type": "string"
                },
                {
                    "internalType": "bytes",
                    "name": "params",
                    "type": "bytes"
                }
            ],
            "name": "castVoteWithReasonAndParams",
            "outputs": [
                {
                    "internalType": "uint256",
                    "name": "",
                    "type": "uint256"
                }
            ],
            "stateMutability": "nonpayable",
            "type": "function"
        },
        {
            "inputs": [
                {
                    "internalType": "uint256",
                    "name": "proposalId",
                    "type": "uint256"
                },
                {
                    "internalType": "uint8",
                    "name": "support",
                    "type": "uint8"
                },
                {
                    "internalType": "string",
                    "name": "reason",
                    "type": "string"
                },
                {
                    "internalType": "bytes",
                    "name": "params",
                    "type": "bytes"
                },
                {
                    "internalType": "uint8",
                    "name": "v",
                    "type": "uint8"
                },
                {
                    "internalType": "bytes32",
                    "name": "r",
                    "type": "bytes32"
                },
                {
                    "internalType": "bytes32",
                    "name": "s",
                    "type": "bytes32"
                }
            ],
            "name": "castVoteWithReasonAndParamsBySig",
            "outputs": [
                {
                    "internalType": "uint256",
                    "name": "",
                    "type": "uint256"
                }
            ],
            "stateMutability": "nonpayable",
            "type": "function"
        },
        {
            "inputs": [
                {
                    "internalType": "uint256",
                    "name": "_proposalId",
                    "type": "uint256"
                }
            ],
            "name": "confirmProposal",
            "outputs": [],
            "stateMutability": "nonpayable",
            "type": "function"
        },
        {
            "inputs": [
                {
                    "internalType": "address[]",
                    "name": "targets",
                    "type": "address[]"
                },
                {
                    "internalType": "uint256[]",
                    "name": "values",
                    "type": "uint256[]"
                },
                {
                    "internalType": "bytes[]",
                    "name": "calldatas",
                    "type": "bytes[]"
                },
                {
                    "internalType": "bytes32",
                    "name": "descriptionHash",
                    "type": "bytes32"
                }
            ],
            "name": "execute",
            "outputs": [
                {
                    "internalType": "uint256",
                    "name": "",
                    "type": "uint256"
                }
            ],
            "stateMutability": "payable",
            "type": "function"
        },
        {
            "inputs": [
                {
                    "internalType": "uint256",
                    "name": "_proposalId",
                    "type": "uint256"
                }
            ],
            "name": "getDescription",
            "outputs": [
                {
                    "internalType": "string",
                    "name": "",
                    "type": "string"
                }
            ],
            "stateMutability": "view",
            "type": "function"
        },
        {
            "inputs": [],
            "name": "getProposalIds",
            "outputs": [
                {
                    "internalType": "uint256[]",
                    "name": "",
                    "type": "uint256[]"
                }
            ],
            "stateMutability": "view",
            "type": "function"
        },
        {
            "inputs": [
                {
                    "internalType": "uint256",
                    "name": "_numIndexes",
                    "type": "uint256"
                }
            ],
            "name": "getProposals",
            "outputs": [
                {
                    "internalType": "string[]",
                    "name": "",
                    "type": "string[]"
                },
                {
                    "internalType": "string[]",
                    "name": "",
                    "type": "string[]"
                },
                {
                    "internalType": "string[]",
                    "name": "",
                    "type": "string[]"
                }
            ],
            "stateMutability": "view",
            "type": "function"
        },
        {
            "inputs": [
                {
                    "internalType": "address",
                    "name": "account",
                    "type": "address"
                },
                {
                    "internalType": "uint256",
                    "name": "blockNumber",
                    "type": "uint256"
                }
            ],
            "name": "getVotes",
            "outputs": [
                {
                    "internalType": "uint256",
                    "name": "",
                    "type": "uint256"
                }
            ],
            "stateMutability": "view",
            "type": "function"
        },
        {
            "inputs": [
                {
                    "internalType": "address",
                    "name": "account",
                    "type": "address"
                },
                {
                    "internalType": "uint256",
                    "name": "blockNumber",
                    "type": "uint256"
                },
                {
                    "internalType": "bytes",
                    "name": "params",
                    "type": "bytes"
                }
            ],
            "name": "getVotesWithParams",
            "outputs": [
                {
                    "internalType": "uint256",
                    "name": "",
                    "type": "uint256"
                }
            ],
            "stateMutability": "view",
            "type": "function"
        },
        {
            "inputs": [
                {
                    "internalType": "uint256",
                    "name": "proposalId",
                    "type": "uint256"
                },
                {
                    "internalType": "address",
                    "name": "account",
                    "type": "address"
                }
            ],
            "name": "hasVoted",
            "outputs": [
                {
                    "internalType": "bool",
                    "name": "",
                    "type": "bool"
                }
            ],
            "stateMutability": "view",
            "type": "function"
        },
        {
            "inputs": [
                {
                    "internalType": "address[]",
                    "name": "targets",
                    "type": "address[]"
                },
                {
                    "internalType": "uint256[]",
                    "name": "values",
                    "type": "uint256[]"
                },
                {
                    "internalType": "bytes[]",
                    "name": "calldatas",
                    "type": "bytes[]"
                },
                {
                    "internalType": "bytes32",
                    "name": "descriptionHash",
                    "type": "bytes32"
                }
            ],
            "name": "hashProposal",
            "outputs": [
                {
                    "internalType": "uint256",
                    "name": "",
                    "type": "uint256"
                }
            ],
            "stateMutability": "pure",
            "type": "function"
        },
        {
            "inputs": [
                {
                    "internalType": "uint256",
                    "name": "",
                    "type": "uint256"
                }
            ],
            "name": "isConfirmed",
            "outputs": [
                {
                    "internalType": "bool",
                    "name": "",
                    "type": "bool"
                }
            ],
            "stateMutability": "view",
            "type": "function"
        },
        {
            "inputs": [
                {
                    "internalType": "address",
                    "name": "",
                    "type": "address"
                }
            ],
            "name": "isSupportedToken",
            "outputs": [
                {
                    "internalType": "bool",
                    "name": "",
                    "type": "bool"
                }
            ],
            "stateMutability": "view",
            "type": "function"
        },
        {
            "inputs": [
                {
                    "internalType": "uint256",
                    "name": "",
                    "type": "uint256"
                }
            ],
            "name": "listOfSupportedTokens",
            "outputs": [
                {
                    "internalType": "address",
                    "name": "",
                    "type": "address"
                }
            ],
            "stateMutability": "view",
            "type": "function"
        },
        {
            "inputs": [],
            "name": "live",
            "outputs": [
                {
                    "internalType": "uint256",
                    "name": "",
                    "type": "uint256"
                }
            ],
            "stateMutability": "view",
            "type": "function"
        },
        {
            "inputs": [],
            "name": "maxTargets",
            "outputs": [
                {
                    "internalType": "uint256",
                    "name": "",
                    "type": "uint256"
                }
            ],
            "stateMutability": "view",
            "type": "function"
        },
        {
            "inputs": [],
            "name": "name",
            "outputs": [
                {
                    "internalType": "string",
                    "name": "",
                    "type": "string"
                }
            ],
            "stateMutability": "view",
            "type": "function"
        },
        {
            "inputs": [
                {
                    "internalType": "address",
                    "name": "",
                    "type": "address"
                }
            ],
            "name": "nextAcceptableProposalTimestamp",
            "outputs": [
                {
                    "internalType": "uint256",
                    "name": "",
                    "type": "uint256"
                }
            ],
            "stateMutability": "view",
            "type": "function"
        },
        {
            "inputs": [
                {
                    "internalType": "uint256",
                    "name": "proposalId",
                    "type": "uint256"
                }
            ],
            "name": "proposalDeadline",
            "outputs": [
                {
                    "internalType": "uint256",
                    "name": "",
                    "type": "uint256"
                }
            ],
            "stateMutability": "view",
            "type": "function"
        },
        {
            "inputs": [
                {
                    "internalType": "uint256",
                    "name": "proposalId",
                    "type": "uint256"
                }
            ],
            "name": "proposalEta",
            "outputs": [
                {
                    "internalType": "uint256",
                    "name": "",
                    "type": "uint256"
                }
            ],
            "stateMutability": "view",
            "type": "function"
        },
        {
            "inputs": [],
            "name": "proposalLifetime",
            "outputs": [
                {
                    "internalType": "uint256",
                    "name": "",
                    "type": "uint256"
                }
            ],
            "stateMutability": "view",
            "type": "function"
        },
        {
            "inputs": [
                {
                    "internalType": "uint256",
                    "name": "proposalId",
                    "type": "uint256"
                }
            ],
            "name": "proposalSnapshot",
            "outputs": [
                {
                    "internalType": "uint256",
                    "name": "",
                    "type": "uint256"
                }
            ],
            "stateMutability": "view",
            "type": "function"
        },
        {
            "inputs": [],
            "name": "proposalTimeDelay",
            "outputs": [
                {
                    "internalType": "uint256",
                    "name": "",
                    "type": "uint256"
                }
            ],
            "stateMutability": "view",
            "type": "function"
        },
        {
            "inputs": [
                {
                    "internalType": "uint256",
                    "name": "proposalId",
                    "type": "uint256"
                }
            ],
            "name": "proposalVotes",
            "outputs": [
                {
                    "internalType": "uint256",
                    "name": "againstVotes",
                    "type": "uint256"
                },
                {
                    "internalType": "uint256",
                    "name": "forVotes",
                    "type": "uint256"
                },
                {
                    "internalType": "uint256",
                    "name": "abstainVotes",
                    "type": "uint256"
                }
            ],
            "stateMutability": "view",
            "type": "function"
        },
        {
            "inputs": [
                {
                    "internalType": "address[]",
                    "name": "targets",
                    "type": "address[]"
                },
                {
                    "internalType": "uint256[]",
                    "name": "values",
                    "type": "uint256[]"
                },
                {
                    "internalType": "bytes[]",
                    "name": "calldatas",
                    "type": "bytes[]"
                },
                {
                    "internalType": "bytes32",
                    "name": "descriptionHash",
                    "type": "bytes32"
                }
            ],
            "name": "queue",
            "outputs": [
                {
                    "internalType": "uint256",
                    "name": "",
                    "type": "uint256"
                }
            ],
            "stateMutability": "nonpayable",
            "type": "function"
        },
        {
            "inputs": [],
            "name": "quorumDenominator",
            "outputs": [
                {
                    "internalType": "uint256",
                    "name": "",
                    "type": "uint256"
                }
            ],
            "stateMutability": "view",
            "type": "function"
        },
        {
            "inputs": [],
            "name": "quorumNumerator",
            "outputs": [
                {
                    "internalType": "uint256",
                    "name": "",
                    "type": "uint256"
                }
            ],
            "stateMutability": "view",
            "type": "function"
        },
        {
            "inputs": [
                {
                    "internalType": "uint256",
                    "name": "_proposalId",
                    "type": "uint256"
                }
            ],
            "name": "revokeConfirmation",
            "outputs": [],
            "stateMutability": "nonpayable",
            "type": "function"
        },
        {
            "inputs": [
                {
                    "internalType": "address",
                    "name": "account",
                    "type": "address"
                },
                {
                    "internalType": "bool",
                    "name": "blacklistStatus",
                    "type": "bool"
                }
            ],
            "name": "setBlacklistStatusForProposer",
            "outputs": [],
            "stateMutability": "nonpayable",
            "type": "function"
        },
        {
            "inputs": [
                {
                    "internalType": "uint256",
                    "name": "newProposalThreshold",
                    "type": "uint256"
                }
            ],
            "name": "setProposalThreshold",
            "outputs": [],
            "stateMutability": "nonpayable",
            "type": "function"
        },
        {
            "inputs": [
                {
                    "internalType": "uint256",
                    "name": "newVotingDelay",
                    "type": "uint256"
                }
            ],
            "name": "setVotingDelay",
            "outputs": [],
            "stateMutability": "nonpayable",
            "type": "function"
        },
        {
            "inputs": [
                {
                    "internalType": "uint256",
                    "name": "newVotingPeriod",
                    "type": "uint256"
                }
            ],
            "name": "setVotingPeriod",
            "outputs": [],
            "stateMutability": "nonpayable",
            "type": "function"
        },
        {
            "inputs": [],
            "name": "timelock",
            "outputs": [
                {
                    "internalType": "address",
                    "name": "",
                    "type": "address"
                }
            ],
            "stateMutability": "view",
            "type": "function"
        },
        {
            "inputs": [],
            "name": "token",
            "outputs": [
                {
                    "internalType": "contract IVotes",
                    "name": "",
                    "type": "address"
                }
            ],
            "stateMutability": "view",
            "type": "function"
        },
        {
            "inputs": [
                {
                    "internalType": "uint256",
                    "name": "newMaxTargets",
                    "type": "uint256"
                }
            ],
            "name": "updateMaxTargets",
            "outputs": [],
            "stateMutability": "nonpayable",
            "type": "function"
        },
        {
            "inputs": [
                {
                    "internalType": "address",
                    "name": "newMultiSig",
                    "type": "address"
                }
            ],
            "name": "updateMultiSig",
            "outputs": [],
            "stateMutability": "nonpayable",
            "type": "function"
        },
        {
            "inputs": [
                {
                    "internalType": "uint256",
                    "name": "newProposalLifetime",
                    "type": "uint256"
                }
            ],
            "name": "updateProposalLifetime",
            "outputs": [],
            "stateMutability": "nonpayable",
            "type": "function"
        },
        {
            "inputs": [
                {
                    "internalType": "uint256",
                    "name": "newProposalTimeDelay",
                    "type": "uint256"
                }
            ],
            "name": "updateProposalTimeDelay",
            "outputs": [],
            "stateMutability": "nonpayable",
            "type": "function"
        },
        {
            "inputs": [
                {
                    "internalType": "uint256",
                    "name": "newQuorumNumerator",
                    "type": "uint256"
                }
            ],
            "name": "updateQuorumNumerator",
            "outputs": [],
            "stateMutability": "nonpayable",
            "type": "function"
        },
        {
            "inputs": [
                {
                    "internalType": "contract TimelockController",
                    "name": "newTimelock",
                    "type": "address"
                }
            ],
            "name": "updateTimelock",
            "outputs": [],
            "stateMutability": "nonpayable",
            "type": "function"
        },
        {
            "inputs": [],
            "name": "version",
            "outputs": [
                {
                    "internalType": "string",
                    "name": "",
                    "type": "string"
                }
            ],
            "stateMutability": "view",
            "type": "function"
        },
        {
            "stateMutability": "payable",
            "type": "receive"
        },
        {
            "inputs": [
                {
                    "internalType": "address[]",
                    "name": "targets",
                    "type": "address[]"
                },
                {
                    "internalType": "uint256[]",
                    "name": "values",
                    "type": "uint256[]"
                },
                {
                    "internalType": "bytes[]",
                    "name": "calldatas",
                    "type": "bytes[]"
                },
                {
                    "internalType": "string",
                    "name": "description",
                    "type": "string"
                }
            ],
            "name": "propose",
            "outputs": [
                {
                    "internalType": "uint256",
                    "name": "",
                    "type": "uint256"
                }
            ],
            "stateMutability": "nonpayable",
            "type": "function"
        },
        {
            "inputs": [
                {
                    "internalType": "address[]",
                    "name": "targets",
                    "type": "address[]"
                },
                {
                    "internalType": "uint256[]",
                    "name": "values",
                    "type": "uint256[]"
                },
                {
                    "internalType": "bytes[]",
                    "name": "calldatas",
                    "type": "bytes[]"
                },
                {
                    "internalType": "bytes32",
                    "name": "descriptionHash",
                    "type": "bytes32"
                }
            ],
            "name": "cancelProposal",
            "outputs": [
                {
                    "internalType": "uint256",
                    "name": "",
                    "type": "uint256"
                }
            ],
            "stateMutability": "nonpayable",
            "type": "function"
        },
        {
            "inputs": [],
            "name": "proposalThreshold",
            "outputs": [
                {
                    "internalType": "uint256",
                    "name": "",
                    "type": "uint256"
                }
            ],
            "stateMutability": "view",
            "type": "function"
        },
        {
            "inputs": [
                {
                    "internalType": "bytes4",
                    "name": "interfaceId",
                    "type": "bytes4"
                }
            ],
            "name": "supportsInterface",
            "outputs": [
                {
                    "internalType": "bool",
                    "name": "",
                    "type": "bool"
                }
            ],
            "stateMutability": "view",
            "type": "function"
        },
        {
            "inputs": [],
            "name": "votingDelay",
            "outputs": [
                {
                    "internalType": "uint256",
                    "name": "",
                    "type": "uint256"
                }
            ],
            "stateMutability": "view",
            "type": "function"
        },
        {
            "inputs": [],
            "name": "votingPeriod",
            "outputs": [
                {
                    "internalType": "uint256",
                    "name": "",
                    "type": "uint256"
                }
            ],
            "stateMutability": "view",
            "type": "function"
        },
        {
            "inputs": [
                {
                    "internalType": "uint256",
                    "name": "blockNumber",
                    "type": "uint256"
                }
            ],
            "name": "quorum",
            "outputs": [
                {
                    "internalType": "uint256",
                    "name": "",
                    "type": "uint256"
                }
            ],
            "stateMutability": "view",
            "type": "function"
        },
        {
            "inputs": [
                {
                    "internalType": "uint256",
                    "name": "proposalId",
                    "type": "uint256"
                }
            ],
            "name": "state",
            "outputs": [
                {
                    "internalType": "enum IGovernor.ProposalState",
                    "name": "",
                    "type": "uint8"
                }
            ],
            "stateMutability": "view",
            "type": "function"
        },
        {
            "inputs": [],
            "name": "emergencyStop",
            "outputs": [],
            "stateMutability": "nonpayable",
            "type": "function"
        },
        {
            "inputs": [
                {
                    "internalType": "address",
                    "name": "_token",
                    "type": "address"
                }
            ],
            "name": "addSupportingToken",
            "outputs": [],
            "stateMutability": "nonpayable",
            "type": "function"
        },
        {
            "inputs": [
                {
                    "internalType": "address",
                    "name": "_token",
                    "type": "address"
                }
            ],
            "name": "removeSupportingToken",
            "outputs": [],
            "stateMutability": "nonpayable",
            "type": "function"
        },
        {
            "inputs": [
                {
                    "internalType": "address",
                    "name": "target",
                    "type": "address"
                },
                {
                    "internalType": "bytes",
                    "name": "data",
                    "type": "bytes"
                }
            ],
            "name": "relayERC20",
            "outputs": [],
            "stateMutability": "nonpayable",
            "type": "function"
        },
        {
            "inputs": [
                {
                    "internalType": "address",
                    "name": "target",
                    "type": "address"
                },
                {
                    "internalType": "uint256",
                    "name": "value",
                    "type": "uint256"
                },
                {
                    "internalType": "bytes",
                    "name": "data",
                    "type": "bytes"
                }
            ],
            "name": "relayNativeToken",
            "outputs": [],
            "stateMutability": "payable",
            "type": "function"
        }
    ],
    "bytecode": "0x6101606040523480156200001257600080fd5b5060405162006b5b38038062006b5b833981016040819052620000359162000564565b866004898787876040518060400160405280601181526020017026b0b4b72a37b5b2b723b7bb32b93737b960791b8152508c60148a8a846200007c6200026960201b60201c565b815160208084019190912082519183019190912060e08290526101008190527f8b73c3c69bb8fe3d512ecc4cf759cc79239f7b179b0ffacaa9a75d522b39400f4660a052620000cd81848462000284565b6080523060c052610120525050506001600160a01b03851690506200010f5760405162461bcd60e51b8152600401620001069062000660565b60405180910390fd5b82600003620001325760405162461bcd60e51b81526004016200010690620006a7565b81600003620001555760405162461bcd60e51b81526004016200010690620006ee565b620151808110156200017b5760405162461bcd60e51b8152600401620001069062000735565b60026200018986826200085a565b50600580546001600160a01b0319166001600160a01b039590951694909417909355600091909155600190815560069190915560045550620001cb83620002c1565b620001d68262000303565b620001e18162000368565b5050506001600160a01b0381166200020d5760405162461bcd60e51b815260040162000106906200096b565b6001600160a01b0316610140526200022581620003cd565b506001600160a01b0381166200024f5760405162461bcd60e51b81526004016200010690620009b2565b6200025a816200045d565b50505050505050505062000c1d565b6040805180820190915260018152603160f81b602082015290565b60008383834630604051602001620002a1959493929190620009d7565b6040516020818303038152906040528051906020012090505b9392505050565b7fc565b045403dc03c2eea82b81a0465edad9e2e7fc4d97e11421c209da93d7a93600e5482604051620002f692919062000a2d565b60405180910390a1600e55565b60008111620003265760405162461bcd60e51b8152600401620001069062000a91565b7f7e3f7f0708a84de9203036abaa450dccc85ad5ff52f78c170f3edb55cf5e8828600f54826040516200035b92919062000a2d565b60405180910390a1600f55565b7fccb45da8d5717e6c4544694297c4ba5cf151d455c9bb0ed4fc7a38411bc05461601054826040516200039d92919062000a2d565b60405180910390a160008111620003c85760405162461bcd60e51b8152600401620001069062000afe565b601055565b6064811115620003f15760405162461bcd60e51b8152600401620001069062000b54565b6002811015620004155760405162461bcd60e51b8152600401620001069062000ba5565b60128054908290556040517f0553476bf02ef2726e8ce5ced78d63e26e602e4a2257b1f559418e24b46339979062000451908390859062000a2d565b60405180910390a15050565b6001600160a01b038116620004865760405162461bcd60e51b8152600401620001069062000bec565b6013546040517f08f74ea46ef7894f65eabfb5e6e695de773a000b47c529ab559178069b22640191620004c7916001600160a01b0390911690849062000bfe565b60405180910390a1601380546001600160a01b0319166001600160a01b0392909216919091179055565b60006001600160a01b0382165b92915050565b6000620004fe82620004f1565b6200051c8162000504565b81146200052857600080fd5b50565b8051620004fe8162000511565b6200051c81620004f1565b8051620004fe8162000538565b806200051c565b8051620004fe8162000550565b600080600080600080600080610100898b031215620005865762000586600080fd5b6000620005948b8b6200052b565b9850506020620005a78b828c016200052b565b9750506040620005ba8b828c0162000543565b9650506060620005cd8b828c0162000557565b9550506080620005e08b828c0162000557565b94505060a0620005f38b828c0162000557565b93505060c0620006068b828c0162000557565b92505060e0620006198b828c0162000557565b9150509295985092959890939650565b601581526000602082017f6d756c7469536967207a65726f20616464726573730000000000000000000000815291505b5060200190565b60208082528101620004fe8162000629565b601681526000602082017f6d61785461726765742063616e74206265207a65726f000000000000000000008152915062000659565b60208082528101620004fe8162000672565b601e81526000602082017f70726f706f73616c54696d6544656c61792063616e74206265207a65726f00008152915062000659565b60208082528101620004fe81620006b9565b601a81526000602082017f6c69666574696d65206c657373207468616e206d696e696d756d0000000000008152915062000659565b60208082528101620004fe8162000700565b634e487b7160e01b600052604160045260246000fd5b634e487b7160e01b600052602260045260246000fd5b6002810460018216806200078857607f821691505b6020821081036200079d576200079d6200075d565b50919050565b6000620004fe620007b18381565b90565b620007bf83620007a3565b81546008840282811b60001990911b908116901990911617825550505050565b6000620007ee818484620007b4565b505050565b81811015620008125762000809600082620007df565b600101620007f3565b5050565b601f821115620007ee576000818152602090206020601f850104810160208510156200083f5750805b620008536020601f860104830182620007f3565b5050505050565b81516001600160401b0381111562000876576200087662000747565b62000882825462000773565b6200088f82828562000816565b6020601f831160018114620008c65760008415620008ad5750858201515b600019600886021c198116600286021786555062000922565b600085815260208120601f198616915b82811015620008f85788850151825560209485019460019092019101620008d6565b86831015620009155784890151600019601f89166008021c191682555b6001600288020188555050505b505050505050565b602181526000602082017f746f6b656e416464726573732063616e74206265207a65726f206164647265738152607360f81b602082015291505b5060400190565b60208082528101620004fe816200092a565b601d81526000602082017f74696d656c6f636b416464726573733a207a65726f20616464726573730000008152915062000659565b60208082528101620004fe816200097d565b805b82525050565b620009c681620004f1565b60a08101620009e78288620009c4565b620009f66020830187620009c4565b62000a056040830186620009c4565b62000a146060830185620009c4565b62000a236080830184620009cc565b9695505050505050565b6040810162000a3d8285620009c4565b620002ba6020830184620009c4565b602781526000602082017f476f7665726e6f7253657474696e67733a20766f74696e6720706572696f6420815266746f6f206c6f7760c81b6020820152915062000964565b60208082528101620004fe8162000a4c565b603a81526000602082017f5f73657450726f706f73616c5468726573686f6c643a205468726573686f6c6481527f20666f722070726f706f73616c2063616e74206265207a65726f0000000000006020820152915062000964565b60208082528101620004fe8162000aa3565b602681526000602082017f71756f72756d4e756d657261746f72206f7665722071756f72756d44656e6f6d81526534b730ba37b960d11b6020820152915062000964565b60208082528101620004fe8162000b10565b602181526000602082017f71756f72756d4e756d657261746f72206c657373207468616e204d696e696d758152606d60f81b6020820152915062000964565b60208082528101620004fe8162000b66565b601c81526000602082017f75706461746554696d656c6f636b3a207a65726f2061646472657373000000008152915062000659565b60208082528101620004fe8162000bb7565b6040810162000c0e8285620009cc565b620002ba6020830184620009cc565b60805160a05160c05160e051610100516101205161014051615ed562000c8660003960008181610bb301528181613127015261330c0152600061346e015260006134b00152600061348f015260006133f30152600061341d015260006134470152615ed56000f3fe6080604052600436106103765760003560e01c806370b0f660116101d7578063c59057e41161010d578063eb9019d4116100a0578063f4a4f4d21161006f578063f4a4f4d214610b41578063f801d90e14610b61578063f8ce560a14610b81578063fc0c546a14610ba157600080fd5b8063eb9019d414610ac1578063ece40cc114610ae1578063f27715b414610b01578063f3191bd914610b2157600080fd5b8063d33219b4116100dc578063d33219b414610a2f578063deaaa7cc14610a4d578063e4facb4d14610a81578063ea0217cf14610aa157600080fd5b8063c59057e4146109b7578063caba5884146109d7578063cf66138b14610a04578063d19949fc14610a1a57600080fd5b806397c3d33411610185578063ab58fb8e11610154578063ab58fb8e1461094c578063b58131b01461096c578063bd015f5d14610981578063c01f9e371461099757600080fd5b806397c3d334146108e35780639a802a6d146108f7578063a7713a7014610917578063a890c9101461092c57600080fd5b806370b0f66014610813578063784547a7146108335780637b3c71d3146108635780637d5e81e2146108835780637fcc53ee146108a3578063929e1e20146108ba578063957aa58c146108cd57600080fd5b80633932abb1116102ac578063544ffc9c1161025a5780635f320775116102295780635f3207751461079b5780635f398a14146107b157806363a599a4146107d15780636484783e146107e657600080fd5b8063544ffc9c146106e857806354fd4d5014610731578063567813881461075b57806358df30f11461077b57600080fd5b80633932abb1146105da5780633bccf4fd146105ef5780633e4f49e61461060f5780633eadf4dc1461063c57806340ba1b1e1461065c578063438596321461067e5780634925ec55146106c857600080fd5b806320ea8d861161032457806327374c76116102f357806327374c76146105375780632c72fdfc146105575780632d63f693146105865780632fe3e261146105a657600080fd5b806320ea8d86146104b457806321cd4131146104d4578063240028e8146104f45780632656227d1461052457600080fd5b806301ffc9a7146103ba57806302a251a3146103f0578063034201811461041257806306f3f9e61461043257806306fdde0314610452578063160cbed7146104745780631c12dd731461049457600080fd5b366103b55730610384610be2565b6001600160a01b0316146103b35760405162461bcd60e51b81526004016103aa90613e28565b60405180910390fd5b005b600080fd5b3480156103c657600080fd5b506103da6103d5366004613e5a565b610bfb565b6040516103e79190613e85565b60405180910390f35b3480156103fc57600080fd5b50610405610c0c565b6040516103e79190613e99565b34801561041e57600080fd5b5061040561042d366004613fc5565b610c17565b34801561043e57600080fd5b506103b361044d366004614098565b610ccb565b34801561045e57600080fd5b50610467610d55565b6040516103e7919061410f565b34801561048057600080fd5b5061040561048f3660046142ed565b610de7565b3480156104a057600080fd5b506104056104af3660046142ed565b611016565b3480156104c057600080fd5b506103b36104cf366004614098565b611061565b3480156104e057600080fd5b506103b36104ef36600461439e565b611115565b34801561050057600080fd5b506103da61050f36600461439e565b60166020526000908152604090205460ff1681565b6104056105323660046142ed565b61119c565b34801561054357600080fd5b506103b3610552366004614098565b611383565b34801561056357600080fd5b50610577610572366004614098565b611416565b6040516103e793929190614431565b34801561059257600080fd5b506104056105a1366004614098565b61145d565b3480156105b257600080fd5b506104057fb3b3f3b703cd84ce352197dcff232b1b5d3cfb2025ce47cf04742d0651f1af8881565b3480156105e657600080fd5b50610405611494565b3480156105fb57600080fd5b5061040561060a36600461446a565b61149f565b34801561061b57600080fd5b5061062f61062a366004614098565b61151d565b6040516103e79190614526565b34801561064857600080fd5b506103b3610657366004614098565b611528565b34801561066857600080fd5b506106716115bb565b6040516103e79190614591565b34801561068a57600080fd5b506103da6106993660046145a2565b60008281526011602090815260408083206001600160a01b038516845260030190915290205460ff1692915050565b3480156106d457600080fd5b506104676106e3366004614098565b611612565b3480156106f457600080fd5b50610722610703366004614098565b6000908152601160205260409020805460018201546002909201549092565b6040516103e7939291906145df565b34801561073d57600080fd5b506040805180820190915260018152603160f81b6020820152610467565b34801561076757600080fd5b50610405610776366004614607565b6116b4565b34801561078757600080fd5b506103b361079636600461439e565b6116f8565b3480156107a757600080fd5b5061040560005481565b3480156107bd57600080fd5b506104056107cc36600461463a565b61177f565b3480156107dd57600080fd5b506103b36117bb565b3480156107f257600080fd5b5061040561080136600461439e565b600b6020526000908152604090205481565b34801561081f57600080fd5b506103b361082e366004614098565b61194a565b34801561083f57600080fd5b506103da61084e366004614098565b600a6020526000908152604090205460ff1681565b34801561086f57600080fd5b5061040561087e3660046146c6565b6119d1565b34801561088f57600080fd5b5061040561089e366004614730565b611a0d565b3480156108af57600080fd5b506104056201518081565b6103b36108c8366004614815565b611a1b565b3480156108d957600080fd5b5061040560045481565b3480156108ef57600080fd5b506064610405565b34801561090357600080fd5b50610405610912366004614882565b611b63565b34801561092357600080fd5b50601254610405565b34801561093857600080fd5b506103b36109473660046148d6565b611b70565b34801561095857600080fd5b50610405610967366004614098565b611bf7565b34801561097857600080fd5b50610405611c93565b34801561098d57600080fd5b5061040560065481565b3480156109a357600080fd5b506104056109b2366004614098565b611c9e565b3480156109c357600080fd5b506104056109d23660046142ed565b611ccd565b3480156109e357600080fd5b506109f76109f2366004614098565b611d07565b6040516103e79190614900565b348015610a1057600080fd5b5061040560015481565b348015610a2657600080fd5b50610405600281565b348015610a3b57600080fd5b506013546001600160a01b03166109f7565b348015610a5957600080fd5b506104057f150214d74d59b7d1e90c73fc22ef3d991dd0a76b046543d4d80ab92d2a50328f81565b348015610a8d57600080fd5b506103b3610a9c366004614098565b611d31565b348015610aad57600080fd5b506103b3610abc366004614098565b611dc5565b348015610acd57600080fd5b50610405610adc36600461490e565b611e4c565b348015610aed57600080fd5b506103b3610afc366004614098565b611e6d565b348015610b0d57600080fd5b506103b3610b1c36600461439e565b611ef4565b348015610b2d57600080fd5b506103b3610b3c366004614941565b611fb4565b348015610b4d57600080fd5b506103b3610b5c366004614098565b6120f9565b348015610b6d57600080fd5b506103b3610b7c3660046149af565b61223e565b348015610b8d57600080fd5b50610405610b9c366004614098565b61229c565b348015610bad57600080fd5b50610bd57f000000000000000000000000000000000000000000000000000000000000000081565b6040516103e79190614a24565b6000610bf66013546001600160a01b031690565b905090565b6000610c06826122a7565b92915050565b6000610bf6600f5490565b6000600454600114610c3b5760405162461bcd60e51b81526004016103aa90614a54565b6000610cad610ca57fb3b3f3b703cd84ce352197dcff232b1b5d3cfb2025ce47cf04742d0651f1af888b8b8b805190602001208b80519060200120604051602001610c8a959493929190614a6d565b604051602081830303815290604052805190602001206122cc565b8686866122df565b9050610cbc89828a8a8a612307565b9150505b979650505050505050565b610cd3610be2565b6001600160a01b0316336001600160a01b031614610d035760405162461bcd60e51b81526004016103aa90614ad4565b30610d0c610be2565b6001600160a01b031614610d495760008036604051610d2c929190614af7565b604051809103902090505b80610d42600c61242d565b03610d3757505b610d52816124ac565b50565b606060028054610d6490614b1a565b80601f0160208091040260200160405190810160405280929190818152602001828054610d9090614b1a565b8015610ddd5780601f10610db257610100808354040283529160200191610ddd565b820191906000526020600020905b815481529060010190602001808311610dc057829003601f168201915b5050505050905090565b600080610df686868686611ccd565b6000818152600a602052604090205490915060ff16610e275760405162461bcd60e51b81526004016103aa90614b78565b6004610e328261151d565b6007811115610e4357610e436144e2565b14610e605760405162461bcd60e51b81526004016103aa90614bc6565b6013546040805163793d064960e11b815290516000926001600160a01b03169163f27a0c929160048083019260209291908290030181865afa158015610eaa573d6000803e3d6000fd5b505050506040513d601f19601f82011682018060405250810190610ece9190614be1565b60135460405163b1c5f42760e01b81529192506001600160a01b03169063b1c5f42790610f08908a908a908a906000908b90600401614cba565b602060405180830381865afa158015610f25573d6000803e3d6000fd5b505050506040513d601f19601f82011682018060405250810190610f499190614be1565b6000838152601460205260408082209290925560135491516308f2a0bb60e41b81526001600160a01b0390921691638f2a0bb091610f94918b918b918b91908b908990600401614d02565b600060405180830381600087803b158015610fae57600080fd5b505af1158015610fc2573d6000803e3d6000fd5b505050507f9a2e42fd6722813d69113e7d0079d3d940171428df7373df9c7f7617cfda2892828242610ff49190614d7a565b604051611002929190614d8d565b60405180910390a15090505b949350505050565b6005546000906001600160a01b0316336001600160a01b03161461104c5760405162461bcd60e51b81526004016103aa90614dd5565b61105885858585612534565b95945050505050565b6005546001600160a01b0316336001600160a01b0316146110945760405162461bcd60e51b81526004016103aa90614dd5565b600081815260086020526040902060020154819060ff16156110c85760405162461bcd60e51b81526004016103aa90614e19565b6110d182612542565b6000828152600a6020526040808220805460ff1916905551839133917ff0dca620e2e81f7841d07bcc105e1704fb01475b278a9d4c236e1c62945edd559190a35050565b61111d610be2565b6001600160a01b0316336001600160a01b03161461114d5760405162461bcd60e51b81526004016103aa90614ad4565b30611156610be2565b6001600160a01b0316146111935760008036604051611176929190614af7565b604051809103902090505b8061118c600c61242d565b0361118157505b610d5281612570565b60006004546001146111c05760405162461bcd60e51b81526004016103aa90614a54565b60006111ce86868686611ccd565b90506111d98161260f565b6111e281612542565b60006111ed8261151d565b90506005816007811115611203576112036144e2565b146112205760405162461bcd60e51b81526004016103aa90614bc6565b6000805b87518110156112665787818151811061123f5761123f614e29565b6020026020010151826112529190614d7a565b91508061125e81614e3f565b915050611224565b50803410156112875760405162461bcd60e51b81526004016103aa90614e88565b600083815260086020526040808220600201805460ff191660011790555184917f712ae1383f79ac853f8d882153778e0260ef8f03b504e2866e0593e04d2b291f91a26112d78389898989612640565b6112e483898989896126e0565b6112f1838989898961271b565b80341115611377576000336113068334614e98565b60405161131290614eab565b60006040518083038185875af1925050503d806000811461134f576040519150601f19603f3d011682016040523d82523d6000602084013e611354565b606091505b50509050806113755760405162461bcd60e51b81526004016103aa90614ee1565b505b50909695505050505050565b6005546001600160a01b0316336001600160a01b0316146113b65760405162461bcd60e51b81526004016103aa90614dd5565b806000036113d65760405162461bcd60e51b81526004016103aa90614f12565b7f3da73a181c2b3944927ac2df9dc262cf838e775431feb05974323f1cdabe389681600154604051611409929190614d8d565b60405180910390a1600155565b600354606090819081906000819003611439575060609250829150819050611456565b80851115611445578094505b61144e85612754565b935093509350505b9193909250565b60008181526008602090815260408083208151928301909152546001600160401b0316908190525b6001600160401b031692915050565b6000610bf6600e5490565b60006004546001146114c35760405162461bcd60e51b81526004016103aa90614a54565b6000611500610ca57f150214d74d59b7d1e90c73fc22ef3d991dd0a76b046543d4d80ab92d2a50328f8989604051602001610c8a93929190614f22565b9050610cc087828860405180602001604052806000815250612a14565b6000610c0682612a37565b6005546001600160a01b0316336001600160a01b03161461155b5760405162461bcd60e51b81526004016103aa90614dd5565b8060000361157b5760405162461bcd60e51b81526004016103aa90614f12565b7f9187ebb0ce0ff73eeba0fa7031c0d57dcf43f08ac34102f94434e5c0c108c964816000546040516115ae929190614d8d565b60405180910390a1600055565b60606003805480602002602001604051908101604052809291908181526020018280548015610ddd57602002820191906000526020600020905b8154815260200190600101908083116115f5575050505050905090565b600081815260096020526040902080546060919061162f90614b1a565b80601f016020809104026020016040519081016040528092919081815260200182805461165b90614b1a565b80156116a85780601f1061167d576101008083540402835291602001916116a8565b820191906000526020600020905b81548152906001019060200180831161168b57829003601f168201915b50505050509050919050565b60006004546001146116d85760405162461bcd60e51b81526004016103aa90614a54565b600033905061100e84828560405180602001604052806000815250612a14565b611700610be2565b6001600160a01b0316336001600160a01b0316146117305760405162461bcd60e51b81526004016103aa90614ad4565b30611739610be2565b6001600160a01b0316146117765760008036604051611759929190614af7565b604051809103902090505b8061176f600c61242d565b0361176457505b610d5281612b2e565b60006004546001146117a35760405162461bcd60e51b81526004016103aa90614a54565b336117b18682878787612307565b9695505050505050565b6005546001600160a01b0316336001600160a01b0316146117ee5760405162461bcd60e51b81526004016103aa90614dd5565b6117f6612c90565b60005b6017548110156118c55760006017828154811061181857611818614e29565b60009182526020822001546040516370a0823160e01b81526001600160a01b03909116925082906370a0823190611853903090600401614900565b602060405180830381865afa158015611870573d6000803e3d6000fd5b505050506040513d601f19601f820116820180604052508101906118949190614be1565b905080156118b0576118b06001600160a01b0383163383612ce2565b505080806118bd90614e3f565b9150506117f9565b504715611948576000336001600160a01b0316476040516118e590614eab565b60006040518083038185875af1925050503d8060008114611922576040519150601f19603f3d011682016040523d82523d6000602084013e611927565b606091505b5050905080610d525760405162461bcd60e51b81526004016103aa90614ee1565b565b611952610be2565b6001600160a01b0316336001600160a01b0316146119825760405162461bcd60e51b81526004016103aa90614ad4565b3061198b610be2565b6001600160a01b0316146119c857600080366040516119ab929190614af7565b604051809103902090505b806119c1600c61242d565b036119b657505b610d5281612d3d565b60006004546001146119f55760405162461bcd60e51b81526004016103aa90614a54565b33611a0285828686612a14565b9150505b9392505050565b600061105885858585612d7d565b611a23610be2565b6001600160a01b0316336001600160a01b031614611a535760405162461bcd60e51b81526004016103aa90614ad4565b30611a5c610be2565b6001600160a01b031614611a995760008036604051611a7c929190614af7565b604051809103902090505b80611a92600c61242d565b03611a8757505b6001600160a01b03841660009081526016602052604090205460ff1615611ad25760405162461bcd60e51b81526004016103aa90614fa4565b600080856001600160a01b0316858585604051611af0929190614af7565b60006040518083038185875af1925050503d8060008114611b2d576040519150601f19603f3d011682016040523d82523d6000602084013e611b32565b606091505b5091509150611b5a8282604051806060016040528060338152602001615e6d603391396130d4565b50505050505050565b600061100e84848461310d565b611b78610be2565b6001600160a01b0316336001600160a01b031614611ba85760405162461bcd60e51b81526004016103aa90614ad4565b30611bb1610be2565b6001600160a01b031614611bee5760008036604051611bd1929190614af7565b604051809103902090505b80611be7600c61242d565b03611bdc57505b610d528161319f565b60135460008281526014602052604080822054905163d45c443560e01b8152919283926001600160a01b039091169163d45c443591611c399190600401613e99565b602060405180830381865afa158015611c56573d6000803e3d6000fd5b505050506040513d601f19601f82011682018060405250810190611c7a9190614be1565b905080600114611c8a5780611a06565b60009392505050565b6000610bf660105490565b60008181526008602090815260408083208151928301909152600101546001600160401b031690819052611485565b600084848484604051602001611ce69493929190614fb4565b60408051601f19818403018152919052805160209091012095945050505050565b60178181548110611d1757600080fd5b6000918252602090912001546001600160a01b0316905081565b6005546001600160a01b0316336001600160a01b031614611d645760405162461bcd60e51b81526004016103aa90614dd5565b62015180811015611d875760405162461bcd60e51b81526004016103aa90615024565b7fc4106c7a131061f6ffb9a883270bb5c3aa2f9933a50cf3fa48d64d0dd73369c78182604051611db8929190614d8d565b60405180910390a1600655565b611dcd610be2565b6001600160a01b0316336001600160a01b031614611dfd5760405162461bcd60e51b81526004016103aa90614ad4565b30611e06610be2565b6001600160a01b031614611e435760008036604051611e26929190614af7565b604051809103902090505b80611e3c600c61242d565b03611e3157505b610d528161322e565b6000611a068383611e6860408051602081019091526000815290565b61310d565b611e75610be2565b6001600160a01b0316336001600160a01b031614611ea55760405162461bcd60e51b81526004016103aa90614ad4565b30611eae610be2565b6001600160a01b031614611eeb5760008036604051611ece929190614af7565b604051809103902090505b80611ee4600c61242d565b03611ed957505b610d528161328e565b6005546001600160a01b0316336001600160a01b031614611f275760405162461bcd60e51b81526004016103aa90614dd5565b6001600160a01b038116611f4d5760405162461bcd60e51b81526004016103aa90615057565b6005546040517fa31378226bf642b76b52240a017232ce81a41924f7e964dfe5b2cc0ebe6287ca91611f8a9184916001600160a01b031690615067565b60405180910390a1600580546001600160a01b0319166001600160a01b0392909216919091179055565b611fbc610be2565b6001600160a01b0316336001600160a01b031614611fec5760405162461bcd60e51b81526004016103aa90614ad4565b30611ff5610be2565b6001600160a01b0316146120325760008036604051612015929190614af7565b604051809103902090505b8061202b600c61242d565b0361202057505b6001600160a01b03831660009081526016602052604090205460ff1661206a5760405162461bcd60e51b81526004016103aa906150b6565b600080846001600160a01b03168484604051612087929190614af7565b6000604051808303816000865af19150503d80600081146120c4576040519150601f19603f3d011682016040523d82523d6000602084013e6120c9565b606091505b50915091506120f182826040518060600160405280602d8152602001615e40602d91396130d4565b505050505050565b6005546001600160a01b0316336001600160a01b03161461212c5760405162461bcd60e51b81526004016103aa90614dd5565b600081815260086020526040902060020154819060ff16156121605760405162461bcd60e51b81526004016103aa90614e19565b6000828152600a6020526040902054829060ff16156121915760405162461bcd60e51b81526004016103aa906150fa565b61219a8361260f565b6000838152600a60205260408120805460ff191660011790556121bc8461151d565b905060048160078111156121d2576121d26144e2565b14806121ef575060058160078111156121ed576121ed6144e2565b145b61220b5760405162461bcd60e51b81526004016103aa90615138565b604051849033907fc465ffb6829baf0ff01f0180d8bc0dca7de4bb775e4d3a1bf155f9047da4026c90600090a350505050565b6005546001600160a01b0316336001600160a01b0316146122715760405162461bcd60e51b81526004016103aa90614dd5565b6001600160a01b03919091166000908152600760205260409020805460ff1916911515919091179055565b6000610c06826132ee565b60006001600160e01b03198216636e665ced60e01b1480610c065750610c0682613396565b6000610c066122d96133e6565b836134d4565b60008060006122f087878787613507565b915091506122fd816135dd565b5095945050505050565b600085815260086020526040812060016123208861151d565b6007811115612331576123316144e2565b1461234e5760405162461bcd60e51b81526004016103aa90615176565b604080516020810190915281546001600160401b0316908190526000906123779088908661310d565b905061238688888884886136bd565b83516000036123da5787876001600160a01b03167fb8e138887d0aa13bab447e82de9d5c1777041ecd21ca36ba824ff1e6c07ddda48884896040516123cd93929190615186565b60405180910390a3610cc0565b87876001600160a01b03167fe2babfbac5889a709b63bb7f598b324e08bc5a4fb9ec647fb3cbc9ec07eb87128884898960405161241a94939291906151b3565b60405180910390a3979650505050505050565b60006124488254600f81810b600160801b909204900b131590565b1561246657604051631ed9509560e11b815260040160405180910390fd5b508054600f0b6000818152600180840160205260408220805492905583546fffffffffffffffffffffffffffffffff191692016001600160801b03169190911790915590565b60648111156124cd5760405162461bcd60e51b81526004016103aa90615237565b60028110156124ee5760405162461bcd60e51b81526004016103aa90615285565b60128054908290556040517f0553476bf02ef2726e8ce5ced78d63e26e602e4a2257b1f559418e24b4633997906125289083908590614d8d565b60405180910390a15050565b6000611058858585856137a9565b6000818152600a602052604090205460ff16610d525760405162461bcd60e51b81526004016103aa906152c2565b6001600160a01b03811660009081526016602052604090205460ff16156125a95760405162461bcd60e51b81526004016103aa906152fd565b6001600160a01b03166000818152601660205260408120805460ff191660019081179091556017805491820181559091527fc624b66cc0138b8fabc209247f72d758e1cf3343756d543badbf24212bed8c150180546001600160a01b0319169091179055565b600081815260086020526040902060030154421115610d525760405162461bcd60e51b81526004016103aa90615334565b30612649610be2565b6001600160a01b0316146126d95760005b84518110156120f157306001600160a01b031685828151811061267f5761267f614e29565b60200260200101516001600160a01b0316036126c9576126c98382815181106126aa576126aa614e29565b602002602001015180519060200120600c61385790919063ffffffff16565b6126d281614e3f565b905061265a565b5050505050565b6000858152600a602052604090205460ff1661270e5760405162461bcd60e51b81526004016103aa90615395565b6126d98585858585613893565b30612724610be2565b6001600160a01b0316146126d957600c54600f81810b600160801b909204900b13156126d9576000600c556126d9565b60608060606000846001600160401b0381111561277357612773613ecc565b6040519080825280602002602001820160405280156127a657816020015b60608152602001906001900390816127915790505b5090506000856001600160401b038111156127c3576127c3613ecc565b6040519080825280602002602001820160405280156127f657816020015b60608152602001906001900390816127e15790505b5090506000866001600160401b0381111561281357612813613ecc565b60405190808252806020026020018201604052801561284657816020015b60608152602001906001900390816128315790505b50600354909150600061285a60018a614e98565b90508189106128715761286e600183614e98565b90505b60006003612880600185614e98565b8154811061289057612890614e29565b906000526020600020015490506128a68161394f565b8483815181106128b8576128b8614e29565b60200260200101819052506009600082815260200190815260200160002080546128e190614b1a565b80601f016020809104026020016040519081016040528092919081815260200182805461290d90614b1a565b801561295a5780601f1061292f5761010080835404028352916020019161295a565b820191906000526020600020905b81548152906001019060200180831161293d57829003601f168201915b505050505085838151811061297157612971614e29565b60200260200101819052506129a16129888261151d565b6007811115612999576129996144e2565b60ff1661394f565b8683815181106129b3576129b3614e29565b60209081029190910101526129c9600184614e98565b6000036129d65750612a05565b816000036129e45750612a05565b826129ee816153a5565b93505081806129fc906153a5565b92505050612871565b50909791965091945092505050565b600061105885858585612a3260408051602081019091526000815290565b612307565b600080612a4383613a4f565b90506004816007811115612a5957612a596144e2565b14612a645792915050565b60008381526014602052604090205480612a7f575092915050565b60008481526015602052604090205460ff161515600103612aa4575060079392505050565b601354604051632c258a9f60e11b81526001600160a01b039091169063584b153e90612ad4908490600401613e99565b602060405180830381865afa158015612af1573d6000803e3d6000fd5b505050506040513d601f19601f82011682018060405250810190612b1591906153c7565b15612b24575060059392505050565b5060029392505050565b6001600160a01b03811660009081526016602052604090205460ff16612b665760405162461bcd60e51b81526004016103aa9061541c565b6001600160a01b0381166000908152601660205260408120805460ff191690555b601754811015612c5957816001600160a01b031660178281548110612bae57612bae614e29565b6000918252602090912001546001600160a01b031603612c475760178054612bd890600190614e98565b81548110612be857612be8614e29565b600091825260209091200154601780546001600160a01b039092169183908110612c1457612c14614e29565b9060005260206000200160006101000a8154816001600160a01b0302191690836001600160a01b03160217905550612c59565b80612c5181614e3f565b915050612b87565b506017805480612c6b57612c6b61542c565b600082815260209020810160001990810180546001600160a01b031916905501905550565b600454600114612cb25760405162461bcd60e51b81526004016103aa90615461565b600060048190556040517f4e97bcfc80ae353daee1a1990d5b388eef167d3e197ebf5243cc4d43b4125c099190a1565b612d388363a9059cbb60e01b8484604051602401612d01929190615471565b60408051601f198184030181529190526020810180516001600160e01b03166001600160e01b031990931692909217909152613b2e565b505050565b7fc565b045403dc03c2eea82b81a0465edad9e2e7fc4d97e11421c209da93d7a93600e5482604051612d70929190614d8d565b60405180910390a1600e55565b6000600454600114612da15760405162461bcd60e51b81526004016103aa90614a54565b612da9611c93565b612db833610adc600143614e98565b1015612dd65760405162461bcd60e51b81526004016103aa906154c4565b3360009081526007602052604090205460ff1615612e065760405162461bcd60e51b81526004016103aa90615502565b336000908152600b60205260409020544211612e345760405162461bcd60e51b81526004016103aa9061553f565b600154612e419042614d7a565b600b6000336001600160a01b03166001600160a01b03168152602001908152602001600020819055506000612e7f8686868680519060200120611ccd565b90508451865114612ea25760405162461bcd60e51b81526004016103aa9061558d565b8351865114612ec35760405162461bcd60e51b81526004016103aa9061558d565b6000865111612ee45760405162461bcd60e51b81526004016103aa906155cc565b60005486511115612f075760405162461bcd60e51b81526004016103aa90615610565b600081815260086020908152604091829020825191820190925281546001600160401b03169081905215612f4d5760405162461bcd60e51b81526004016103aa9061565e565b6000612f5f612f5a611494565b613bbd565b612f6843613bbd565b612f72919061566e565b90506000612f81612f5a610c0c565b612f8b908361566e565b835467ffffffffffffffff19166001600160401b038416178455905060018301805467ffffffffffffffff19166001600160401b038316179055600654612fd29042614d7a565b60038401556000848152600960205260409020612fef878261571f565b50600380546001810182556000919091527fc2575a0e9e593c00f959f8c92f12db2869c3395a3b0502d05e2516446f71f85b018490556001600160401b038116336001600160a01b0316857f7d84a6263ae0d98d3329bd7b46bb4e8d6f98cd35a7adb45c274c8b7fd5ebd5e08c8c8e516001600160401b0381111561307657613076613ecc565b6040519080825280602002602001820160405280156130a957816020015b60608152602001906001900390816130945790505b508d898e6040516130bf969594939291906157ff565b60405180910390a45091979650505050505050565b606083156130e3575081611a06565b8251156130f35782518084602001fd5b8160405162461bcd60e51b81526004016103aa919061410f565b604051630748d63560e31b81526000906001600160a01b037f00000000000000000000000000000000000000000000000000000000000000001690633a46b1a89061315e9087908790600401615471565b602060405180830381865afa15801561317b573d6000803e3d6000fd5b505050506040513d601f19601f8201168201806040525081019061100e9190614be1565b6001600160a01b0381166131c55760405162461bcd60e51b81526004016103aa906158ad565b6013546040517f08f74ea46ef7894f65eabfb5e6e695de773a000b47c529ab559178069b22640191613204916001600160a01b03909116908490615067565b60405180910390a1601380546001600160a01b0319166001600160a01b0392909216919091179055565b6000811161324e5760405162461bcd60e51b81526004016103aa90615901565b7f7e3f7f0708a84de9203036abaa450dccc85ad5ff52f78c170f3edb55cf5e8828600f5482604051613281929190614d8d565b60405180910390a1600f55565b7fccb45da8d5717e6c4544694297c4ba5cf151d455c9bb0ed4fc7a38411bc05461601054826040516132c1929190614d8d565b60405180910390a1600081116132e95760405162461bcd60e51b81526004016103aa9061596b565b601055565b60006064601254604051632394e7a360e21b81526001600160a01b037f00000000000000000000000000000000000000000000000000000000000000001690638e539e8c90613341908790600401613e99565b602060405180830381865afa15801561335e573d6000803e3d6000fd5b505050506040513d601f19601f820116820180604052508101906133829190614be1565b61338c919061597b565b610c0691906159b0565b60006001600160e01b03198216632dcb927b60e11b14806133c757506001600160e01b03198216634eb6428760e11b145b80610c0657506301ffc9a760e01b6001600160e01b0319831614610c06565b6000306001600160a01b037f00000000000000000000000000000000000000000000000000000000000000001614801561343f57507f000000000000000000000000000000000000000000000000000000000000000046145b1561346957507f000000000000000000000000000000000000000000000000000000000000000090565b610bf67f00000000000000000000000000000000000000000000000000000000000000007f00000000000000000000000000000000000000000000000000000000000000007f0000000000000000000000000000000000000000000000000000000000000000613bea565b600082826040516020016134e99291906159c4565b60405160208183030381529060405280519060200120905092915050565b6000806fa2a8918ca85bafe22016d0b997e4df60600160ff1b0383111561353457506000905060036135d4565b8460ff16601b1415801561354c57508460ff16601c14155b1561355d57506000905060046135d4565b60006001878787876040516000815260200160405260405161358294939291906159f5565b6020604051602081039080840390855afa1580156135a4573d6000803e3d6000fd5b5050604051601f1901519150506001600160a01b0381166135cd576000600192509250506135d4565b9150600090505b94509492505050565b60008160048111156135f1576135f16144e2565b036135f95750565b600181600481111561360d5761360d6144e2565b0361362a5760405162461bcd60e51b81526004016103aa90615a59565b600281600481111561363e5761363e6144e2565b0361365b5760405162461bcd60e51b81526004016103aa90615a9d565b600381600481111561366f5761366f6144e2565b0361368c5760405162461bcd60e51b81526004016103aa90615aec565b60048160048111156136a0576136a06144e2565b03610d525760405162461bcd60e51b81526004016103aa90615b3b565b60008581526011602090815260408083206001600160a01b0388168452600381019092529091205460ff16156137055760405162461bcd60e51b81526004016103aa90615b8f565b6001600160a01b03851660009081526003820160205260409020805460ff1916600117905560ff841661375157828160000160008282546137469190614d7a565b909155506120f19050565b60001960ff85160161377157828160010160008282546137469190614d7a565b60011960ff85160161379157828160020160008282546137469190614d7a565b60405162461bcd60e51b81526004016103aa90615bf1565b6000806137b886868686613c24565b60008181526014602052604090205490915015611058576013546000828152601460205260409081902054905163c4d252f560e01b81526001600160a01b039092169163c4d252f59161380d91600401613e99565b600060405180830381600087803b15801561382757600080fd5b505af115801561383b573d6000803e3d6000fd5b5050506000828152601460205260408120555095945050505050565b8154600160801b90819004600f0b6000818152600180860160205260409091209390935583546001600160801b03908116939091011602179055565b60008581526015602052604090205460ff16156138c25760405162461bcd60e51b81526004016103aa90615c35565b60135460405163e38335e560e01b81526001600160a01b039091169063e38335e59034906138fd908890889088906000908990600401614cba565b6000604051808303818588803b15801561391657600080fd5b505af115801561392a573d6000803e3d6000fd5b50505060009687525050601560205250506040909220805460ff191660011790555050565b6060816000036139765750506040805180820190915260018152600360fc1b602082015290565b8160005b81156139a0578061398a81614e3f565b91506139999050600a836159b0565b915061397a565b6000816001600160401b038111156139ba576139ba613ecc565b6040519080825280601f01601f1916602001820160405280156139e4576020820181803683370190505b5090505b841561100e576139f9600183614e98565b9150613a06600a86615c45565b613a11906030614d7a565b60f81b818381518110613a2657613a26614e29565b60200101906001600160f81b031916908160001a905350613a48600a866159b0565b94506139e8565b6000818152600860205260408120600281015460ff1615613a735750600792915050565b6002810154610100900460ff1615613a8e5750600292915050565b6000613a998461145d565b905080600003613abb5760405162461bcd60e51b81526004016103aa90615c8d565b438110613acc575060009392505050565b6000613ad785611c9e565b9050438110613aeb57506001949350505050565b613af485613cff565b8015613b13575060008581526011602052604090208054600190910154115b15613b2357506004949350505050565b506003949350505050565b6000613b83826040518060400160405280602081526020017f5361666545524332303a206c6f772d6c6576656c2063616c6c206661696c6564815250856001600160a01b0316613d369092919063ffffffff16565b805190915015612d385780806020019051810190613ba191906153c7565b612d385760405162461bcd60e51b81526004016103aa90615ce4565b60006001600160401b03821115613be65760405162461bcd60e51b81526004016103aa90615d37565b5090565b60008383834630604051602001613c05959493929190615d47565b6040516020818303038152906040528051906020012090509392505050565b600080613c3386868686611ccd565b90506000613c408261151d565b90506002816007811115613c5657613c566144e2565b14158015613c7657506006816007811115613c7357613c736144e2565b14155b8015613c9457506007816007811115613c9157613c916144e2565b14155b613cb05760405162461bcd60e51b81526004016103aa90615dbd565b600082815260086020526040808220600201805461ff0019166101001790555183917f789cf55be980739dad1d0699b93b58e806b51c9d96619bfa8fe0a28abaa7b30c91a25095945050505050565b600081815260116020526040812060028101546001820154613d219190614d7a565b613d2d610b9c8561145d565b11159392505050565b606061100e8484600085856001600160a01b0385163b613d685760405162461bcd60e51b81526004016103aa90615e01565b600080866001600160a01b03168587604051613d849190615e33565b60006040518083038185875af1925050503d8060008114613dc1576040519150601f19603f3d011682016040523d82523d6000602084013e613dc6565b606091505b5091509150610cc08282866130d4565b603281526000602082017f476f7665726e6f722c207265636569766528293a20205f6578656375746f72288152712920213d206164647265737328746869732960701b602082015291505b5060400190565b60208082528101610c0681613dd6565b6001600160e01b031981165b8114610d5257600080fd5b8035610c0681613e38565b600060208284031215613e6f57613e6f600080fd5b600061100e8484613e4f565b8015155b82525050565b60208101610c068284613e7b565b80613e7f565b60208101610c068284613e93565b80613e44565b8035610c0681613ea7565b60ff8116613e44565b8035610c0681613eb8565b634e487b7160e01b600052604160045260246000fd5b601f19601f83011681018181106001600160401b0382111715613f0757613f07613ecc565b6040525050565b6000613f1960405190565b9050613f258282613ee2565b919050565b60006001600160401b03821115613f4357613f43613ecc565b601f19601f83011660200192915050565b82818337506000910152565b6000613f73613f6e84613f2a565b613f0e565b905082815260208101848484011115613f8e57613f8e600080fd5b613f99848285613f54565b509392505050565b600082601f830112613fb557613fb5600080fd5b813561100e848260208601613f60565b600080600080600080600060e0888a031215613fe357613fe3600080fd5b6000613fef8a8a613ead565b97505060206140008a828b01613ec1565b96505060408801356001600160401b0381111561401f5761401f600080fd5b61402b8a828b01613fa1565b95505060608801356001600160401b0381111561404a5761404a600080fd5b6140568a828b01613fa1565b94505060806140678a828b01613ec1565b93505060a06140788a828b01613ead565b92505060c06140898a828b01613ead565b91505092959891949750929550565b6000602082840312156140ad576140ad600080fd5b600061100e8484613ead565b60005b838110156140d45781810151838201526020016140bc565b50506000910152565b60006140e7825190565b8084526020840193506140fe8185602086016140b9565b601f01601f19169290920192915050565b60208082528101611a0681846140dd565b60006001600160401b0382111561413957614139613ecc565b5060209081020190565b60006001600160a01b038216610c06565b613e4481614143565b8035610c0681614154565b6000614176613f6e84614120565b8381529050602080820190840283018581111561419557614195600080fd5b835b818110156141b957806141aa888261415d565b84525060209283019201614197565b5050509392505050565b600082601f8301126141d7576141d7600080fd5b813561100e848260208601614168565b60006141f5613f6e84614120565b8381529050602080820190840283018581111561421457614214600080fd5b835b818110156141b957806142298882613ead565b84525060209283019201614216565b600082601f83011261424c5761424c600080fd5b813561100e8482602086016141e7565b600061426a613f6e84614120565b8381529050602080820190840283018581111561428957614289600080fd5b835b818110156141b95780356001600160401b038111156142ac576142ac600080fd5b8086016142b98982613fa1565b855250506020928301920161428b565b600082601f8301126142dd576142dd600080fd5b813561100e84826020860161425c565b6000806000806080858703121561430657614306600080fd5b84356001600160401b0381111561431f5761431f600080fd5b61432b878288016141c3565b94505060208501356001600160401b0381111561434a5761434a600080fd5b61435687828801614238565b93505060408501356001600160401b0381111561437557614375600080fd5b614381878288016142c9565b925050606061439287828801613ead565b91505092959194509250565b6000602082840312156143b3576143b3600080fd5b600061100e848461415d565b6000611a0683836140dd565b60006143d5825190565b808452602084019350836020820285016143ef8560200190565b8060005b85811015614424578484038952815161440c85826143bf565b94506020830160209a909a01999250506001016143f3565b5091979650505050505050565b6060808252810161444281866143cb565b9050818103602083015261445681856143cb565b9050818103604083015261105881846143cb565b600080600080600060a0868803121561448557614485600080fd5b60006144918888613ead565b95505060206144a288828901613ec1565b94505060406144b388828901613ec1565b93505060606144c488828901613ead565b92505060806144d588828901613ead565b9150509295509295909350565b634e487b7160e01b600052602160045260246000fd5b60088110610d5257610d526144e2565b80613f25816144f8565b6000610c0682614508565b613e7f81614512565b60208101610c06828461451d565b60006145408383613e93565b505060200190565b6000614552825190565b80845260209384019383018060005b838110156145865781516145758882614534565b975060208301925050600101614561565b509495945050505050565b60208082528101611a068184614548565b600080604083850312156145b8576145b8600080fd5b60006145c48585613ead565b92505060206145d58582860161415d565b9150509250929050565b606081016145ed8286613e93565b6145fa6020830185613e93565b61100e6040830184613e93565b6000806040838503121561461d5761461d600080fd5b60006146298585613ead565b92505060206145d585828601613ec1565b6000806000806080858703121561465357614653600080fd5b600061465f8787613ead565b945050602061467087828801613ec1565b93505060408501356001600160401b0381111561468f5761468f600080fd5b61469b87828801613fa1565b92505060608501356001600160401b038111156146ba576146ba600080fd5b61439287828801613fa1565b6000806000606084860312156146de576146de600080fd5b60006146ea8686613ead565b93505060206146fb86828701613ec1565b92505060408401356001600160401b0381111561471a5761471a600080fd5b61472686828701613fa1565b9150509250925092565b6000806000806080858703121561474957614749600080fd5b84356001600160401b0381111561476257614762600080fd5b61476e878288016141c3565b94505060208501356001600160401b0381111561478d5761478d600080fd5b61479987828801614238565b93505060408501356001600160401b038111156147b8576147b8600080fd5b61469b878288016142c9565b60008083601f8401126147d9576147d9600080fd5b5081356001600160401b038111156147f3576147f3600080fd5b60208301915083600182028301111561480e5761480e600080fd5b9250929050565b6000806000806060858703121561482e5761482e600080fd5b600061483a878761415d565b945050602061484b87828801613ead565b93505060408501356001600160401b0381111561486a5761486a600080fd5b614876878288016147c4565b95989497509550505050565b60008060006060848603121561489a5761489a600080fd5b60006148a6868661415d565b93505060206146fb86828701613ead565b6000610c0682614143565b613e44816148b7565b8035610c06816148c2565b6000602082840312156148eb576148eb600080fd5b600061100e84846148cb565b613e7f81614143565b60208101610c0682846148f7565b6000806040838503121561492457614924600080fd5b6000614930858561415d565b92505060206145d585828601613ead565b60008060006040848603121561495957614959600080fd5b6000614965868661415d565b93505060208401356001600160401b0381111561498457614984600080fd5b614990868287016147c4565b92509250509250925092565b801515613e44565b8035610c068161499c565b600080604083850312156149c5576149c5600080fd5b60006149d1858561415d565b92505060206145d5858286016149a4565b6000610c066001600160a01b0383166149f9565b90565b6001600160a01b031690565b6000610c06826149e2565b6000610c0682614a05565b613e7f81614a10565b60208101610c068284614a1b565b60088152600060208201676e6f74206c69766560c01b815291505b5060200190565b60208082528101610c0681614a32565b60ff8116613e7f565b60a08101614a7b8288613e93565b614a886020830187613e93565b614a956040830186614a64565b614aa26060830185613e93565b6117b16080830184613e93565b600e81526000602082016d6f6e6c79476f7665726e616e636560901b81529150614a4d565b60208082528101610c0681614aaf565b6000614af1838584613f54565b50500190565b600061100e828486614ae4565b634e487b7160e01b600052602260045260246000fd5b600281046001821680614b2e57607f821691505b602082108103614b4057614b40614b04565b50919050565b60208082527f71756575653a206e6f7420636f6e6669726d6564206279206d756c746973696791019081526000614a4d565b60208082528101610c0681614b46565b602181526000602082017f476f7665726e6f723a2070726f706f73616c206e6f74207375636365737366758152601b60fa1b60208201529150613e21565b60208082528101610c0681614b88565b8051610c0681613ea7565b600060208284031215614bf657614bf6600080fd5b600061100e8484614bd6565b600061454083836148f7565b6000614c18825190565b80845260209384019383018060005b83811015614586578151614c3b8882614c02565b975060208301925050600101614c27565b6000614c56825190565b80845260208401935083602082028501614c708560200190565b8060005b858110156144245784840389528151614c8d85826143bf565b94506020830160209a909a0199925050600101614c74565b6000610c066149f68381565b613e7f81614ca5565b60a08082528101614ccb8188614c0e565b90508181036020830152614cdf8187614548565b90508181036040830152614cf38186614c4c565b9050614aa26060830185614cb1565b60c08082528101614d138189614c0e565b90508181036020830152614d278188614548565b90508181036040830152614d3b8187614c4c565b9050614d4a6060830186614cb1565b614d576080830185613e93565b610cc060a0830184613e93565b634e487b7160e01b600052601160045260246000fd5b80820180821115610c0657610c06614d64565b60408101614d9b8285613e93565b611a066020830184613e93565b6016815260006020820175476f7665726e6f723a206f6e6c794d756c746953696760501b81529150614a4d565b60208082528101610c0681614da8565b601981526000602082017f70726f706f73616c20616c72656164792065786563757465640000000000000081529150614a4d565b60208082528101610c0681614de5565b634e487b7160e01b600052603260045260246000fd5b60006000198203614e5257614e52614d64565b5060010190565b60188152600060208201771b5cd9cb9d985b1d59481b9bdd081cdd59999a58da595b9d60421b81529150614a4d565b60208082528101610c0681614e59565b81810381811115610c0657610c06614d64565b6000610c06826149f6565b60148152600060208201732330b4b632b2103a379039b2b7321032ba3432b960611b81529150614a4d565b60208082528101610c0681614eb6565b600a8152600060208201697a65726f2076616c756560b01b81529150614a4d565b60208082528101610c0681614ef1565b60608101614f308286613e93565b614f3d6020830185613e93565b61100e6040830184614a64565b603c81526000602082017f72656c61794e6174697665546f6b656e3a2063616e742072656c6179206e617481527f69766520746f6b656e20746f20737570706f7274656420746f6b656e0000000060208201529150613e21565b60208082528101610c0681614f4a565b60808082528101614fc58187614c0e565b90508181036020830152614fd98186614548565b90508181036040830152614fed8185614c4c565b90506110586060830184613e93565b60118152600060208201706c657373207468616e206d696e696d756d60781b81529150614a4d565b60208082528101610c0681614ffc565b600c81526000602082016b7a65726f206164647265737360a01b81529150614a4d565b60208082528101610c0681615034565b6040810161507582856148f7565b611a0660208301846148f7565b601f81526000602082017f72656c617945524332303a20746f6b656e206e6f7420737570706f727465640081529150614a4d565b60208082528101610c0681615082565b601a81526000602082017f70726f706f73616c20616c726561647920636f6e6669726d656400000000000081529150614a4d565b60208082528101610c06816150c6565b60178152600060208201761c1c9bdc1bdcd85b081b9bdd081cdd58d8d95cdcd99d5b604a1b81529150614a4d565b60208082528101610c068161510a565b6017815260006020820176476f7665726e6f723a20766f746520696e61637469766560481b81529150614a4d565b60208082528101610c0681615148565b606081016151948286614a64565b6151a16020830185613e93565b818103604083015261105881846140dd565b608081016151c18287614a64565b6151ce6020830186613e93565b81810360408301526151e081856140dd565b905081810360608301526117b181846140dd565b602681526000602082017f71756f72756d4e756d657261746f72206f7665722071756f72756d44656e6f6d81526534b730ba37b960d11b60208201529150613e21565b60208082528101610c06816151f4565b602181526000602082017f71756f72756d4e756d657261746f72206c657373207468616e204d696e696d758152606d60f81b60208201529150613e21565b60208082528101610c0681615247565b60168152600060208201751c1c9bdc1bdcd85b081b9bdd0818dbdb999a5c9b595960521b81529150614a4d565b60208082528101610c0681615295565b6014815260006020820173546f6b656e20616c72656164792065786973747360601b81529150614a4d565b60208082528101610c06816152d2565b601081526000602082016f1c1c9bdc1bdcd85b08195e1c1a5c995960821b81529150614a4d565b60208082528101610c068161530d565b603481526000602082017f4d61696e546f6b656e476f7665726e6f723a2050726f706f73616c206e6f742081527318dbdb999a5c9b595908189e4818dbdd5b98da5b60621b60208201529150613e21565b60208082528101610c0681615344565b6000816153b4576153b4614d64565b506000190190565b8051610c068161499c565b6000602082840312156153dc576153dc600080fd5b600061100e84846153bc565b601a81526000602082017f546f6b656e20616c726561647920646f65736e7420657869737400000000000081529150614a4d565b60208082528101610c06816153e8565b634e487b7160e01b600052603160045260246000fd5b60088152600060208201676e6f742d6c69766560c01b81529150614a4d565b60208082528101610c0681615442565b60408101614d9b82856148f7565b602881526000602082017f476f7665726e6f723a2070726f706f73657220766f7465732062656c6f7720748152671a1c995cda1bdb1960c21b60208201529150613e21565b60208082528101610c068161547f565b6017815260006020820176141c9bdc1bdcd95c881a5cc8189b1858dadb1a5cdd1959604a1b81529150614a4d565b60208082528101610c06816154d4565b601681526000602082017510d85b881cdd589b5a5d081a5b881a5b9d195c9d985b60521b81529150614a4d565b60208082528101610c0681615512565b602181526000602082017f476f7665726e6f723a20696e76616c69642070726f706f73616c206c656e67748152600d60fb1b60208201529150613e21565b60208082528101610c068161554f565b601881526000602082017711dbdd995c9b9bdc8e88195b5c1d1e481c1c9bdc1bdcd85b60421b81529150614a4d565b60208082528101610c068161559d565b601b81526000602082017f476f7665726e6f723a206d617820746172676574206c656e677468000000000081529150614a4d565b60208082528101610c06816155dc565b602181526000602082017f476f7665726e6f723a2070726f706f73616c20616c72656164792065786973748152607360f81b60208201529150613e21565b60208082528101610c0681615620565b6001600160401b03918216919081169082820190811115610c0657610c06614d64565b61569a83614ca5565b81546008840282811b60001990911b908116901990911617825550505050565b6000612d38818484615691565b818110156156e2576156da6000826156ba565b6001016156c7565b5050565b601f821115612d38576000818152602090206020601f8501048101602085101561570d5750805b6126d96020601f8601048301826156c7565b81516001600160401b0381111561573857615738613ecc565b6157428254614b1a565b61574d8282856156e6565b6020601f83116001811461578157600084156157695750858201515b600019600886021c19811660028602178655506120f1565b600085815260208120601f198616915b828110156157b15788850151825560209485019460019092019101615791565b868310156157cd5784890151600019601f89166008021c191682555b600160028802018855505050505050505050565b6000610c066149f66001600160401b03841681565b613e7f816157e1565b60c080825281016158108189614c0e565b905081810360208301526158248188614548565b9050818103604083015261583881876143cb565b9050818103606083015261584c8186614c4c565b905061585b60808301856157f6565b81810360a083015261586d81846140dd565b98975050505050505050565b601c81526000602082017f75706461746554696d656c6f636b3a207a65726f20616464726573730000000081529150614a4d565b60208082528101610c0681615879565b602781526000602082017f476f7665726e6f7253657474696e67733a20766f74696e6720706572696f6420815266746f6f206c6f7760c81b60208201529150613e21565b60208082528101610c06816158bd565b603a81526000602082017f5f73657450726f706f73616c5468726573686f6c643a205468726573686f6c6481527f20666f722070726f706f73616c2063616e74206265207a65726f00000000000060208201529150613e21565b60208082528101610c0681615911565b600081600019048311821515161561599557615995614d64565b500290565b634e487b7160e01b600052601260045260246000fd5b6000826159bf576159bf61599a565b500490565b61190160f01b815260020160006159db8285613e93565b6020820191506159eb8284613e93565b5060200192915050565b60808101615a038287613e93565b615a106020830186614a64565b615a1d6040830185613e93565b6110586060830184613e93565b601881526000602082017745434453413a20696e76616c6964207369676e617475726560401b81529150614a4d565b60208082528101610c0681615a2a565b601f81526000602082017f45434453413a20696e76616c6964207369676e6174757265206c656e6774680081529150614a4d565b60208082528101610c0681615a69565b602281526000602082017f45434453413a20696e76616c6964207369676e6174757265202773272076616c815261756560f01b60208201529150613e21565b60208082528101610c0681615aad565b602281526000602082017f45434453413a20696e76616c6964207369676e6174757265202776272076616c815261756560f01b60208201529150613e21565b60208082528101610c0681615afc565b602781526000602082017f476f7665726e6f72566f74696e6753696d706c653a20766f746520616c726561815266191e4818d85cdd60ca1b60208201529150613e21565b60208082528101610c0681615b4b565b603581526000602082017f476f7665726e6f72566f74696e6753696d706c653a20696e76616c69642076618152746c756520666f7220656e756d20566f74655479706560581b60208201529150613e21565b60208082528101610c0681615b9f565b601a81526000602082017f5f657865637574653a20616c726561647920657865637574656400000000000081529150614a4d565b60208082528101610c0681615c01565b600082615c5457615c5461599a565b500690565b601d81526000602082017f476f7665726e6f723a20756e6b6e6f776e2070726f706f73616c20696400000081529150614a4d565b60208082528101610c0681615c59565b602a81526000602082017f5361666545524332303a204552433230206f7065726174696f6e20646964206e8152691bdd081cdd58d8d9595960b21b60208201529150613e21565b60208082528101610c0681615c9d565b602681526000602082017f53616665436173743a2076616c756520646f65736e27742066697420696e203681526534206269747360d01b60208201529150613e21565b60208082528101610c0681615cf4565b60a08101615d558288613e93565b615d626020830187613e93565b615d6f6040830186613e93565b615d7c6060830185613e93565b6117b160808301846148f7565b601d81526000602082017f476f7665726e6f723a2070726f706f73616c206e6f742061637469766500000081529150614a4d565b60208082528101610c0681615d89565b601d81526000602082017f416464726573733a2063616c6c20746f206e6f6e2d636f6e747261637400000081529150614a4d565b60208082528101610c0681615dcd565b6000615e1b825190565b615e298185602086016140b9565b9290920192915050565b6000611a068284615e1156fe476f7665726e6f723a2072656c6179455243323020726576657274656420776974686f7574206d657373616765476f7665726e6f723a2072656c61794e6174697665546f6b656e20726576657274656420776974686f7574206d657373616765a26469706673582212203182f8279102c19deac7e4cadae3e997306c29a404be9d93903b43e3ab57003864736f6c63430008100033",
    "immutableReferences": {
        "5681": [
            {
                "length": 32,
                "start": 13383
            }
        ],
        "5683": [
            {
                "length": 32,
                "start": 13341
            }
        ],
        "5685": [
            {
                "length": 32,
                "start": 13299
            }
        ],
        "5687": [
            {
                "length": 32,
                "start": 13455
            }
        ],
        "5689": [
            {
                "length": 32,
                "start": 13488
            }
        ],
        "5691": [
            {
                "length": 32,
                "start": 13422
            }
        ],
        "14417": [
            {
                "length": 32,
                "start": 2995
            },
            {
                "length": 32,
                "start": 12583
            },
            {
                "length": 32,
                "start": 13068
            }
        ]
    },
    "source": "// SPDX-License-Identifier: MIT\n// Copyright Fathom 2022\n\npragma solidity 0.8.16;\n\nimport \"./Governor.sol\";\nimport \"./extensions/GovernorSettings.sol\";\nimport \"./extensions/GovernorCountingSimple.sol\";\nimport \"./extensions/GovernorVotes.sol\";\nimport \"./extensions/GovernorVotesQuorumFraction.sol\";\nimport \"./extensions/GovernorTimelockControl.sol\";\nimport \"../tokens/ERC20/IERC20.sol\";\nimport \"../../common/SafeERC20.sol\";\n\ncontract MainTokenGovernor is\n    Governor,\n    GovernorSettings,\n    GovernorCountingSimple,\n    GovernorVotes,\n    GovernorVotesQuorumFraction,\n    GovernorTimelockControl\n{\n    using SafeERC20 for IERC20;\n    mapping(address => bool) public isSupportedToken;\n    address[] public listOfSupportedTokens;\n\n    constructor(\n        IVotes _token,\n        TimelockController _timelock,\n        address _multiSig,\n        uint256 _initialVotingDelay,\n        uint256 _votingPeriod,\n        uint256 _initialProposalThreshold,\n        uint256 _proposalTimeDelay,\n        uint256 _proposalLifetime\n    )\n        Governor(\"MainTokenGovernor\", _multiSig, 20, _proposalTimeDelay,_proposalLifetime)\n        GovernorSettings(_initialVotingDelay, _votingPeriod, _initialProposalThreshold)\n        GovernorVotes(_token)\n        GovernorVotesQuorumFraction(4)\n        GovernorTimelockControl(_timelock)\n    {}\n\n    function propose(\n        address[] memory targets,\n        uint256[] memory values,\n        bytes[] memory calldatas,\n        string memory description\n    ) public override(Governor, IGovernor) returns (uint256) {\n        return super.propose(targets, values, calldatas, description);\n    }\n\n    function cancelProposal(\n        address[] memory targets,\n        uint256[] memory values,\n        bytes[] memory calldatas,\n        bytes32 descriptionHash\n    ) public override onlyMultiSig returns (uint256) {\n        return _cancel(targets, values, calldatas, descriptionHash);\n    }\n\n    function proposalThreshold() public view override(Governor, GovernorSettings) returns (uint256) {\n        return super.proposalThreshold();\n    }\n\n    function supportsInterface(bytes4 interfaceId) public view override(Governor, GovernorTimelockControl) returns (bool) {\n        return super.supportsInterface(interfaceId);\n    }\n\n    function votingDelay() public view override(IGovernor, GovernorSettings) returns (uint256) {\n        return super.votingDelay();\n    }\n\n    function votingPeriod() public view override(IGovernor, GovernorSettings) returns (uint256) {\n        return super.votingPeriod();\n    }\n\n    function quorum(uint256 blockNumber) public view override(IGovernor, GovernorVotesQuorumFraction) returns (uint256) {\n        return super.quorum(blockNumber);\n    }\n\n    function state(uint256 proposalId) public view override(Governor, GovernorTimelockControl) returns (ProposalState) {\n        return super.state(proposalId);\n    }\n\n    function emergencyStop() public onlyMultiSig{\n        _emergencyStop();\n        for(uint i = 0; i < listOfSupportedTokens.length;i++){\n            address _token = listOfSupportedTokens[i];\n            uint256 balanceInContract = IERC20(_token).balanceOf(address(this));\n            if(balanceInContract > 0){\n                IERC20(_token).safeTransfer(msg.sender, balanceInContract);\n            }  \n        }\n        if (address(this).balance > 0){\n            (bool sent,) =   msg.sender.call{ value: (address(this).balance) }(\"\");\n            require(sent, \"Failed to send ether\");\n        } \n    }\n\n    function addSupportingToken(address _token) public onlyGovernance {\n        _addSupportedToken(_token);\n    }\n    function removeSupportingToken(address _token) public onlyGovernance {\n        _removeSupportingToken(_token);\n    }\n\n    function _addSupportedToken(address _token) internal {\n        require(!isSupportedToken[_token], \"Token already exists\");\n        isSupportedToken[_token] = true;\n        listOfSupportedTokens.push(_token);\n    }\n\n    function _removeSupportingToken(address _token) internal {\n        require(isSupportedToken[_token], \"Token already doesnt exist\");\n        isSupportedToken[_token] = false;\n        for (uint256 i = 0; i < listOfSupportedTokens.length; i++) {\n            if (listOfSupportedTokens[i] == _token) {\n                listOfSupportedTokens[i] = listOfSupportedTokens[listOfSupportedTokens.length - 1];\n                break;\n            }\n        }\n        listOfSupportedTokens.pop();\n    }\n    \n\n    /**\n     * @dev Relays a transaction or function call to an arbitrary target. In cases where the governance executor\n     * is some contract other than the governor itself, like when using a timelock, this function can be invoked\n     * in a governance proposal to recover tokens or Ether that was sent to the governor contract by mistake.\n     * Note that if the executor is simply the governor itself, use of `relay` is redundant.\n     */\n    function relayERC20(\n        address target,\n        bytes calldata data\n    ) external virtual onlyGovernance {\n        require(isSupportedToken[target], \"relayERC20: token not supported\");\n        (bool success, bytes memory returndata) = target.call(data);\n        Address.verifyCallResult(success, returndata, \"Governor: relayERC20 reverted without message\");\n    }\n\n    /**\n     * @dev Relays a transaction or function call to an arbitrary target. In cases where the governance executor\n     * is some contract other than the governor itself, like when using a timelock, this function can be invoked\n     * in a governance proposal to recover tokens or Ether that was sent to the governor contract by mistake.\n     * Note that if the executor is simply the governor itself, use of `relay` is redundant.\n     */\n    function relayNativeToken(\n        address target,\n        uint256 value,\n        bytes calldata data\n    ) external payable virtual onlyGovernance {\n        require(!isSupportedToken[target],\"relayNativeToken: cant relay native token to supported token\");\n        (bool success, bytes memory returndata) = target.call{ value: value }(data);\n        Address.verifyCallResult(success, returndata, \"Governor: relayNativeToken reverted without message\");\n    }\n\n    function _execute(\n        uint256 proposalId,\n        address[] memory targets,\n        uint256[] memory values,\n        bytes[] memory calldatas,\n        bytes32 descriptionHash\n    ) internal override(Governor, GovernorTimelockControl) {\n        require(isConfirmed[proposalId], \"MainTokenGovernor: Proposal not confirmed by council\");\n        super._execute(proposalId, targets, values, calldatas, descriptionHash);\n    }\n\n    function _cancel(\n        address[] memory targets,\n        uint256[] memory values,\n        bytes[] memory calldatas,\n        bytes32 descriptionHash\n    ) internal override(Governor, GovernorTimelockControl) returns (uint256) {\n        return super._cancel(targets, values, calldatas, descriptionHash);\n    }\n\n    function _executor() internal view override(Governor, GovernorTimelockControl) returns (address) {\n        return super._executor();\n    }\n}\n",
    "sourcePath": "/Users/subiksinghshrestha/Documents/FATHOM/fathom-dao-smart-contracts/contracts/dao/governance/MainTokenGovernor.sol",
    "compiler": {
        "name": "solc",
        "version": "0.8.16+commit.07a7930e.Darwin.appleclang"
    },
    "schemaVersion": "3.4.10",
    "updatedAt": "2023-02-17T07:32:42.596Z",
    "devdoc": {
        "errors": {
            "Empty()": [
                {
                    "details": "An operation (e.g. {front}) couldn't be completed due to the queue being empty."
                }
            ]
        },
        "kind": "dev",
        "methods": {
            "hashProposal(address[],uint256[],bytes[],bytes32)": {
                "details": "A description of the possible `support` values for {castVote} and the way these votes are counted, meant to be consumed by UIs to show correct vote options and interpret the results. The string is a URL-encoded sequence of key-value pairs that each describe one aspect, for example `support=bravo&quorum=for,abstain`. There are 2 standard keys: `support` and `quorum`. - `support=bravo` refers to the vote options 0 = Against, 1 = For, 2 = Abstain, as in `GovernorBravo`. - `quorum=bravo` means that only For votes are counted towards quorum. - `quorum=for,abstain` means that both For and Abstain votes are counted towards quorum. If a counting module makes use of encoded `params`, it should  include this under a `params` key with a unique name that describes the behavior. For example: - `params=fractional` might refer to a scheme where votes are divided fractionally between for/against/abstain. - `params=erc721` might refer to a scheme where specific NFTs are delegated to vote. NOTE: The string can be decoded by the standard https://developer.mozilla.org/en-US/docs/Web/API/URLSearchParams[`URLSearchParams`] JavaScript class."
            },
            "relayERC20(address,bytes)": {
                "details": "Relays a transaction or function call to an arbitrary target. In cases where the governance executor is some contract other than the governor itself, like when using a timelock, this function can be invoked in a governance proposal to recover tokens or Ether that was sent to the governor contract by mistake. Note that if the executor is simply the governor itself, use of `relay` is redundant."
            },
            "relayNativeToken(address,uint256,bytes)": {
                "details": "Relays a transaction or function call to an arbitrary target. In cases where the governance executor is some contract other than the governor itself, like when using a timelock, this function can be invoked in a governance proposal to recover tokens or Ether that was sent to the governor contract by mistake. Note that if the executor is simply the governor itself, use of `relay` is redundant."
            },
            "updateQuorumNumerator(uint256)": {
                "details": "Changes the quorum numerator. Emits a {QuorumNumeratorUpdated} event. Requirements: - Must be called through a governance proposal. - New numerator must be smaller or equal to the denominator."
            }
        },
        "version": 1
    },
    "userdoc": {
        "kind": "user",
        "methods": {},
        "version": 1
    }
}