{
    "contractName": "StakingGettersHelper",
    "abi": [
        {
            "inputs": [
                {
                    "internalType": "address",
                    "name": "_stakingContract",
                    "type": "address"
                },
                {
                    "internalType": "address",
                    "name": "admin",
                    "type": "address"
                }
            ],
            "stateMutability": "nonpayable",
            "type": "constructor"
        },
        {
            "anonymous": false,
            "inputs": [
                {
                    "indexed": true,
                    "internalType": "bytes32",
                    "name": "role",
                    "type": "bytes32"
                },
                {
                    "indexed": true,
                    "internalType": "bytes32",
                    "name": "previousAdminRole",
                    "type": "bytes32"
                },
                {
                    "indexed": true,
                    "internalType": "bytes32",
                    "name": "newAdminRole",
                    "type": "bytes32"
                }
            ],
            "name": "RoleAdminChanged",
            "type": "event"
        },
        {
            "anonymous": false,
            "inputs": [
                {
                    "indexed": true,
                    "internalType": "bytes32",
                    "name": "role",
                    "type": "bytes32"
                },
                {
                    "indexed": true,
                    "internalType": "address",
                    "name": "account",
                    "type": "address"
                },
                {
                    "indexed": true,
                    "internalType": "address",
                    "name": "sender",
                    "type": "address"
                }
            ],
            "name": "RoleGranted",
            "type": "event"
        },
        {
            "anonymous": false,
            "inputs": [
                {
                    "indexed": true,
                    "internalType": "bytes32",
                    "name": "role",
                    "type": "bytes32"
                },
                {
                    "indexed": true,
                    "internalType": "address",
                    "name": "account",
                    "type": "address"
                },
                {
                    "indexed": true,
                    "internalType": "address",
                    "name": "sender",
                    "type": "address"
                }
            ],
            "name": "RoleRevoked",
            "type": "event"
        },
        {
            "inputs": [],
            "name": "DEFAULT_ADMIN_ROLE",
            "outputs": [
                {
                    "internalType": "bytes32",
                    "name": "",
                    "type": "bytes32"
                }
            ],
            "stateMutability": "view",
            "type": "function"
        },
        {
            "inputs": [
                {
                    "internalType": "bytes32",
                    "name": "role",
                    "type": "bytes32"
                }
            ],
            "name": "getRoleAdmin",
            "outputs": [
                {
                    "internalType": "bytes32",
                    "name": "",
                    "type": "bytes32"
                }
            ],
            "stateMutability": "view",
            "type": "function"
        },
        {
            "inputs": [
                {
                    "internalType": "bytes32",
                    "name": "role",
                    "type": "bytes32"
                },
                {
                    "internalType": "address",
                    "name": "account",
                    "type": "address"
                }
            ],
            "name": "grantRole",
            "outputs": [],
            "stateMutability": "nonpayable",
            "type": "function"
        },
        {
            "inputs": [
                {
                    "internalType": "bytes32",
                    "name": "role",
                    "type": "bytes32"
                },
                {
                    "internalType": "address",
                    "name": "account",
                    "type": "address"
                }
            ],
            "name": "hasRole",
            "outputs": [
                {
                    "internalType": "bool",
                    "name": "",
                    "type": "bool"
                }
            ],
            "stateMutability": "view",
            "type": "function"
        },
        {
            "inputs": [
                {
                    "internalType": "bytes32",
                    "name": "role",
                    "type": "bytes32"
                },
                {
                    "internalType": "address",
                    "name": "account",
                    "type": "address"
                }
            ],
            "name": "renounceRole",
            "outputs": [],
            "stateMutability": "nonpayable",
            "type": "function"
        },
        {
            "inputs": [
                {
                    "internalType": "bytes32",
                    "name": "role",
                    "type": "bytes32"
                },
                {
                    "internalType": "address",
                    "name": "account",
                    "type": "address"
                }
            ],
            "name": "revokeRole",
            "outputs": [],
            "stateMutability": "nonpayable",
            "type": "function"
        },
        {
            "inputs": [
                {
                    "internalType": "bytes4",
                    "name": "interfaceId",
                    "type": "bytes4"
                }
            ],
            "name": "supportsInterface",
            "outputs": [
                {
                    "internalType": "bool",
                    "name": "",
                    "type": "bool"
                }
            ],
            "stateMutability": "view",
            "type": "function"
        },
        {
            "inputs": [
                {
                    "internalType": "address",
                    "name": "account",
                    "type": "address"
                },
                {
                    "internalType": "uint256",
                    "name": "lockId",
                    "type": "uint256"
                }
            ],
            "name": "getLockInfo",
            "outputs": [
                {
                    "components": [
                        {
                            "internalType": "uint128",
                            "name": "amountOfToken",
                            "type": "uint128"
                        },
                        {
                            "internalType": "uint128",
                            "name": "positionStreamShares",
                            "type": "uint128"
                        },
                        {
                            "internalType": "uint64",
                            "name": "end",
                            "type": "uint64"
                        },
                        {
                            "internalType": "address",
                            "name": "owner",
                            "type": "address"
                        },
                        {
                            "internalType": "uint256",
                            "name": "amountOfVoteToken",
                            "type": "uint256"
                        }
                    ],
                    "internalType": "struct LockedBalance",
                    "name": "",
                    "type": "tuple"
                }
            ],
            "stateMutability": "view",
            "type": "function"
        },
        {
            "inputs": [
                {
                    "internalType": "address",
                    "name": "account",
                    "type": "address"
                }
            ],
            "name": "getLocksLength",
            "outputs": [
                {
                    "internalType": "uint256",
                    "name": "",
                    "type": "uint256"
                }
            ],
            "stateMutability": "view",
            "type": "function"
        },
        {
            "inputs": [],
            "name": "getWeight",
            "outputs": [
                {
                    "components": [
                        {
                            "internalType": "uint32",
                            "name": "maxWeightShares",
                            "type": "uint32"
                        },
                        {
                            "internalType": "uint32",
                            "name": "minWeightShares",
                            "type": "uint32"
                        },
                        {
                            "internalType": "uint32",
                            "name": "maxWeightPenalty",
                            "type": "uint32"
                        },
                        {
                            "internalType": "uint32",
                            "name": "minWeightPenalty",
                            "type": "uint32"
                        },
                        {
                            "internalType": "uint32",
                            "name": "penaltyWeightMultiplier",
                            "type": "uint32"
                        }
                    ],
                    "internalType": "struct Weight",
                    "name": "",
                    "type": "tuple"
                }
            ],
            "stateMutability": "view",
            "type": "function"
        },
        {
            "inputs": [
                {
                    "internalType": "address",
                    "name": "account",
                    "type": "address"
                },
                {
                    "internalType": "uint256",
                    "name": "lockId",
                    "type": "uint256"
                }
            ],
            "name": "getLock",
            "outputs": [
                {
                    "internalType": "uint128",
                    "name": "",
                    "type": "uint128"
                },
                {
                    "internalType": "uint128",
                    "name": "",
                    "type": "uint128"
                },
                {
                    "internalType": "uint64",
                    "name": "",
                    "type": "uint64"
                },
                {
                    "internalType": "address",
                    "name": "",
                    "type": "address"
                },
                {
                    "internalType": "uint256",
                    "name": "",
                    "type": "uint256"
                }
            ],
            "stateMutability": "view",
            "type": "function"
        },
        {
            "inputs": [
                {
                    "internalType": "address",
                    "name": "account",
                    "type": "address"
                }
            ],
            "name": "getUserTotalDeposit",
            "outputs": [
                {
                    "internalType": "uint256",
                    "name": "",
                    "type": "uint256"
                }
            ],
            "stateMutability": "view",
            "type": "function"
        },
        {
            "inputs": [
                {
                    "internalType": "uint256",
                    "name": "streamId",
                    "type": "uint256"
                },
                {
                    "internalType": "address",
                    "name": "account",
                    "type": "address"
                }
            ],
            "name": "getStreamClaimableAmount",
            "outputs": [
                {
                    "internalType": "uint256",
                    "name": "",
                    "type": "uint256"
                }
            ],
            "stateMutability": "view",
            "type": "function"
        },
        {
            "inputs": [
                {
                    "internalType": "address",
                    "name": "account",
                    "type": "address"
                }
            ],
            "name": "getUserTotalVotes",
            "outputs": [
                {
                    "internalType": "uint256",
                    "name": "",
                    "type": "uint256"
                }
            ],
            "stateMutability": "view",
            "type": "function"
        },
        {
            "inputs": [
                {
                    "internalType": "uint256",
                    "name": "lockId",
                    "type": "uint256"
                },
                {
                    "internalType": "address",
                    "name": "account",
                    "type": "address"
                }
            ],
            "name": "getFeesForEarlyUnlock",
            "outputs": [
                {
                    "internalType": "uint256",
                    "name": "",
                    "type": "uint256"
                }
            ],
            "stateMutability": "view",
            "type": "function"
        }
    ],
    "bytecode": "0x60806040523480156200001157600080fd5b506040516200179138038062001791833981016040819052620000349162000151565b600180546001600160a01b0319166001600160a01b0384161790556200005c60008262000064565b505062000194565b620000708282620000ed565b620000e9576000828152602081815260408083206001600160a01b03851684529091529020805460ff19166001179055620000a83390565b6001600160a01b0316816001600160a01b0316837f2f8788117e7eff1d82e926ec794901d17c78024a50270940304540a733656f0d60405160405180910390a45b5050565b6000828152602081815260408083206001600160a01b038516845290915290205460ff165b92915050565b60006001600160a01b03821662000112565b620001358162000118565b81146200014157600080fd5b50565b805162000112816200012a565b60008060408385031215620001695762000169600080fd5b600062000177858562000144565b92505060206200018a8582860162000144565b9150509250929050565b6115ed80620001a46000396000f3fe608060405234801561001057600080fd5b50600436106100e55760003560e01c806336568abe11610097578063a4c828dc11610066578063a4c828dc14610203578063a9b4b78014610216578063b37a7c101461022b578063d547741f1461023e57600080fd5b806336568abe146101c25780637183ab24146101d557806391d14854146101e8578063a217fddf146101fb57600080fd5b806301ffc9a7146100ea5780630e0930f0146101135780631208a2561461013357806315b9672c146101575780631c61e61714610177578063248a9ca31461018a5780632f2ff15d146101ad575b600080fd5b6100fd6100f8366004610caa565b610251565b60405161010a9190610cdd565b60405180910390f35b610126610121366004610d10565b610288565b60405161010a9190610d37565b610146610141366004610d56565b61029c565b60405161010a959493929190610dbb565b61016a610165366004610d56565b61034c565b60405161010a9190610e6a565b610126610185366004610e78565b6103f0565b610126610198366004610eab565b60009081526020819052604090206001015490565b6101c06101bb366004610e78565b6104ba565b005b6101c06101d0366004610e78565b6104e4565b6101266101e3366004610d10565b61051a565b6100fd6101f6366004610e78565b610596565b610126600081565b610126610211366004610d10565b6105bf565b61021e61063c565b60405161010a9190610f35565b610126610239366004610e78565b610674565b6101c061024c366004610e78565b61076a565b60006001600160e01b03198216637965db0b60e01b148061028257506301ffc9a760e01b6001600160e01b03198316145b92915050565b6000806102948361078f565b519392505050565b6000806000806000806102ae8861078f565b90506000816102be60018a610f59565b815181106102ce576102ce610f6c565b6020026020010151905081518811156103025760405162461bcd60e51b81526004016102f990610fa8565b60405180910390fd5b600088116103225760405162461bcd60e51b81526004016102f990610fdf565b8051602082015160408301516060840151608090940151929c919b50995091975095509350505050565b6040805160a0810182526000808252602082018190529181018290526060810182905260808101829052906103808461078f565b905080518311156103a35760405162461bcd60e51b81526004016102f990610fa8565b600083116103c35760405162461bcd60e51b81526004016102f990610fdf565b806103cf600185610f59565b815181106103df576103df610f6c565b602002602001015191505092915050565b6000806103fc8361078f565b90508051600003610411576000915050610282565b600060015b825181116104b15760015460405163ddcf3e2960e01b81526001600160a01b039091169063ddcf3e299061045290899089908690600401610fef565b602060405180830381865afa15801561046f573d6000803e3d6000fd5b505050506040513d601f19601f820116820180604052508101906104939190611022565b61049d9083611043565b9150806104a981611056565b915050610416565b50949350505050565b6000828152602081905260409020600101546104d581610805565b6104df8383610812565b505050565b6001600160a01b038116331461050c5760405162461bcd60e51b81526004016102f990611070565b6105168282610896565b5050565b6000806105268361078f565b9050805160000361053a5750600092915050565b600060015b8251811161058e5782610553600183610f59565b8151811061056357610563610f6c565b6020026020010151608001518261057a9190611043565b91508061058681611056565b91505061053f565b509392505050565b6000918252602082815260408084206001600160a01b0393909316845291905290205460ff1690565b6000806105cb8361078f565b905080516000036105df5750600092915050565b600060015b8251811161058e57826105f8600183610f59565b8151811061060857610608610f6c565b6020026020010151600001516001600160801b0316826106289190611043565b91508061063481611056565b9150506105e4565b6040805160a08101825260008082526020820181905291810182905260608101829052608081019190915261066f6108fb565b905090565b6000806106808361078f565b905080518411156106a35760405162461bcd60e51b81526004016102f990610fa8565b6000816106b1600187610f59565b815181106106c1576106c1610f6c565b60200260200101519050600085116106eb5760405162461bcd60e51b81526004016102f990610fdf565b42816040015167ffffffffffffffff16116107185760405162461bcd60e51b81526004016102f9906110f1565b805160408201516001600160801b039091169067ffffffffffffffff166000610741824261098f565b90506000620186a06107538584611101565b61075d9190611136565b9998505050505050505050565b60008281526020819052604090206001015461078581610805565b6104df8383610896565b600154604051630a8d85f760e41b81526060916001600160a01b03169063a8d85f70906107c090859060040161114a565b600060405180830381865afa1580156107dd573d6000803e3d6000fd5b505050506040513d6000823e601f3d908101601f191682016040526102829190810190611327565b61080f8133610ab1565b50565b61081c8282610596565b610516576000828152602081815260408083206001600160a01b03851684529091529020805460ff191660011790556108523390565b6001600160a01b0316816001600160a01b0316837f2f8788117e7eff1d82e926ec794901d17c78024a50270940304540a733656f0d60405160405180910390a45050565b6108a08282610596565b15610516576000828152602081815260408083206001600160a01b0385168085529252808320805460ff1916905551339285917ff6391f5c32d9c69d2a47ea670b442974b53935d1edc7fd64eb21e047a839171b9190a45050565b6040805160a08082018352600080835260208301819052828401819052606083018190526080830152600154835163a1aab33f60e01b8152935192936001600160a01b039091169263a1aab33f926004808401939192918290030181865afa15801561096b573d6000803e3d6000fd5b505050506040513d601f19601f8201168201806040525081019061066f91906113f3565b60008061099a6108fb565b90506000600160009054906101000a90046001600160a01b03166001600160a01b0316634b1d29b46040518163ffffffff1660e01b8152600401602060405180830381865afa1580156109f1573d6000803e3d6000fd5b505050506040513d601f19601f82011682018060405250810190610a159190611414565b67ffffffffffffffff16905084808510610a355760009350505050610282565b6000610a418683610f59565b9050828185606001518660400151610a599190611435565b8660800151610a689190611455565b63ffffffff16610a789190611101565b610a829190611136565b84606001518560800151610a969190611455565b63ffffffff16610aa69190611043565b979650505050505050565b610abb8282610596565b61051657610ad3816001600160a01b03166014610b15565b610ade836020610b15565b604051602001610aef9291906114c9565b60408051601f198184030181529082905262461bcd60e51b82526102f99160040161154d565b60606000610b24836002611101565b610b2f906002611043565b67ffffffffffffffff811115610b4757610b47611158565b6040519080825280601f01601f191660200182016040528015610b71576020820181803683370190505b509050600360fc1b81600081518110610b8c57610b8c610f6c565b60200101906001600160f81b031916908160001a905350600f60fb1b81600181518110610bbb57610bbb610f6c565b60200101906001600160f81b031916908160001a9053506000610bdf846002611101565b610bea906001611043565b90505b6001811115610c62576f181899199a1a9b1b9c1cb0b131b232b360811b85600f1660108110610c1e57610c1e610f6c565b1a60f81b828281518110610c3457610c34610f6c565b60200101906001600160f81b031916908160001a90535060049490941c93610c5b8161155e565b9050610bed565b508315610c815760405162461bcd60e51b81526004016102f9906115a7565b9392505050565b6001600160e01b031981165b811461080f57600080fd5b803561028281610c88565b600060208284031215610cbf57610cbf600080fd5b6000610ccb8484610c9f565b949350505050565b8015155b82525050565b602081016102828284610cd3565b60006001600160a01b038216610282565b610c9481610ceb565b803561028281610cfc565b600060208284031215610d2557610d25600080fd5b6000610ccb8484610d05565b80610cd7565b602081016102828284610d31565b80610c94565b803561028281610d45565b60008060408385031215610d6c57610d6c600080fd5b6000610d788585610d05565b9250506020610d8985828601610d4b565b9150509250929050565b6001600160801b038116610cd7565b67ffffffffffffffff8116610cd7565b610cd781610ceb565b60a08101610dc98288610d93565b610dd66020830187610d93565b610de36040830186610da2565b610df06060830185610db2565b610dfd6080830184610d31565b9695505050505050565b805160a0830190610e188482610d93565b506020820151610e2b6020850182610d93565b506040820151610e3e6040850182610da2565b506060820151610e516060850182610db2565b506080820151610e646080850182610d31565b50505050565b60a081016102828284610e07565b60008060408385031215610e8e57610e8e600080fd5b6000610e9a8585610d4b565b9250506020610d8985828601610d05565b600060208284031215610ec057610ec0600080fd5b6000610ccb8484610d4b565b63ffffffff8116610cd7565b805160a0830190610ee98482610ecc565b506020820151610efc6020850182610ecc565b506040820151610f0f6040850182610ecc565b506060820151610f226060850182610ecc565b506080820151610e646080850182610ecc565b60a081016102828284610ed8565b634e487b7160e01b600052601160045260246000fd5b8181038181111561028257610282610f43565b634e487b7160e01b600052603260045260246000fd5b600c81526000602082016b0deeae840decc40d2dcc8caf60a31b815291505b5060200190565b6020808252810161028281610f82565b601081526000602082016f06c6f636b49642063616e7420626520360841b81529150610fa1565b6020808252810161028281610fb8565b60608101610ffd8286610d31565b61100a6020830185610db2565b610ccb6040830184610d31565b805161028281610d45565b60006020828403121561103757611037600080fd5b6000610ccb8484611017565b8082018082111561028257610282610f43565b6000600019820361106957611069610f43565b5060010190565b6020808252810161028281602f81527f416363657373436f6e74726f6c3a2063616e206f6e6c792072656e6f756e636560208201526e103937b632b9903337b91039b2b63360891b604082015260600190565b60178152600060208201766c6f636b206f70656e65642c206e6f2070656e616c747960481b81529150610fa1565b60208082528101610282816110c3565b600081600019048311821515161561111b5761111b610f43565b500290565b634e487b7160e01b600052601260045260246000fd5b60008261114557611145611120565b500490565b602081016102828284610db2565b634e487b7160e01b600052604160045260246000fd5b601f19601f830116810181811067ffffffffffffffff8211171561119457611194611158565b6040525050565b60006111a660405190565b90506111b2828261116e565b919050565b600067ffffffffffffffff8211156111d1576111d1611158565b5060209081020190565b6001600160801b038116610c94565b8051610282816111db565b67ffffffffffffffff8116610c94565b8051610282816111f5565b805161028281610cfc565b600060a0828403121561123057611230600080fd5b61123a60a061119b565b9050600061124884846111ea565b8252506020611259848483016111ea565b602083015250604061126d84828501611205565b604083015250606061128184828501611210565b606083015250608061129584828501611017565b60808301525092915050565b60006112b46112af846111b7565b61119b565b83815290506020810160a084028301858111156112d3576112d3600080fd5b835b818110156112f957806112e8888261121b565b84525060209092019160a0016112d5565b5050509392505050565b600082601f83011261131757611317600080fd5b8151610ccb8482602086016112a1565b60006020828403121561133c5761133c600080fd5b815167ffffffffffffffff81111561135657611356600080fd5b610ccb84828501611303565b63ffffffff8116610c94565b805161028281611362565b600060a0828403121561138e5761138e600080fd5b61139860a061119b565b905060006113a6848461136e565b82525060206113b78484830161136e565b60208301525060406113cb8482850161136e565b60408301525060606113df8482850161136e565b60608301525060806112958482850161136e565b600060a0828403121561140857611408600080fd5b6000610ccb8484611379565b60006020828403121561142957611429600080fd5b6000610ccb8484611205565b63ffffffff91821691908116908282039081111561028257610282610f43565b600063ffffffff8216915063ffffffff831692508163ffffffff048311821515161561111b5761111b610f43565b60005b8381101561149e578181015183820152602001611486565b50506000910152565b60006114b1825190565b6114bf818560208601611483565b9290920192915050565b76020b1b1b2b9b9a1b7b73a3937b61d1030b1b1b7bab73a1604d1b815260170160006114f582856114a7565b7001034b99036b4b9b9b4b733903937b6329607d1b81526011019150610ccb82846114a7565b6000611525825190565b80845260208401935061153c818560208601611483565b601f01601f19169290920192915050565b60208082528101610c81818461151b565b60008161156d5761156d610f43565b506000190190565b60208082527f537472696e67733a20686578206c656e67746820696e73756666696369656e7491019081526000610fa1565b602080825281016102828161157556fea26469706673582212204e48f187a14fc087bfc05c5038adcb3bea82ef36fbf3c696ccd1528d13daf3fc64736f6c63430008100033",
    "immutableReferences": {},
    "source": "// Copyright SECURRENCY INC.\n// SPDX-License-Identifier: AGPL 3.0\npragma solidity 0.8.16;\n\nimport \"./IStakingHelper.sol\";\nimport \"./IStakingGetterHelper.sol\";\nimport \"../interfaces/IStakingGetter.sol\";\nimport \"../StakingStructs.sol\";\nimport \"../../../common/access/AccessControl.sol\";\n\ncontract StakingGettersHelper is IStakingGetterHelper, AccessControl {\n    address private stakingContract;\n    //uint256 public constant WEIGHT_SLOT = 14; // the storage slot in staking contract where WEIGHT resides\n    constructor(address _stakingContract, address admin) {\n        stakingContract = _stakingContract;\n        _grantRole(DEFAULT_ADMIN_ROLE, admin);\n    }\n\n    function getLockInfo(address account, uint256 lockId) public view override returns (LockedBalance memory) {\n        LockedBalance[] memory locks = _getAllLocks(account);\n        require(lockId <= locks.length, \"out of index\");\n        require(lockId > 0, \"lockId cant be 0\");\n        return locks[lockId - 1];\n    }\n\n    function getLocksLength(address account) public view override returns (uint256) {\n        LockedBalance[] memory locks = _getAllLocks(account);\n        return locks.length;\n    }\n    function getWeight() public view override returns (Weight memory) {\n        return _getWeight();\n    }\n\n    function getLock(address account, uint256 lockId)\n        public\n        view\n        override\n        returns (\n            uint128,\n            uint128,\n            uint64,\n            address,\n            uint256\n        )\n    {\n        LockedBalance[] memory locks = _getAllLocks(account);\n        LockedBalance memory lock = locks[lockId - 1];\n        require(lockId <= locks.length, \"out of index\");\n        require(lockId > 0, \"lockId cant be 0\");\n        return (lock.amountOfToken, lock.positionStreamShares, lock.end, lock.owner,lock.amountOfVoteToken);\n    }\n\n    function getUserTotalDeposit(address account) public view override returns (uint256) {\n        LockedBalance[] memory locks = _getAllLocks(account);\n        if (locks.length == 0) {\n            return 0;\n        }\n        uint256 totalDeposit = 0;\n        for (uint256 lockId = 1; lockId <= locks.length; lockId++) {\n            totalDeposit += locks[lockId - 1].amountOfToken;\n        }\n        return totalDeposit;\n    }\n\n    function getStreamClaimableAmount(uint256 streamId, address account) public view override returns (uint256) {\n        LockedBalance[] memory locks = _getAllLocks(account);\n        if (locks.length == 0) {\n            return 0;\n        }\n        uint256 totalRewards = 0;\n        for (uint256 lockId = 1; lockId <= locks.length; lockId++) {\n            totalRewards += IStakingHelper(stakingContract).getStreamClaimableAmountPerLock(streamId, account, lockId);\n        }\n        return totalRewards;\n    }\n\n    function getUserTotalVotes(address account) public view override returns (uint256) {\n        LockedBalance[] memory locks = _getAllLocks(account);\n        if (locks.length == 0) {\n            return 0;\n        }\n        uint256 totalVotes = 0;\n        for (uint256 lockId = 1; lockId <= locks.length; lockId++) {\n            totalVotes += locks[lockId - 1].amountOfVoteToken;\n        }\n        return totalVotes;\n    }\n\n    function getFeesForEarlyUnlock(uint256 lockId, address account) public view override returns (uint256) {\n        LockedBalance[] memory locks = _getAllLocks(account);\n        require(lockId <= locks.length, \"out of index\");\n        LockedBalance memory lock = locks[lockId - 1];\n        require(lockId > 0, \"lockId cant be 0\");\n        require(lock.end > block.timestamp, \"lock opened, no penalty\");\n\n        uint256 amount = lock.amountOfToken;\n        uint256 lockEnd = lock.end;\n        uint256 weighingCoef = _weightedPenalty(lockEnd, block.timestamp);\n        uint256 penalty = (weighingCoef * amount) / 100000;\n        return penalty;\n    }\n\n\n    \n    function _getAllLocks(address account) internal view returns(LockedBalance[] memory) {\n        return IStakingHelper(stakingContract).getAllLocks(account);\n    }\n    function _weightedPenalty(uint256 lockEnd, uint256 timestamp) internal view returns (uint256) {\n        Weight memory weight = _getWeight();\n        uint256 maxLockPeriod = IStakingHelper(stakingContract).maxLockPeriod();\n        uint256 slopeStart = lockEnd;\n        if (timestamp >= slopeStart) return 0;\n        uint256 remainingTime = slopeStart - timestamp;\n\n        //why weight multiplier: Because if a person remaining time is less than 12 hours, the calculation\n        //would only give minWeightPenalty, because 2900 * 12hours/4days = 0\n        return (weight.penaltyWeightMultiplier *\n            weight.minWeightPenalty +\n            (weight.penaltyWeightMultiplier * (weight.maxWeightPenalty - weight.minWeightPenalty) * remainingTime) /\n            maxLockPeriod);\n    }\n    function _getWeight() internal view returns (Weight memory) {\n        //bytes32 weight = IStakingHelper(stakingContract).readBySlot(WEIGHT_SLOT);\n        // uint32 penaltyWeightMultiplier;\n        // uint32 minWeightPenalty;\n        // uint32 maxWeightPenalty;\n        // uint32 minWeightShares;\n        // uint32 maxWeightShares; \n        // assembly {\n        //     let value := weight\n        //     maxWeightShares := and(0xffffffff, value)\n        //     //shift right by 32 then, do and by 32 bits to get the value\n        //     let  minWeightShares_shifted:= shr(32,value)\n        //     minWeightShares := and(0xffffffff, minWeightShares_shifted)\n        //     //shift right by 64 then, do and by 32 bits to get the value\n        //     let maxWeightPenalty_shifted := shr(64,value)\n        //     maxWeightPenalty := and(0xffffffff, maxWeightPenalty_shifted)\n        //     //shift right by 96 then, do and by 32 bits to get the value\n        //     let minWeightPenalty_shifted := shr(96,value)\n        //     minWeightPenalty := and(0xffffffff, minWeightPenalty_shifted)\n        //     //shift right by 128 then, do and by 32 bits to get the value\n        //     let penaltyWeightMultiplier_shifted := shr(128,value)\n        //     penaltyWeightMultiplier := and(0xffffffff, penaltyWeightMultiplier_shifted)\n        // }\n        \n           return IStakingStorage(stakingContract).weight();\n    }\n}\n",
    "sourcePath": "/Users/subiksinghshrestha/Documents/FATHOM/fathom-dao-smart-contracts/contracts/dao/staking/helpers/StakingGettersHelper.sol",
    "compiler": {
        "name": "solc",
        "version": "0.8.16+commit.07a7930e.Darwin.appleclang"
    },
    "schemaVersion": "3.4.10",
    "updatedAt": "2023-02-17T07:32:42.631Z",
    "devdoc": {
        "kind": "dev",
        "methods": {
            "getRoleAdmin(bytes32)": {
                "details": "Returns the admin role that controls `role`. See {grantRole} and {revokeRole}. To change a role's admin, use {_setRoleAdmin}."
            },
            "grantRole(bytes32,address)": {
                "details": "Grants `role` to `account`. If `account` had not been already granted `role`, emits a {RoleGranted} event. Requirements: - the caller must have ``role``'s admin role. May emit a {RoleGranted} event."
            },
            "hasRole(bytes32,address)": {
                "details": "Returns `true` if `account` has been granted `role`."
            },
            "renounceRole(bytes32,address)": {
                "details": "Revokes `role` from the calling account. Roles are often managed via {grantRole} and {revokeRole}: this function's purpose is to provide a mechanism for accounts to lose their privileges if they are compromised (such as when a trusted device is misplaced). If the calling account had been revoked `role`, emits a {RoleRevoked} event. Requirements: - the caller must be `account`. May emit a {RoleRevoked} event."
            },
            "revokeRole(bytes32,address)": {
                "details": "Revokes `role` from `account`. If `account` had been granted `role`, emits a {RoleRevoked} event. Requirements: - the caller must have ``role``'s admin role. May emit a {RoleRevoked} event."
            },
            "supportsInterface(bytes4)": {
                "details": "See {IERC165-supportsInterface}."
            }
        },
        "version": 1
    },
    "userdoc": {
        "kind": "user",
        "methods": {},
        "version": 1
    }
}