{
    "contractName": "StakingPackage",
    "abi": [
        {
            "inputs": [],
            "name": "AlreadyInitialized",
            "type": "error"
        },
        {
            "inputs": [],
            "name": "BadIndexError",
            "type": "error"
        },
        {
            "inputs": [],
            "name": "BadMaxLockPositions",
            "type": "error"
        },
        {
            "inputs": [],
            "name": "BadRewardsAmount",
            "type": "error"
        },
        {
            "inputs": [],
            "name": "BadStart",
            "type": "error"
        },
        {
            "inputs": [],
            "name": "ClaimingOfRewardsUnfeasibleForLockWithoutEarlyWithdraw",
            "type": "error"
        },
        {
            "inputs": [],
            "name": "EarlyWithdrawalInfeasible",
            "type": "error"
        },
        {
            "inputs": [],
            "name": "InactiveStreamError",
            "type": "error"
        },
        {
            "inputs": [],
            "name": "IncorrectWeight",
            "type": "error"
        },
        {
            "inputs": [],
            "name": "InsufficientRewardsError",
            "type": "error"
        },
        {
            "inputs": [],
            "name": "InvalidPenaltyWeights",
            "type": "error"
        },
        {
            "inputs": [],
            "name": "InvalidShareWeights",
            "type": "error"
        },
        {
            "inputs": [],
            "name": "LockAlreadyOpen",
            "type": "error"
        },
        {
            "inputs": [],
            "name": "LockNotClosed",
            "type": "error"
        },
        {
            "inputs": [],
            "name": "LockNotExpired",
            "type": "error"
        },
        {
            "inputs": [
                {
                    "internalType": "uint256",
                    "name": "_lockId",
                    "type": "uint256"
                },
                {
                    "internalType": "address",
                    "name": "_account",
                    "type": "address"
                }
            ],
            "name": "MaxLockIdExceeded",
            "type": "error"
        },
        {
            "inputs": [],
            "name": "MaxLockPeriodExceeded",
            "type": "error"
        },
        {
            "inputs": [],
            "name": "MaxLockPositionsReached",
            "type": "error"
        },
        {
            "inputs": [],
            "name": "MinLockPeriodNotMet",
            "type": "error"
        },
        {
            "inputs": [],
            "name": "NoActiveStream",
            "type": "error"
        },
        {
            "inputs": [],
            "name": "NoLockError",
            "type": "error"
        },
        {
            "inputs": [],
            "name": "NoLocks",
            "type": "error"
        },
        {
            "inputs": [],
            "name": "NoPendings",
            "type": "error"
        },
        {
            "inputs": [],
            "name": "NoSharesError",
            "type": "error"
        },
        {
            "inputs": [],
            "name": "NoStakeError",
            "type": "error"
        },
        {
            "inputs": [],
            "name": "NotLockOwner",
            "type": "error"
        },
        {
            "inputs": [],
            "name": "NotOwner",
            "type": "error"
        },
        {
            "inputs": [],
            "name": "NotPaused",
            "type": "error"
        },
        {
            "inputs": [],
            "name": "NotProposed",
            "type": "error"
        },
        {
            "inputs": [],
            "name": "NotReleased",
            "type": "error"
        },
        {
            "inputs": [],
            "name": "ProposalExpired",
            "type": "error"
        },
        {
            "inputs": [],
            "name": "RewardsTooHigh",
            "type": "error"
        },
        {
            "inputs": [],
            "name": "RewardsTooLow",
            "type": "error"
        },
        {
            "inputs": [],
            "name": "StreamIdZero",
            "type": "error"
        },
        {
            "inputs": [],
            "name": "StreamInactive",
            "type": "error"
        },
        {
            "inputs": [],
            "name": "StreamInactiveError",
            "type": "error"
        },
        {
            "inputs": [],
            "name": "StreamNotWithdrawn",
            "type": "error"
        },
        {
            "inputs": [],
            "name": "UnsupportedToken",
            "type": "error"
        },
        {
            "inputs": [
                {
                    "internalType": "address",
                    "name": "_vault",
                    "type": "address"
                }
            ],
            "name": "VaultMigrated",
            "type": "error"
        },
        {
            "inputs": [
                {
                    "internalType": "address",
                    "name": "_vault",
                    "type": "address"
                }
            ],
            "name": "VaultNotMigrated",
            "type": "error"
        },
        {
            "inputs": [
                {
                    "internalType": "address",
                    "name": "_vault",
                    "type": "address"
                }
            ],
            "name": "VaultNotSupported",
            "type": "error"
        },
        {
            "inputs": [],
            "name": "ZeroAddress",
            "type": "error"
        },
        {
            "inputs": [],
            "name": "ZeroAmount",
            "type": "error"
        },
        {
            "inputs": [],
            "name": "ZeroCoefficient",
            "type": "error"
        },
        {
            "inputs": [],
            "name": "ZeroLockId",
            "type": "error"
        },
        {
            "inputs": [
                {
                    "internalType": "uint256",
                    "name": "lockId",
                    "type": "uint256"
                }
            ],
            "name": "ZeroLocked",
            "type": "error"
        },
        {
            "inputs": [],
            "name": "ZeroPenalty",
            "type": "error"
        },
        {
            "inputs": [],
            "name": "ZeroTotalStakedToken",
            "type": "error"
        },
        {
            "anonymous": false,
            "inputs": [
                {
                    "indexed": false,
                    "internalType": "uint8",
                    "name": "version",
                    "type": "uint8"
                }
            ],
            "name": "Initialized",
            "type": "event"
        },
        {
            "anonymous": false,
            "inputs": [
                {
                    "indexed": true,
                    "internalType": "address",
                    "name": "account",
                    "type": "address"
                },
                {
                    "indexed": false,
                    "internalType": "uint256",
                    "name": "amount",
                    "type": "uint256"
                },
                {
                    "indexed": true,
                    "internalType": "uint256",
                    "name": "lockId",
                    "type": "uint256"
                }
            ],
            "name": "PartialUnstaked",
            "type": "event"
        },
        {
            "anonymous": false,
            "inputs": [
                {
                    "indexed": true,
                    "internalType": "uint256",
                    "name": "streamId",
                    "type": "uint256"
                },
                {
                    "indexed": true,
                    "internalType": "address",
                    "name": "account",
                    "type": "address"
                },
                {
                    "indexed": false,
                    "internalType": "uint256",
                    "name": "pendings",
                    "type": "uint256"
                }
            ],
            "name": "Pending",
            "type": "event"
        },
        {
            "anonymous": false,
            "inputs": [
                {
                    "indexed": true,
                    "internalType": "uint256",
                    "name": "streamId",
                    "type": "uint256"
                },
                {
                    "indexed": true,
                    "internalType": "address",
                    "name": "user",
                    "type": "address"
                },
                {
                    "indexed": false,
                    "internalType": "uint256",
                    "name": "pendingAmount",
                    "type": "uint256"
                }
            ],
            "name": "Released",
            "type": "event"
        },
        {
            "anonymous": false,
            "inputs": [
                {
                    "indexed": true,
                    "internalType": "bytes32",
                    "name": "role",
                    "type": "bytes32"
                },
                {
                    "indexed": true,
                    "internalType": "bytes32",
                    "name": "previousAdminRole",
                    "type": "bytes32"
                },
                {
                    "indexed": true,
                    "internalType": "bytes32",
                    "name": "newAdminRole",
                    "type": "bytes32"
                }
            ],
            "name": "RoleAdminChanged",
            "type": "event"
        },
        {
            "anonymous": false,
            "inputs": [
                {
                    "indexed": true,
                    "internalType": "bytes32",
                    "name": "role",
                    "type": "bytes32"
                },
                {
                    "indexed": true,
                    "internalType": "address",
                    "name": "account",
                    "type": "address"
                },
                {
                    "indexed": true,
                    "internalType": "address",
                    "name": "sender",
                    "type": "address"
                }
            ],
            "name": "RoleGranted",
            "type": "event"
        },
        {
            "anonymous": false,
            "inputs": [
                {
                    "indexed": true,
                    "internalType": "bytes32",
                    "name": "role",
                    "type": "bytes32"
                },
                {
                    "indexed": true,
                    "internalType": "address",
                    "name": "account",
                    "type": "address"
                },
                {
                    "indexed": true,
                    "internalType": "address",
                    "name": "sender",
                    "type": "address"
                }
            ],
            "name": "RoleRevoked",
            "type": "event"
        },
        {
            "anonymous": false,
            "inputs": [
                {
                    "indexed": true,
                    "internalType": "address",
                    "name": "account",
                    "type": "address"
                },
                {
                    "indexed": false,
                    "internalType": "uint256",
                    "name": "amount",
                    "type": "uint256"
                },
                {
                    "indexed": false,
                    "internalType": "uint256",
                    "name": "streamShares",
                    "type": "uint256"
                },
                {
                    "indexed": false,
                    "internalType": "uint256",
                    "name": "nVoteToken",
                    "type": "uint256"
                },
                {
                    "indexed": true,
                    "internalType": "uint256",
                    "name": "lockId",
                    "type": "uint256"
                },
                {
                    "indexed": false,
                    "internalType": "uint256",
                    "name": "end",
                    "type": "uint256"
                }
            ],
            "name": "Staked",
            "type": "event"
        },
        {
            "anonymous": false,
            "inputs": [
                {
                    "indexed": true,
                    "internalType": "uint256",
                    "name": "streamId",
                    "type": "uint256"
                },
                {
                    "indexed": true,
                    "internalType": "address",
                    "name": "owner",
                    "type": "address"
                },
                {
                    "indexed": true,
                    "internalType": "address",
                    "name": "token",
                    "type": "address"
                },
                {
                    "indexed": false,
                    "internalType": "uint256",
                    "name": "tau",
                    "type": "uint256"
                }
            ],
            "name": "StreamCreated",
            "type": "event"
        },
        {
            "anonymous": false,
            "inputs": [
                {
                    "indexed": true,
                    "internalType": "uint256",
                    "name": "streamId",
                    "type": "uint256"
                },
                {
                    "indexed": true,
                    "internalType": "address",
                    "name": "owner",
                    "type": "address"
                },
                {
                    "indexed": true,
                    "internalType": "address",
                    "name": "token",
                    "type": "address"
                }
            ],
            "name": "StreamProposalCancelled",
            "type": "event"
        },
        {
            "anonymous": false,
            "inputs": [
                {
                    "indexed": true,
                    "internalType": "uint256",
                    "name": "streamId",
                    "type": "uint256"
                },
                {
                    "indexed": true,
                    "internalType": "address",
                    "name": "streamOwner",
                    "type": "address"
                },
                {
                    "indexed": true,
                    "internalType": "address",
                    "name": "rewardToken",
                    "type": "address"
                },
                {
                    "indexed": false,
                    "internalType": "uint256",
                    "name": "maxDepositAmount",
                    "type": "uint256"
                }
            ],
            "name": "StreamProposed",
            "type": "event"
        },
        {
            "anonymous": false,
            "inputs": [
                {
                    "indexed": true,
                    "internalType": "uint256",
                    "name": "streamId",
                    "type": "uint256"
                },
                {
                    "indexed": true,
                    "internalType": "address",
                    "name": "owner",
                    "type": "address"
                },
                {
                    "indexed": true,
                    "internalType": "address",
                    "name": "token",
                    "type": "address"
                }
            ],
            "name": "StreamRemoved",
            "type": "event"
        },
        {
            "anonymous": false,
            "inputs": [
                {
                    "indexed": true,
                    "internalType": "address",
                    "name": "account",
                    "type": "address"
                },
                {
                    "indexed": false,
                    "internalType": "uint256",
                    "name": "amount",
                    "type": "uint256"
                },
                {
                    "indexed": true,
                    "internalType": "uint256",
                    "name": "lockId",
                    "type": "uint256"
                }
            ],
            "name": "Unstaked",
            "type": "event"
        },
        {
            "inputs": [],
            "name": "DEFAULT_ADMIN_ROLE",
            "outputs": [
                {
                    "internalType": "bytes32",
                    "name": "",
                    "type": "bytes32"
                }
            ],
            "stateMutability": "view",
            "type": "function"
        },
        {
            "inputs": [],
            "name": "PAUSE_ROLE",
            "outputs": [
                {
                    "internalType": "bytes32",
                    "name": "",
                    "type": "bytes32"
                }
            ],
            "stateMutability": "view",
            "type": "function"
        },
        {
            "inputs": [],
            "name": "STREAM_MANAGER_ROLE",
            "outputs": [
                {
                    "internalType": "bytes32",
                    "name": "",
                    "type": "bytes32"
                }
            ],
            "stateMutability": "view",
            "type": "function"
        },
        {
            "inputs": [],
            "name": "TREASURY_ROLE",
            "outputs": [
                {
                    "internalType": "bytes32",
                    "name": "",
                    "type": "bytes32"
                }
            ],
            "stateMutability": "view",
            "type": "function"
        },
        {
            "inputs": [
                {
                    "internalType": "uint256",
                    "name": "flags",
                    "type": "uint256"
                }
            ],
            "name": "adminPause",
            "outputs": [],
            "stateMutability": "nonpayable",
            "type": "function"
        },
        {
            "inputs": [
                {
                    "internalType": "uint256",
                    "name": "streamId",
                    "type": "uint256"
                }
            ],
            "name": "cancelStreamProposal",
            "outputs": [],
            "stateMutability": "nonpayable",
            "type": "function"
        },
        {
            "inputs": [
                {
                    "internalType": "uint256",
                    "name": "streamId",
                    "type": "uint256"
                }
            ],
            "name": "claimAllLockRewardsForStream",
            "outputs": [],
            "stateMutability": "nonpayable",
            "type": "function"
        },
        {
            "inputs": [
                {
                    "internalType": "uint256",
                    "name": "lockId",
                    "type": "uint256"
                }
            ],
            "name": "claimAllStreamRewardsForLock",
            "outputs": [],
            "stateMutability": "nonpayable",
            "type": "function"
        },
        {
            "inputs": [
                {
                    "components": [
                        {
                            "internalType": "uint256",
                            "name": "amount",
                            "type": "uint256"
                        },
                        {
                            "internalType": "uint256",
                            "name": "lockPeriod",
                            "type": "uint256"
                        },
                        {
                            "internalType": "address",
                            "name": "account",
                            "type": "address"
                        }
                    ],
                    "internalType": "struct CreateLockParams[]",
                    "name": "lockPositions",
                    "type": "tuple[]"
                }
            ],
            "name": "createFixedLocksOnBehalfOfUserByAdmin",
            "outputs": [],
            "stateMutability": "nonpayable",
            "type": "function"
        },
        {
            "inputs": [
                {
                    "internalType": "uint256",
                    "name": "amount",
                    "type": "uint256"
                },
                {
                    "internalType": "uint256",
                    "name": "lockPeriod",
                    "type": "uint256"
                }
            ],
            "name": "createLock",
            "outputs": [],
            "stateMutability": "nonpayable",
            "type": "function"
        },
        {
            "inputs": [
                {
                    "internalType": "uint256",
                    "name": "streamId",
                    "type": "uint256"
                },
                {
                    "internalType": "uint256",
                    "name": "rewardTokenAmount",
                    "type": "uint256"
                }
            ],
            "name": "createStream",
            "outputs": [],
            "stateMutability": "nonpayable",
            "type": "function"
        },
        {
            "inputs": [
                {
                    "internalType": "uint256",
                    "name": "lockId",
                    "type": "uint256"
                }
            ],
            "name": "earlyUnlock",
            "outputs": [],
            "stateMutability": "nonpayable",
            "type": "function"
        },
        {
            "inputs": [],
            "name": "emergencyUnlockAndWithdraw",
            "outputs": [],
            "stateMutability": "nonpayable",
            "type": "function"
        },
        {
            "inputs": [
                {
                    "internalType": "address",
                    "name": "account",
                    "type": "address"
                }
            ],
            "name": "getAllLocks",
            "outputs": [
                {
                    "components": [
                        {
                            "internalType": "uint128",
                            "name": "amountOfToken",
                            "type": "uint128"
                        },
                        {
                            "internalType": "uint128",
                            "name": "positionStreamShares",
                            "type": "uint128"
                        },
                        {
                            "internalType": "uint64",
                            "name": "end",
                            "type": "uint64"
                        },
                        {
                            "internalType": "address",
                            "name": "owner",
                            "type": "address"
                        },
                        {
                            "internalType": "uint256",
                            "name": "amountOfVoteToken",
                            "type": "uint256"
                        }
                    ],
                    "internalType": "struct LockedBalance[]",
                    "name": "",
                    "type": "tuple[]"
                }
            ],
            "stateMutability": "view",
            "type": "function"
        },
        {
            "inputs": [
                {
                    "internalType": "bytes32",
                    "name": "role",
                    "type": "bytes32"
                }
            ],
            "name": "getRoleAdmin",
            "outputs": [
                {
                    "internalType": "bytes32",
                    "name": "",
                    "type": "bytes32"
                }
            ],
            "stateMutability": "view",
            "type": "function"
        },
        {
            "inputs": [
                {
                    "internalType": "uint256",
                    "name": "streamId",
                    "type": "uint256"
                }
            ],
            "name": "getStream",
            "outputs": [
                {
                    "internalType": "uint256",
                    "name": "rewardDepositAmount",
                    "type": "uint256"
                },
                {
                    "internalType": "uint256",
                    "name": "rewardClaimedAmount",
                    "type": "uint256"
                },
                {
                    "internalType": "uint256",
                    "name": "rps",
                    "type": "uint256"
                },
                {
                    "internalType": "enum StreamStatus",
                    "name": "status",
                    "type": "uint8"
                }
            ],
            "stateMutability": "view",
            "type": "function"
        },
        {
            "inputs": [
                {
                    "internalType": "uint256",
                    "name": "streamId",
                    "type": "uint256"
                },
                {
                    "internalType": "address",
                    "name": "account",
                    "type": "address"
                },
                {
                    "internalType": "uint256",
                    "name": "lockId",
                    "type": "uint256"
                }
            ],
            "name": "getStreamClaimableAmountPerLock",
            "outputs": [
                {
                    "internalType": "uint256",
                    "name": "",
                    "type": "uint256"
                }
            ],
            "stateMutability": "view",
            "type": "function"
        },
        {
            "inputs": [
                {
                    "internalType": "uint256",
                    "name": "streamId",
                    "type": "uint256"
                }
            ],
            "name": "getStreamSchedule",
            "outputs": [
                {
                    "internalType": "uint256[]",
                    "name": "scheduleTimes",
                    "type": "uint256[]"
                },
                {
                    "internalType": "uint256[]",
                    "name": "scheduleRewards",
                    "type": "uint256[]"
                }
            ],
            "stateMutability": "view",
            "type": "function"
        },
        {
            "inputs": [
                {
                    "internalType": "address",
                    "name": "account",
                    "type": "address"
                },
                {
                    "internalType": "uint256",
                    "name": "streamId",
                    "type": "uint256"
                }
            ],
            "name": "getUsersPendingRewards",
            "outputs": [
                {
                    "internalType": "uint256",
                    "name": "",
                    "type": "uint256"
                }
            ],
            "stateMutability": "view",
            "type": "function"
        },
        {
            "inputs": [
                {
                    "internalType": "bytes32",
                    "name": "role",
                    "type": "bytes32"
                },
                {
                    "internalType": "address",
                    "name": "account",
                    "type": "address"
                }
            ],
            "name": "grantRole",
            "outputs": [],
            "stateMutability": "nonpayable",
            "type": "function"
        },
        {
            "inputs": [
                {
                    "internalType": "bytes32",
                    "name": "role",
                    "type": "bytes32"
                },
                {
                    "internalType": "address",
                    "name": "account",
                    "type": "address"
                }
            ],
            "name": "hasRole",
            "outputs": [
                {
                    "internalType": "bool",
                    "name": "",
                    "type": "bool"
                }
            ],
            "stateMutability": "view",
            "type": "function"
        },
        {
            "inputs": [
                {
                    "internalType": "address",
                    "name": "_owner",
                    "type": "address"
                },
                {
                    "internalType": "uint256[]",
                    "name": "scheduleTimes",
                    "type": "uint256[]"
                },
                {
                    "internalType": "uint256[]",
                    "name": "scheduleRewards",
                    "type": "uint256[]"
                },
                {
                    "internalType": "uint256",
                    "name": "tau",
                    "type": "uint256"
                }
            ],
            "name": "initializeMainStream",
            "outputs": [],
            "stateMutability": "nonpayable",
            "type": "function"
        },
        {
            "inputs": [
                {
                    "internalType": "address",
                    "name": "_admin",
                    "type": "address"
                },
                {
                    "internalType": "address",
                    "name": "_vault",
                    "type": "address"
                },
                {
                    "internalType": "address",
                    "name": "_treasury",
                    "type": "address"
                },
                {
                    "internalType": "address",
                    "name": "_mainToken",
                    "type": "address"
                },
                {
                    "internalType": "address",
                    "name": "_voteToken",
                    "type": "address"
                },
                {
                    "components": [
                        {
                            "internalType": "uint32",
                            "name": "maxWeightShares",
                            "type": "uint32"
                        },
                        {
                            "internalType": "uint32",
                            "name": "minWeightShares",
                            "type": "uint32"
                        },
                        {
                            "internalType": "uint32",
                            "name": "maxWeightPenalty",
                            "type": "uint32"
                        },
                        {
                            "internalType": "uint32",
                            "name": "minWeightPenalty",
                            "type": "uint32"
                        },
                        {
                            "internalType": "uint32",
                            "name": "penaltyWeightMultiplier",
                            "type": "uint32"
                        }
                    ],
                    "internalType": "struct Weight",
                    "name": "_weight",
                    "type": "tuple"
                },
                {
                    "components": [
                        {
                            "internalType": "uint32",
                            "name": "voteShareCoef",
                            "type": "uint32"
                        },
                        {
                            "internalType": "uint32",
                            "name": "voteLockCoef",
                            "type": "uint32"
                        }
                    ],
                    "internalType": "struct VoteCoefficient",
                    "name": "voteCoef",
                    "type": "tuple"
                },
                {
                    "internalType": "uint256",
                    "name": "_maxLocks",
                    "type": "uint256"
                },
                {
                    "internalType": "address",
                    "name": "_rewardsContract",
                    "type": "address"
                },
                {
                    "internalType": "uint256",
                    "name": "_minLockPeriod",
                    "type": "uint256"
                }
            ],
            "name": "initializeStaking",
            "outputs": [],
            "stateMutability": "nonpayable",
            "type": "function"
        },
        {
            "inputs": [
                {
                    "internalType": "uint256",
                    "name": "lockId",
                    "type": "uint256"
                },
                {
                    "internalType": "address",
                    "name": "account",
                    "type": "address"
                }
            ],
            "name": "isProhibitedLockPosition",
            "outputs": [
                {
                    "internalType": "bool",
                    "name": "",
                    "type": "bool"
                }
            ],
            "stateMutability": "view",
            "type": "function"
        },
        {
            "inputs": [],
            "name": "mainToken",
            "outputs": [
                {
                    "internalType": "address",
                    "name": "",
                    "type": "address"
                }
            ],
            "stateMutability": "view",
            "type": "function"
        },
        {
            "inputs": [],
            "name": "maxLockPeriod",
            "outputs": [
                {
                    "internalType": "uint256",
                    "name": "",
                    "type": "uint256"
                }
            ],
            "stateMutability": "view",
            "type": "function"
        },
        {
            "inputs": [],
            "name": "maxLockPositions",
            "outputs": [
                {
                    "internalType": "uint256",
                    "name": "",
                    "type": "uint256"
                }
            ],
            "stateMutability": "view",
            "type": "function"
        },
        {
            "inputs": [],
            "name": "minLockPeriod",
            "outputs": [
                {
                    "internalType": "uint256",
                    "name": "",
                    "type": "uint256"
                }
            ],
            "stateMutability": "view",
            "type": "function"
        },
        {
            "inputs": [],
            "name": "paused",
            "outputs": [
                {
                    "internalType": "uint256",
                    "name": "",
                    "type": "uint256"
                }
            ],
            "stateMutability": "view",
            "type": "function"
        },
        {
            "inputs": [
                {
                    "internalType": "address",
                    "name": "streamOwner",
                    "type": "address"
                },
                {
                    "internalType": "address",
                    "name": "rewardToken",
                    "type": "address"
                },
                {
                    "internalType": "uint256",
                    "name": "percentToTreasury",
                    "type": "uint256"
                },
                {
                    "internalType": "uint256",
                    "name": "maxDepositAmount",
                    "type": "uint256"
                },
                {
                    "internalType": "uint256",
                    "name": "minDepositAmount",
                    "type": "uint256"
                },
                {
                    "internalType": "uint256[]",
                    "name": "scheduleTimes",
                    "type": "uint256[]"
                },
                {
                    "internalType": "uint256[]",
                    "name": "scheduleRewards",
                    "type": "uint256[]"
                },
                {
                    "internalType": "uint256",
                    "name": "tau",
                    "type": "uint256"
                }
            ],
            "name": "proposeStream",
            "outputs": [],
            "stateMutability": "nonpayable",
            "type": "function"
        },
        {
            "inputs": [
                {
                    "internalType": "uint256",
                    "name": "streamId",
                    "type": "uint256"
                },
                {
                    "internalType": "address",
                    "name": "streamFundReceiver",
                    "type": "address"
                }
            ],
            "name": "removeStream",
            "outputs": [],
            "stateMutability": "nonpayable",
            "type": "function"
        },
        {
            "inputs": [
                {
                    "internalType": "bytes32",
                    "name": "role",
                    "type": "bytes32"
                },
                {
                    "internalType": "address",
                    "name": "account",
                    "type": "address"
                }
            ],
            "name": "renounceRole",
            "outputs": [],
            "stateMutability": "nonpayable",
            "type": "function"
        },
        {
            "inputs": [
                {
                    "internalType": "bytes32",
                    "name": "role",
                    "type": "bytes32"
                },
                {
                    "internalType": "address",
                    "name": "account",
                    "type": "address"
                }
            ],
            "name": "revokeRole",
            "outputs": [],
            "stateMutability": "nonpayable",
            "type": "function"
        },
        {
            "inputs": [],
            "name": "rewardsCalculator",
            "outputs": [
                {
                    "internalType": "address",
                    "name": "",
                    "type": "address"
                }
            ],
            "stateMutability": "view",
            "type": "function"
        },
        {
            "inputs": [
                {
                    "internalType": "uint256",
                    "name": "newMaxLockPositions",
                    "type": "uint256"
                }
            ],
            "name": "setMaxLockPositions",
            "outputs": [],
            "stateMutability": "nonpayable",
            "type": "function"
        },
        {
            "inputs": [
                {
                    "internalType": "uint256",
                    "name": "_minLockPeriod",
                    "type": "uint256"
                }
            ],
            "name": "setMinimumLockPeriod",
            "outputs": [],
            "stateMutability": "nonpayable",
            "type": "function"
        },
        {
            "inputs": [
                {
                    "internalType": "address",
                    "name": "newTreasury",
                    "type": "address"
                }
            ],
            "name": "setTreasuryAddress",
            "outputs": [],
            "stateMutability": "nonpayable",
            "type": "function"
        },
        {
            "inputs": [
                {
                    "internalType": "uint256",
                    "name": "",
                    "type": "uint256"
                }
            ],
            "name": "streamTotalUserPendings",
            "outputs": [
                {
                    "internalType": "uint256",
                    "name": "",
                    "type": "uint256"
                }
            ],
            "stateMutability": "view",
            "type": "function"
        },
        {
            "inputs": [
                {
                    "internalType": "bytes4",
                    "name": "interfaceId",
                    "type": "bytes4"
                }
            ],
            "name": "supportsInterface",
            "outputs": [
                {
                    "internalType": "bool",
                    "name": "",
                    "type": "bool"
                }
            ],
            "stateMutability": "view",
            "type": "function"
        },
        {
            "inputs": [],
            "name": "totalAmountOfStakedToken",
            "outputs": [
                {
                    "internalType": "uint256",
                    "name": "",
                    "type": "uint256"
                }
            ],
            "stateMutability": "view",
            "type": "function"
        },
        {
            "inputs": [],
            "name": "totalAmountOfVoteToken",
            "outputs": [
                {
                    "internalType": "uint256",
                    "name": "",
                    "type": "uint256"
                }
            ],
            "stateMutability": "view",
            "type": "function"
        },
        {
            "inputs": [],
            "name": "totalPenaltyBalance",
            "outputs": [
                {
                    "internalType": "uint256",
                    "name": "",
                    "type": "uint256"
                }
            ],
            "stateMutability": "view",
            "type": "function"
        },
        {
            "inputs": [],
            "name": "totalStreamShares",
            "outputs": [
                {
                    "internalType": "uint256",
                    "name": "",
                    "type": "uint256"
                }
            ],
            "stateMutability": "view",
            "type": "function"
        },
        {
            "inputs": [],
            "name": "treasury",
            "outputs": [
                {
                    "internalType": "address",
                    "name": "",
                    "type": "address"
                }
            ],
            "stateMutability": "view",
            "type": "function"
        },
        {
            "inputs": [
                {
                    "internalType": "uint256",
                    "name": "lockId",
                    "type": "uint256"
                }
            ],
            "name": "unlock",
            "outputs": [],
            "stateMutability": "nonpayable",
            "type": "function"
        },
        {
            "inputs": [
                {
                    "internalType": "uint256",
                    "name": "lockId",
                    "type": "uint256"
                },
                {
                    "internalType": "uint256",
                    "name": "amount",
                    "type": "uint256"
                }
            ],
            "name": "unlockPartially",
            "outputs": [],
            "stateMutability": "nonpayable",
            "type": "function"
        },
        {
            "inputs": [
                {
                    "internalType": "address",
                    "name": "_vault",
                    "type": "address"
                }
            ],
            "name": "updateVault",
            "outputs": [],
            "stateMutability": "nonpayable",
            "type": "function"
        },
        {
            "inputs": [
                {
                    "internalType": "address",
                    "name": "",
                    "type": "address"
                }
            ],
            "name": "users",
            "outputs": [
                {
                    "internalType": "uint256",
                    "name": "voteTokenBalance",
                    "type": "uint256"
                }
            ],
            "stateMutability": "view",
            "type": "function"
        },
        {
            "inputs": [],
            "name": "vault",
            "outputs": [
                {
                    "internalType": "address",
                    "name": "",
                    "type": "address"
                }
            ],
            "stateMutability": "view",
            "type": "function"
        },
        {
            "inputs": [],
            "name": "voteToken",
            "outputs": [
                {
                    "internalType": "address",
                    "name": "",
                    "type": "address"
                }
            ],
            "stateMutability": "view",
            "type": "function"
        },
        {
            "inputs": [],
            "name": "weight",
            "outputs": [
                {
                    "internalType": "uint32",
                    "name": "maxWeightShares",
                    "type": "uint32"
                },
                {
                    "internalType": "uint32",
                    "name": "minWeightShares",
                    "type": "uint32"
                },
                {
                    "internalType": "uint32",
                    "name": "maxWeightPenalty",
                    "type": "uint32"
                },
                {
                    "internalType": "uint32",
                    "name": "minWeightPenalty",
                    "type": "uint32"
                },
                {
                    "internalType": "uint32",
                    "name": "penaltyWeightMultiplier",
                    "type": "uint32"
                }
            ],
            "stateMutability": "view",
            "type": "function"
        },
        {
            "inputs": [],
            "name": "withdrawAllStreams",
            "outputs": [],
            "stateMutability": "nonpayable",
            "type": "function"
        },
        {
            "inputs": [],
            "name": "withdrawPenalty",
            "outputs": [],
            "stateMutability": "nonpayable",
            "type": "function"
        },
        {
            "inputs": [
                {
                    "internalType": "uint256",
                    "name": "streamId",
                    "type": "uint256"
                }
            ],
            "name": "withdrawStream",
            "outputs": [],
            "stateMutability": "nonpayable",
            "type": "function"
        }
    ],
    "bytecode": "0x60806040523480156200001157600080fd5b506200001c62000022565b62000112565b601554610100900460ff1615620000565760405162461bcd60e51b81526004016200004d90620000b0565b60405180910390fd5b60155460ff9081161015620000ae576015805460ff191660ff9081179091556040517f7f26b83ff96e1f2b6a682f133852f6798a09c465da95921460cefb384740249891620000a59162000102565b60405180910390a15b565b60208082528101620000fc81602781527f496e697469616c697a61626c653a20636f6e747261637420697320696e697469602082015266616c697a696e6760c81b604082015260600190565b92915050565b60ff8216815260208101620000fc565b615f5d80620001226000396000f3fe608060405234801561001057600080fd5b50600436106102e25760003560e01c80636db8e53d11610188578063a8d85f70116100e4578063d547741f11610092578063d547741f14610729578063ddcf3e291461073c578063e7563f3f1461074f578063eb6a971714610762578063f1807b701461076a578063f604037314610772578063fbfa77cf1461077b57600080fd5b8063a8d85f70146106a9578063b0abc981146106c9578063b52c05fe146106d2578063bd5cf8ff146106e5578063cedb6668146106ee578063cf04a19d14610701578063d11a57ec1461071457600080fd5b8063904033221161014157806390403322146105b657806391132812146105c957806391d1485414610603578063a1aab33f14610616578063a217fddf14610661578063a87430ba14610669578063a8cbd3c71461068957600080fd5b80636db8e53d1461053a57806370bc770c1461054357806373ae54b514610564578063894e9a0d1461056d5780638ca6ce11146105905780638d40bd03146105a357600080fd5b8063382a7193116102425780634b1d29b4116101f05780634b1d29b4146104c95780635c975abb146104d25780635f7461d6146104db5780636198e339146104ee57806361d027b3146105015780636605bfda146105145780636d878d101461052757600080fd5b8063382a719314610438578063389ed2671461044b5780633a3f1511146104725780633ba31abf1461047b5780633ea005c81461048e5780633fc15f15146104a3578063460f2ca0146104b657600080fd5b80631a1ce2fc1161029f5780631a1ce2fc146103a15780631d9755cb146103a9578063248a9ca3146103bc5780632692c59f146103ec5780632f2ff15d146103ff57806336085c511461041257806336568abe1461042557600080fd5b806301ffc9a7146102e75780630b881567146103105780630d91eb2e146103255780631194ebeb1461035b5780631556578b1461036e578063160d66ae14610381575b600080fd5b6102fa6102f5366004614dd8565b61078e565b6040516103079190614e03565b60405180910390f35b61032361031e366004614e77565b6107c5565b005b6102fa610333366004614f55565b6001600160a01b03166000908152600360209081526040808320938352929052205460ff1690565b610323610369366004614fe3565b6109d5565b61032361037c3660046150c1565b610dc0565b600c54610394906001600160a01b031681565b60405161030791906150eb565b610323610df4565b6103236103b73660046150f9565b610e7f565b6103df6103ca3660046150c1565b6000908152607a602052604090206001015490565b604051610307919061519f565b6103236103fa3660046150c1565b6112cc565b61032361040d366004614f55565b6112ff565b6103236104203660046150c1565b611329565b610323610433366004614f55565b611423565b6103236104463660046150c1565b611455565b6103df7f139c2898040ef16910dc9f44dc697df79363da767d8bc92f2e310312b816e46d81565b6103df60025481565b610323610489366004614f55565b611567565b6103df600080516020615ee883398151915281565b600b54610394906001600160a01b031681565b6103236104c43660046151f7565b61179f565b6103df60005481565b6103df60ac5481565b6103236104e93660046150c1565b6118b4565b6103236104fc3660046150c1565b611952565b600f54610394906001600160a01b031681565b61032361052236600461523e565b611a46565b600e54610394906001600160a01b031681565b6103df60065481565b6105566105513660046150c1565b611ad8565b6040516103079291906152bc565b6103df60015481565b61058061057b3660046150c1565b611bd6565b604051610307949392919061532a565b61032361059e36600461535f565b611c32565b6103236105b136600461535f565b611d2d565b6103236105c43660046150c1565b6120df565b6103df6105d7366004615392565b6001600160a01b0391909116600090815260116020908152604080832093835260019093019052205490565b6102fa610611366004614f55565b6121b1565b6010546106509063ffffffff80821691600160201b8104821691600160401b8204811691600160601b8104821691600160801b9091041685565b6040516103079594939291906153c0565b6103df600081565b6103df61067736600461523e565b60116020526000908152604090205481565b6103df6106973660046150c1565b60146020526000908152604090205481565b6106bc6106b736600461523e565b6121dc565b60405161030791906154d9565b6103df60055481565b6103236106e036600461535f565b6122a2565b6103df60075481565b6103236106fc3660046150c1565b6122e4565b61032361070f3660046150c1565b61232d565b6103df600080516020615f0883398151915281565b610323610737366004614f55565b612361565b6103df61074a3660046154ea565b612386565b61032361075d36600461523e565b6124ec565b610323612698565b610323612786565b6103df60085481565b600d54610394906001600160a01b031681565b60006001600160e01b03198216637965db0b60e01b14806107bf57506301ffc9a760e01b6001600160e01b03198316145b92915050565b601554610100900460ff16158080156107e55750601554600160ff909116105b806107ff5750303b1580156107ff575060155460ff166001145b6108245760405162461bcd60e51b815260040161081b90615588565b60405180910390fd5b6015805460ff191660011790558015610847576015805461ff0019166101001790555b600e80546001600160a01b0319166001600160a01b0385161790556108a788888b610877368b90038b018b61568e565b8e8961088660208d018d6156af565b63ffffffff1661089c60408e0160208f016156af565b63ffffffff166128f9565b600d54604051630480051d60e31b81526001600160a01b039091169063240028e8906108d7908b906004016150eb565b602060405180830381865afa1580156108f4573d6000803e3d6000fd5b505050506040513d601f19601f8201168201806040525081019061091891906156e3565b6109355760405163350b944160e11b815260040160405180910390fd5b61094060018c6129fa565b610958600080516020615ee88339815191528c612a64565b610970600080516020615f088339815191528a612a64565b6301e13380600055600182905580156109c8576015805461ff00191690556040517f7f26b83ff96e1f2b6a682f133852f6798a09c465da95921460cefb3847402498906109bf90600190615721565b60405180910390a15b5050505050505050505050565b600080516020615ee88339815191526109ed81612aea565b610a618b8b8b8b8b8b8b8080602002602001604051908101604052809392919081815260200183836020028082843760009201919091525050604080516020808f0282810182019093528e82529093508e92508d9182918501908490808284376000920191909152508c9250612af4915050565b600d54604051630480051d60e31b81526001600160a01b039091169063240028e890610a91908d906004016150eb565b602060405180830381865afa158015610aae573d6000803e3d6000fd5b505050506040513d601f19601f82011682018060405250810190610ad291906156e3565b610aef5760405163350b944160e11b815260040160405180910390fd5b604080516060602088028083018201845292820188815260009383928b918b918291908601908490808284376000920191909152505050908252506040805160208881028281018201909352888252928301929091899189918291850190849080828437600081840152601f19601f8201169050808301925050505050505081525090506000601280549050905060126040518061018001604052808f6001600160a01b03168152602001336001600160a01b031681526020018d81526020018e6001600160a01b0316815260200160016002811115610bd157610bd16152e1565b815260200160008152602001600081526020018c81526020018b8152602001868152602001600081526020018481525090806001815401808255809150506001900390600052602060002090600c020160009091909190915060008201518160000160006101000a8154816001600160a01b0302191690836001600160a01b0316021790555060208201518160010160006101000a8154816001600160a01b0302191690836001600160a01b031602179055506040820151816002015560608201518160030160006101000a8154816001600160a01b0302191690836001600160a01b0316021790555060808201518160030160146101000a81548160ff02191690836002811115610ce557610ce56152e1565b021790555060a0820151600482015560c0820151600582015560e0820151600682015561010082015160078201556101208201516008820155610140820151600982015561016082015180518051600a840191610d4791839160200190614d5f565b506020828101518051610d609260018501920190614d5f565b50505050508b6001600160a01b03168d6001600160a01b0316827f16284487ea0f1368a3aac8128c3dd7d8e577839303a834c010386a8aea2265708d604051610da9919061519f565b60405180910390a450505050505050505050505050565b6000610dcb81612aea565b600254821015610dee576040516321c04e1560e01b815260040160405180910390fd5b50600255565b60018060ac541660001480610e0f5750610e0f6000336121b1565b610e2b5760405162461bcd60e51b815260040161081b90615758565b600080516020615f08833981519152610e4381612aea565b600854600003610e6657604051635cc6486f60e01b815260040160405180910390fd5b600f54610e7b906001600160a01b0316612b6c565b5050565b6000610e8a81612aea565b600f54600160a01b900460ff161515600103610eb85760405162dc149f60e41b815260040160405180910390fd5b610eed333086866000818110610ed057610ed0615768565b600b546001600160a01b0316949392602090910201359050612be4565b600b54610f9e9088906001600160a01b0316600087878281610f1157610f11615768565b9050602002013588886000818110610f2b57610f2b615768565b905060200201358b8b8080602002602001604051908101604052809392919081815260200183836020028082843760009201919091525050604080516020808f0282810182019093528e82529093508e92508d9182918501908490808284376000920191909152508c9250612af4915050565b600080604051806040016040528089898080602002602001604051908101604052809392919081815260200183836020028082843760009201919091525050509082525060408051602089810282810182019093528982529283019290918a918a918291850190849080828437600092018290525093909452505060408051610180810182526001600160a01b03808f16808352602083015291810192909252600b54166060820152919250601291905060808101600281526020018888600081811061106d5761106d615768565b6020908102929092013583525060008282018190526040808401829052606080850183905260808086018c905260a0860184905260c0909501889052865460018082018955978452928490208651600c9094020180546001600160a01b03199081166001600160a01b039586161782559487015197810180548616988516989098179097559085015160028088019190915590850151600387018054948516919093169081178355938501519495949391926001600160a81b03191690911790600160a01b908490811115611144576111446152e1565b021790555060a0820151600482015560c0820151600582015560e0820151600682015561010082015160078201556101208201516008820155610140820151600982015561016082015180518051600a8401916111a691839160200190614d5f565b5060208281015180516111bf9260018501920190614d5f565b50505050506111ce6000612c3c565b600f805460ff60a01b1916600160a01b179055600b546001600160a01b03908116908a16837f16284487ea0f1368a3aac8128c3dd7d8e577839303a834c010386a8aea226570898960008161122557611225615768565b90506020020135604051611239919061519f565b60405180910390a4600b546040516001600160a01b03918216918b169084907f4396d7c3edc1447dac8dd2b7143af95840c926a210524a0d3198012c7fdf37c79061128590899061519f565b60405180910390a46112c1868660008181106112a3576112a3615768565b600b5460209091029290920135916001600160a01b03169050612c75565b505050505050505050565b7f139c2898040ef16910dc9f44dc697df79363da767d8bc92f2e310312b816e46d6112f681612aea565b610e7b82612c3c565b6000828152607a602052604090206001015461131a81612aea565b6113248383612a64565b505050565b60018060ac54166000148061134457506113446000336121b1565b6113605760405162461bcd60e51b815260040161081b90615758565b61136982612cdc565b33600090815260036020908152604080832085845290915290205460ff16156113a55760405163559f3e9960e11b815260040160405180910390fd5b3360009081526013602052604081206113bf600185615794565b815481106113cf576113cf615768565b600091825260209091206003909102016001810154909150426001600160401b039091161161141157604051635d8e3e2960e11b815260040160405180910390fd5b611419612dd0565b6113248333612e86565b6001600160a01b038116331461144b5760405162461bcd60e51b815260040161081b906157f3565b610e7b8282612fbe565b60018060ac54166000148061147057506114706000336121b1565b61148c5760405162461bcd60e51b815260040161081b90615758565b336000908152601160209081526040808320858452600181019092528220549091036114cb5760405163214f008560e01b815260040160405180910390fd5b600083815260028201602052604090205442116114fb576040516309316dab60e41b815260040160405180910390fd5b60026012848154811061151057611510615768565b90600052602060002090600c020160030160149054906101000a900460ff166002811115611540576115406152e1565b1461155e5760405163cb3c54e960e01b815260040160405180910390fd5b61132483613025565b600080516020615ee883398151915261157f81612aea565b826000036115a0576040516327b92aab60e21b815260040160405180910390fd5b600083815260146020526040902054156115cd5760405163010de00360e71b815260040160405180910390fd5b6000601284815481106115e2576115e2615768565b60009182526020909120600c90910201905060026003820154600160a01b900460ff166002811115611616576116166152e1565b1461163457604051631b017f1760e11b815260040160405180910390fd5b60038101805460ff60a01b191690556005810154600482015460009161165991615794565b6003830154600d546040516370a0823160e01b81529293506000926001600160a01b03928316926370a0823192611695929116906004016150eb565b602060405180830381865afa1580156116b2573d6000803e3d6000fd5b505050506040513d601f19601f820116820180604052508101906116d6919061580e565b600d5460038501549192506001600160a01b039081169163da0c1a8891889116848611156117045784611706565b855b6040518463ffffffff1660e01b81526004016117249392919061582f565b600060405180830381600087803b15801561173e57600080fd5b505af1158015611752573d6000803e3d6000fd5b505050600384015484546040516001600160a01b03928316935091169088907f661da9ced4b5d786f5b5f451a5f68af24721a01b0a65bb47fa4fdf70b80b887c90600090a4505050505050565b60006117aa81612aea565b60005b828110156118ae5760008484838181106117c9576117c9615768565b90506060020160400160208101906117e1919061523e565b90506001600160a01b03811661180a5760405163d92e233d60e01b815260040160405180910390fd5b6001600160a01b038116600090815260036020908152604080832060139092528220546001929061183b9084615857565b81526020810191909152604001600020805460ff191691151591909117905561189b85858481811061186f5761186f615768565b9050606002016000013586868581811061188b5761188b615768565b9050606002016020013583613146565b50806118a68161586a565b9150506117ad565b50505050565b60018060ac5416600014806118cf57506118cf6000336121b1565b6118eb5760405162461bcd60e51b815260040161081b90615758565b3360009081526013602052604090205482111561191f57813360405163632eba3d60e11b815260040161081b929190615884565b816000036119405760405163d7315a2d60e01b815260040160405180910390fd5b611948612dd0565b610e7b3383613229565b60018060ac54166000148061196d575061196d6000336121b1565b6119895760405162461bcd60e51b815260040161081b90615758565b61199282612cdc565b3360009081526013602052604081206119ac600185615794565b815481106119bc576119bc615768565b600091825260209091206003909102016001810154909150426001600160401b0390911611156119ff576040516368ce0c1560e01b815260040160405180910390fd5b611a07612dd0565b80543360008181526003602090815260408083208884529091529020805460ff191690556001600160801b03909116906118ae9082908190879061329e565b6000611a5181612aea565b6001600160a01b038216611a785760405163d92e233d60e01b815260040160405180910390fd5b600f54611a9d90600080516020615f08833981519152906001600160a01b0316612fbe565b611ab5600080516020615f0883398151915283612a64565b50600f80546001600160a01b0319166001600160a01b0392909216919091179055565b60608060128381548110611aee57611aee615768565b90600052602060002090600c0201600a0160000160128481548110611b1557611b15615768565b90600052602060002090600c0201600a0160010181805480602002602001604051908101604052809291908181526020018280548015611b7457602002820191906000526020600020905b815481526020019060010190808311611b60575b5050505050915080805480602002602001604051908101604052809291908181526020018280548015611bc657602002820191906000526020600020905b815481526020019060010190808311611bb2575b5050505050905091509150915091565b600080600080600060128681548110611bf157611bf1615768565b90600052602060002090600c020190508060040154816005015482600901548360030160149054906101000a900460ff169450945094509450509193509193565b60018060ac541660001480611c4d5750611c4d6000336121b1565b611c695760405162461bcd60e51b815260040161081b90615758565b611c7283612cdc565b336000908152601360205260408120611c8c600186615794565b81548110611c9c57611c9c615768565b600091825260209091206003909102016001810154909150426001600160401b039091161115611cdf5760405163342ad40160e11b815260040160405180910390fd5b611ce7612dd0565b80543360008181526003602090815260408083208984529091529020805460ff191690556001600160801b0390911690611d269082908690889061329e565b5050505050565b60018060ac541660001480611d485750611d486000336121b1565b611d645760405162461bcd60e51b815260040161081b90615758565b600060128481548110611d7957611d79615768565b60009182526020918290206040805161018081018252600c90930290910180546001600160a01b039081168452600182015481169484019490945260028082015492840192909252600381015493841660608401529350611f10928491608084019160ff600160a01b9091041690811115611df657611df66152e1565b6002811115611e0757611e076152e1565b8152602001600482015481526020016005820154815260200160068201548152602001600782015481526020016008820154815260200160098201548152602001600a820160405180604001604052908160008201805480602002602001604051908101604052809291908181526020018280548015611ea657602002820191906000526020600020905b815481526020019060010190808311611e92575b5050505050815260200160018201805480602002602001604051908101604052809291908181526020018280548015611efe57602002820191906000526020600020905b815481526020019060010190808311611eea575b5050505050815250508152505061344f565b60038101805460ff60a01b1916600160a11b179055612710831015611f48576040516355f7c7e360e11b815260040160405180910390fd5b600061271063ffffffff16848360020154611f63919061589f565b611f6d91906158d4565b9050611f798185615794565b6004830181905560068301541115611f9957611f998583600401546134f3565b6004820154600b83018054600090611fb357611fb3615768565b906000526020600020015414611fdc576040516305fb017960e41b815260040160405180910390fd5b816006015482600401541115612005576040516370ea9fa360e11b815260040160405180910390fd5b81600701548260040154101561202e57604051638969a67560e01b815260040160405180910390fd5b6003820154825460088401546040516001600160a01b03938416939092169188917f4396d7c3edc1447dac8dd2b7143af95840c926a210524a0d3198012c7fdf37c79161207b919061519f565b60405180910390a4600382015461209d906001600160a01b0316333087612be4565b80156120c257600f5460038301546120c2916001600160a01b039182169116836135f9565b60048201546003830154611d2691906001600160a01b0316612c75565b600080516020615ee88339815191526120f781612aea565b60006012838154811061210c5761210c615768565b60009182526020909120600c90910201905060016003820154600160a01b900460ff166002811115612140576121406152e1565b1461215e576040516379543eaf60e11b815260040160405180910390fd5b60038101805460ff60a01b19811690915581546040516001600160a01b03928316929091169085907ffadbcbd495527ce5e10fd0cceba57d404a4625dd6ce0499c254ac523789ef3ad90600090a4505050565b6000918252607a602090815260408084206001600160a01b0393909316845291905290205460ff1690565b6001600160a01b0381166000908152601360209081526040808320805482518185028101850190935280835260609492939192909184015b828210156122975760008481526020908190206040805160a0810182526003860290920180546001600160801b038082168552600160801b90910416838501526001808201546001600160401b03811693850193909352600160401b9092046001600160a01b031660608401526002015460808301529083529092019101612214565b505050509050919050565b60018060ac5416600014806122bd57506122bd6000336121b1565b6122d95760405162461bcd60e51b815260040161081b90615758565b611324838333613146565b60018060ac5416600014806122ff57506122ff6000336121b1565b61231b5760405162461bcd60e51b815260040161081b90615758565b612323612dd0565b610e7b3383613618565b600061233881612aea565b60005482111561235b57604051639ab093af60e01b815260040160405180910390fd5b50600155565b6000828152607a602052604090206001015461237c81612aea565b6113248383612fbe565b600060026012858154811061239d5761239d615768565b90600052602060002090600c020160030160149054906101000a900460ff1660028111156123cd576123cd6152e1565b146123eb5760405163439022eb60e11b815260040160405180910390fd5b6001600160a01b03831660009081526013602052604090205482111561242457604051636646ea1960e11b815260040160405180910390fd5b600061242f856136de565b6001600160a01b03851660009081526011602090815260408083206013909252822092935091612460600187615794565b8154811061247057612470615768565b600091825260208083208884526003868101835260408086208d8752909352919093205491029091018054909250600160801b90046001600160801b03166ec097ce7bc90715b34b9f1000000000816124c98488615794565b6124d3919061589f565b6124dd91906158d4565b955050505050505b9392505050565b60006124f781612aea565b60ac5460000361251a57604051636cd6020160e01b815260040160405180910390fd5b6001600160a01b0382166125415760405163d92e233d60e01b815260040160405180910390fd5b6040516301ffc9a760e01b81526001600160a01b038316906301ffc9a79061257490633485434760e11b906004016158f8565b602060405180830381865afa158015612591573d6000803e3d6000fd5b505050506040513d601f19601f820116820180604052508101906125b591906156e3565b6125d457816040516363f1f03760e01b815260040161081b91906150eb565b600d60009054906101000a90046001600160a01b03166001600160a01b0316632c678c646040518163ffffffff1660e01b8152600401602060405180830381865afa158015612627573d6000803e3d6000fd5b505050506040513d601f19601f8201168201806040525081019061264b91906156e3565b61267557600d5460405163cec27f4760e01b815261081b916001600160a01b0316906004016150eb565b50600d80546001600160a01b0319166001600160a01b0392909216919091179055565b60018060ac5416600014806126b357506126b36000336121b1565b6126cf5760405162461bcd60e51b815260040161081b90615758565b336000908152601160205260408120905b601254811015611324576000818152600183016020526040902054158015906127185750600081815260028301602052604090205442115b8015612766575060026012828154811061273457612734615768565b90600052602060002090600c020160030160149054906101000a900460ff166002811115612764576127646152e1565b145b156127745761277481613025565b8061277e8161586a565b9150506126e0565b60ac546000036127a957604051636cd6020160e01b815260040160405180910390fd5b600d60009054906101000a90046001600160a01b03166001600160a01b0316632c678c646040518163ffffffff1660e01b8152600401602060405180830381865afa1580156127fc573d6000803e3d6000fd5b505050506040513d601f19601f8201168201806040525081019061282091906156e3565b1561284b57600d54604051633f382b0160e21b815261081b916001600160a01b0316906004016150eb565b336000908152601360205260408120549081900361287c5760405163204c3ee960e11b815260040160405180910390fd5b805b600181106128eb573360009081526013602052604081206128a0600184615794565b815481106128b0576128b0615768565b60009182526020909120600390910201546001600160801b031690506128d88180843361329e565b50806128e381615906565b91505061287e565b506128f66000613025565b50565b612907888888888886613765565b600b80546001600160a01b03199081166001600160a01b039a8b1617909155600c80548216988a1698909817909755600f805488169689169690961790955583516010805460208701516040880151606089015160809099015163ffffffff95861667ffffffffffffffff1990941693909317600160201b928616929092029190911767ffffffffffffffff60401b1916600160401b9185169190910263ffffffff60601b191617600160601b978416979097029690961763ffffffff60801b1916600160801b929096169190910294909417909355600d80549095169190951617909255600292909255600955600a55565b601554610100900460ff16612a215760405162461bcd60e51b815260040161081b90615965565b612a296138c7565b612a34600082612a64565b612a5e7f139c2898040ef16910dc9f44dc697df79363da767d8bc92f2e310312b816e46d82612a64565b5060ac55565b612a6e82826121b1565b610e7b576000828152607a602090815260408083206001600160a01b03851684529091529020805460ff19166001179055612aa63390565b6001600160a01b0316816001600160a01b0316837f2f8788117e7eff1d82e926ec794901d17c78024a50270940304540a733656f0d60405160405180910390a45050565b6128f681336138f0565b600e54604051639d8efc3760e01b81526001600160a01b0390911690639d8efc3790612b32908b908b908b908b908b908b908b908b90600401615975565b60006040518083038186803b158015612b4a57600080fd5b505afa158015612b5e573d6000803e3d6000fd5b505050505050505050505050565b600880546000909155600d54600b54604051631b41835160e31b81526001600160a01b039283169263da0c1a8892612bae92879290911690869060040161582f565b600060405180830381600087803b158015612bc857600080fd5b505af1158015612bdc573d6000803e3d6000fd5b505050505050565b6118ae846323b872dd60e01b858585604051602401612c059392919061582f565b60408051601f198184030181529190526020810180516001600160e01b03166001600160e01b031990931692909217909152613954565b60ac548181161480612c545750612c546000336121b1565b612c705760405162461bcd60e51b815260040161081b90615a27565b60ac55565b600d54612c90906001600160a01b03838116911660006139e3565b600d54612caa906001600160a01b038381169116846139e3565b600d546040516311f9fbc960e21b81526001600160a01b03909116906347e7ef2490612bae9084908690600401615a37565b80600003612cfd5760405163d7315a2d60e01b815260040160405180910390fd5b33600090815260136020526040902054811115612d3157803360405163632eba3d60e11b815260040161081b929190615884565b336000908152601360205260408120612d4b600184615794565b81548110612d5b57612d5b615768565b60009182526020909120600160039092020190810154909150600160401b90046001600160a01b03163314612da357604051630472b49d60e51b815260040160405180910390fd5b80546001600160801b0316600003610e7b578160405163f19d752960e01b815260040161081b919061519f565b4260045403612ddb57565b60055415612e805760005b601254811015612e7e57600260128281548110612e0557612e05615768565b90600052602060002090600c020160030160149054906101000a900460ff166002811115612e3557612e356152e1565b03612e6c57612e43816136de565b60128281548110612e5657612e56615768565b90600052602060002090600c0201600901819055505b80612e768161586a565b915050612de6565b505b42600455565b6001600160a01b0381166000908152601360205260408120612ea9600185615794565b81548110612eb957612eb9615768565b60009182526020909120600390910201600181015481549192506001600160401b0316906001600160801b0316612ef28180878761329e565b6000612efe8342613a97565b90506000620186a0612f10848461589f565b612f1a91906158d4565b6001600160a01b038716600090815260116020908152604080832083805260018101909252822080549394509092849290612f56908490615794565b9091555050600080805260146020527f4f26c3876aa9f4b92579780beea1161a61f87ebf1ec6ee865b299e447ecba99c8054849290612f96908490615794565b925050819055508160086000828254612faf9190615857565b90915550505050505050505050565b612fc882826121b1565b15610e7b576000828152607a602090815260408083206001600160a01b0385168085529252808320805460ff1916905551339285917ff6391f5c32d9c69d2a47ea670b442974b53935d1edc7fd64eb21e047a839171b9190a45050565b3360009081526011602090815260408083208484526001810183528184208054908590556014909352908320805491938392613062908490615794565b9091555050604051339084907f3bfce8de0db7450cc169b94323c210e69a36c6a4a58c9f5d96bec4973adce3929061309b90859061519f565b60405180910390a3600d54601280546001600160a01b039092169163da0c1a88913391879081106130ce576130ce615768565b600091825260209091206003600c9092020101546040516001600160e01b031960e085901b16815261310f92916001600160a01b031690869060040161582f565b600060405180830381600087803b15801561312957600080fd5b505af115801561313d573d6000803e3d6000fd5b50505050505050565b6001548210156131695760405163183dd27d60e01b815260040160405180910390fd5b6002546001600160a01b038216600090815260136020526040902054106131a357604051632a01dbab60e21b815260040160405180910390fd5b826000036131c457604051631f2a200560e01b815260040160405180910390fd5b6000548211156131e757604051639ab093af60e01b815260040160405180910390fd5b600b546131ff906001600160a01b0316333086612be4565b613207612dd0565b613212818484613b53565b600b546113249084906001600160a01b0316612c75565b60125460005b818110156118ae5760026012828154811061324c5761324c615768565b90600052602060002090600c020160030160149054906101000a900460ff16600281111561327c5761327c6152e1565b0361328c5761328c848285613d4d565b806132968161586a565b91505061322f565b6001600160a01b0381166000908152601160209081526040808320601390925282209091906132ce600186615794565b815481106132de576132de615768565b9060005260206000209060030201905060055460000361331157604051635cf8d8a760e01b815260040160405180910390fd5b6002810180546000918290556007805491928392613330908490615794565b9091555050825460009082101561335157835461334e908390615794565b90505b808455613360878988886140f2565b600c546040516370a0823160e01b81526000916001600160a01b0316906370a08231906133919089906004016150eb565b602060405180830381865afa1580156133ae573d6000803e3d6000fd5b505050506040513d601f19601f820116820180604052508101906133d2919061580e565b9050828110156133e0578092505b600c54604051632770a7eb60e21b81526001600160a01b0390911690639dc29fac906134129089908790600401615a37565b600060405180830381600087803b15801561342c57600080fd5b505af1158015613440573d6000803e3d6000fd5b50505050505050505050505050565b600181608001516002811115613467576134676152e1565b14613485576040516379543eaf60e11b815260040160405180910390fd5b42816101600151600001516000815181106134a2576134a2615768565b602002602001015110156134c9576040516328a7237960e01b815260040160405180910390fd5b80516001600160a01b031633146128f6576040516330cd747160e01b815260040160405180910390fd5b60006012838154811061350857613508615768565b600091825260208220600b600c90920201015491505b818110156118ae576012848154811061353957613539615768565b90600052602060002090600c020160060154836012868154811061355f5761355f615768565b90600052602060002090600c0201600a01600101838154811061358457613584615768565b9060005260206000200154613599919061589f565b6135a391906158d4565b601285815481106135b6576135b6615768565b90600052602060002090600c0201600a0160010182815481106135db576135db615768565b600091825260209091200155806135f18161586a565b91505061351e565b6113248363a9059cbb60e01b8484604051602401612c05929190615a37565b60026012828154811061362d5761362d615768565b90600052602060002090600c020160030160149054906101000a900460ff16600281111561365d5761365d6152e1565b1461367b57604051633d47126760e01b815260040160405180910390fd5b6001600160a01b0382166000908152601360205260408120805490918190036136b757604051637dc6ce3b60e11b815260040160405180910390fd5b60015b818111611d26576136cc858583613d4d565b806136d68161586a565b9150506136ba565b60006006546000036137035760405163b6311c8760e01b815260040160405180910390fd5b6006546ec097ce7bc90715b34b9f1000000000613722846004546142ef565b61372c919061589f565b61373691906158d4565b6012838154811061374957613749615768565b90600052602060002090600c0201600901546107bf9190615857565b6001600160a01b03861661378c5760405163d92e233d60e01b815260040160405180910390fd5b6001600160a01b0385166137b35760405163d92e233d60e01b815260040160405180910390fd5b6001600160a01b0382166137da5760405163d92e233d60e01b815260040160405180910390fd5b6001600160a01b0384166138015760405163d92e233d60e01b815260040160405180910390fd5b826020015163ffffffff16836000015163ffffffff1611613835576040516302eba45360e51b815260040160405180910390fd5b826060015163ffffffff16836040015163ffffffff161161386957604051639fe24b6b60e01b815260040160405180910390fd5b620186a0836040015184608001516138819190615a52565b63ffffffff1611156138a6576040516335e7c1c760e21b815260040160405180910390fd5b80600003612bdc5760405163fa9d8a3560e01b815260040160405180910390fd5b601554610100900460ff166138ee5760405162461bcd60e51b815260040161081b90615965565b565b6138fa82826121b1565b610e7b57613912816001600160a01b03166014614389565b61391d836020614389565b60405160200161392e929190615ac6565b60408051601f198184030181529082905262461bcd60e51b825261081b91600401615b4a565b60006139a9826040518060400160405280602081526020017f5361666545524332303a206c6f772d6c6576656c2063616c6c206661696c6564815250856001600160a01b03166144f49092919063ffffffff16565b80519091501561132457808060200190518101906139c791906156e3565b6113245760405162461bcd60e51b815260040161081b90615ba2565b801580613a5c5750604051636eb1769f60e11b81526001600160a01b0384169063dd62ed3e90613a199030908690600401615bb2565b602060405180830381865afa158015613a36573d6000803e3d6000fd5b505050506040513d601f19601f82011682018060405250810190613a5a919061580e565b155b613a785760405162461bcd60e51b815260040161081b90615c13565b6113248363095ea7b360e01b8484604051602401612c05929190615a37565b600082808310613aab5760009150506107bf565b6000613ab78483615794565b600054601054919250908290613ae39063ffffffff600160601b8204811691600160401b900416615c23565b601054613afd9190600160801b900463ffffffff16615a52565b63ffffffff16613b0d919061589f565b613b1791906158d4565b601054613b3a9063ffffffff600160601b8204811691600160801b900416615a52565b63ffffffff16613b4a9190615857565b95945050505050565b6001600160a01b03831660009081526011602052604081208215613bdc57600a54670de0b6b3a76400009081613b89868861589f565b613b93919061589f565b613b9d91906158d4565b613ba791906158d4565b915081816000016000828254613bbd9190615857565b925050819055508160076000828254613bd69190615857565b90915550505b60006040518060a00160405280613bf28761450b565b6001600160801b0316815260006020820152604001613c19613c144288615857565b614538565b6001600160401b0390811682526001600160a01b03808a16602080850182905260409485018990526000828152601382528581208054600181810183558284528484208a51958b01516001600160801b03908116600160801b02961695909517600390920290940190815596880151928701805460608a0151909616600160401b026001600160e01b031990961693909616929092179390931790935560808501516002909401939093559190915254909150613cdb90879087908690614561565b8215612bdc57600c546040516340c10f1960e01b81526001600160a01b03909116906340c10f1990613d139089908790600401615a37565b600060405180830381600087803b158015613d2d57600080fd5b505af1158015613d41573d6000803e3d6000fd5b50505050505050505050565b600260128381548110613d6257613d62615768565b90600052602060002090600c020160030160149054906101000a900460ff166002811115613d9257613d926152e1565b14613db057604051633d47126760e01b815260040160405180910390fd5b6001600160a01b0383166000908152601360205260408120613dd3600184615794565b81548110613de357613de3615768565b600091825260208083206001600160a01b03881684526003808352604080862088875290935291909320549102909101915060ff168015613e3257506001810154426001600160401b03909116115b15613e3d5750505050565b80546001600160801b0316600003613e685760405163c95c74a560e01b815260040160405180910390fd5b6001600160a01b0384166000908152601160209081526040808320845486855260038201845282852088865290935290832054601280549294936ec097ce7bc90715b34b9f100000000093600160801b9091046001600160801b031692919089908110613ed757613ed7615768565b90600052602060002090600c020160090154613ef39190615794565b613efd919061589f565b613f0791906158d4565b905080600003613f1957505050505050565b60128581548110613f2c57613f2c615768565b90600052602060002090600c0201600401548160128781548110613f5257613f52615768565b90600052602060002090600c020160050154613f6e9190615857565b1115613f8d57604051630109353560e01b815260040160405180910390fd5b600085815260018301602052604081208054839290613fad908490615857565b909155505060008581526014602052604081208054839290613fd0908490615857565b90915550506012805486908110613fe957613fe9615768565b600091825260208083206009600c9093020191909101548683526003850182526040808420898552909252912055601280548690811061402b5761402b615768565b90600052602060002090600c020160080154426140489190615857565b6000868152600284016020526040902055601280548291908790811061407057614070615768565b90600052602060002090600c020160050160008282546140909190615857565b90915550506000858152600183016020526040908190205490516001600160a01b0388169187917f5f1c6be51c8ec7fa7e7ddd9f798ec55927b06cfc8d9159987d1ae3358cb10b59916140e29161519f565b60405180910390a3505050505050565b6001600160a01b038116600090815260116020908152604080832060139092528220909190614122600186615794565b8154811061413257614132615768565b9060005260206000209060030201905084600560008282546141549190615794565b9091555050805460068054600160801b9092046001600160801b03169160009061417f908490615794565b909155505060008082556141938787615794565b90508683600101600080815260200190815260200160002060008282546141ba9190615857565b9091555050601280546000906141d2576141d2615768565b90600052602060002090600c020160080154426141ef9190615857565b6000808052600285016020908152604082209290925560149091527f4f26c3876aa9f4b92579780beea1161a61f87ebf1ec6ee865b299e447ecba99c805489929061423b908490615857565b909155505080156142995761425281868486614755565b84846001600160a01b03167f845a16492d8f772c792e84d2c5495d37fca22ce33263b67322e92ef0be653c508960405161428c919061519f565b60405180910390a361313d565b6142a48385876148d7565b84846001600160a01b03167f7fc4727e062e336010f2c282598ef5f14facb3de68cf8195c2f23e1454b2b74e896040516142de919061519f565b60405180910390a350505050505050565b600e54601280546000926001600160a01b0316916351e1551a918690811061431957614319615768565b90600052602060002090600c0201600a01846040518363ffffffff1660e01b8152600401614348929190615cce565b602060405180830381865afa158015614365573d6000803e3d6000fd5b505050506040513d601f19601f820116820180604052508101906124e5919061580e565b6060600061439883600261589f565b6143a3906002615857565b6001600160401b038111156143ba576143ba615598565b6040519080825280601f01601f1916602001820160405280156143e4576020820181803683370190505b509050600360fc1b816000815181106143ff576143ff615768565b60200101906001600160f81b031916908160001a905350600f60fb1b8160018151811061442e5761442e615768565b60200101906001600160f81b031916908160001a905350600061445284600261589f565b61445d906001615857565b90505b60018111156144d5576f181899199a1a9b1b9c1cb0b131b232b360811b85600f166010811061449157614491615768565b1a60f81b8282815181106144a7576144a7615768565b60200101906001600160f81b031916908160001a90535060049490941c936144ce81615906565b9050614460565b5083156124e55760405162461bcd60e51b815260040161081b90615d20565b60606145038484600085614b0e565b949350505050565b60006001600160801b038211156145345760405162461bcd60e51b815260040161081b90615d64565b5090565b60006001600160401b038211156145345760405162461bcd60e51b815260040161081b90615da8565b6001600160a01b038416600090815260116020908152604080832060139092528220909190614591600185615794565b815481106145a1576145a1615768565b9060005260206000209060030201905084600560008282546145c39190615857565b90915550600090506145d6868642614bd0565b905080600660008282546145ea9190615857565b909155506145f990508161450b565b8254839060109061461b908490600160801b90046001600160801b0316615db8565b92506101000a8154816001600160801b0302191690836001600160801b031602179055506000601280549050905060005b818110156146f25760026012828154811061466957614669615768565b90600052602060002090600c020160030160149054906101000a900460ff166002811115614699576146996152e1565b036146e057601281815481106146b1576146b1615768565b600091825260208083206009600c90930201919091015488835260038801825260408084208585529092529120555b806146ea8161586a565b91505061464c565b50600183015460405186916001600160a01b038b16917f6381ea17a5324d29cc015352644672ead5185c1c61a0d3a521eda97e35cec97e91614743918c9188918d916001600160401b031690615df9565b60405180910390a35050505050505050565b83600560008282546147679190615857565b9091555061477690508461450b565b825483906000906147919084906001600160801b0316615db8565b92506101000a8154816001600160801b0302191690836001600160801b0316021790555060006147c385600042614bd0565b90506147ce8161450b565b835484906010906147f0908490600160801b90046001600160801b0316615db8565b92506101000a8154816001600160801b0302191690836001600160801b0316021790555080600660008282546148269190615857565b909155505060125460005b8181101561313d5760026012828154811061484e5761484e615768565b90600052602060002090600c020160030160149054906101000a900460ff16600281111561487e5761487e6152e1565b036148c5576012818154811061489657614896615768565b600091825260208083206009600c90930201919091015488835260038701825260408084208585529092529120555b806148cf8161586a565b915050614831565b6012546001600160a01b0383166000908152601360205260409020548281148015906149035750600181115b15614a76576001600160a01b038416600090815260136020526040812061492b600184615794565b8154811061493b5761493b615768565b600091825260208083206001600160a01b038916845260139091526040909220600390910290910191508190614972600187615794565b8154811061498257614982615768565b600091825260208220835460039092020180546fffffffffffffffffffffffffffffffff19166001600160801b0392831690811782558454600160801b90819004909316909202909117815560018084018054918301805467ffffffffffffffff1981166001600160401b03909416938417825591546001600160a01b03600160401b9182900416026001600160e01b03199092169092171790556002928301549201919091555b83811015614a7357600083815260038801602081815260408084208585528252808420548985529282528084208585529091529091205580614a6b8161586a565b915050614a2a565b50505b60005b82811015614aaf576000828152600387016020908152604080832084845290915281205580614aa78161586a565b915050614a79565b506001600160a01b0384166000908152601360205260409020805480614ad757614ad7615e2e565b6000828152602081206003600019909301928302018181556001810180546001600160e01b03191690556002015590555050505050565b606082471015614b305760405162461bcd60e51b815260040161081b90615e87565b6001600160a01b0385163b614b575760405162461bcd60e51b815260040161081b90615ecb565b600080866001600160a01b03168587604051614b739190615edb565b60006040518083038185875af1925050503d8060008114614bb0576040519150601f19603f3d011682016040523d82523d6000602084013e614bb5565b606091505b5091509150614bc5828286614d26565b979650505050505050565b6000806103e884600954614be4919061589f565b614bee91906158d4565b614bf89086615857565b905060006228207263ffffffff166012600081548110614c1a57614c1a615768565b90600052602060002090600c0201600a01600001600081548110614c4057614c40615768565b9060005260206000200154614c559190615857565b90506000614c676301e1338083615857565b9050818511614c8d57601054614c839063ffffffff168461589f565b93505050506124e5565b808510614cae57601054614c8390600160201b900463ffffffff168461589f565b614cb88282615794565b614cc28683615794565b601054614cde9063ffffffff600160201b820481169116615c23565b614cee9063ffffffff168661589f565b614cf8919061589f565b614d0291906158d4565b601054614d1c90600160201b900463ffffffff168561589f565b614bc59190615857565b60608315614d355750816124e5565b825115614d455782518084602001fd5b8160405162461bcd60e51b815260040161081b9190615b4a565b828054828255906000526020600020908101928215614d9a579160200282015b82811115614d9a578251825591602001919060010190614d7f565b506145349291505b808211156145345760008155600101614da2565b6001600160e01b031981165b81146128f657600080fd5b80356107bf81614db6565b600060208284031215614ded57614ded600080fd5b60006145038484614dcd565b8015155b82525050565b602081016107bf8284614df9565b60006001600160a01b0382166107bf565b614dc281614e11565b80356107bf81614e22565b600060a08284031215614e4b57614e4b600080fd5b50919050565b600060408284031215614e4b57614e4b600080fd5b80614dc2565b80356107bf81614e66565b6000806000806000806000806000806101e08b8d031215614e9a57614e9a600080fd5b6000614ea68d8d614e2b565b9a50506020614eb78d828e01614e2b565b9950506040614ec88d828e01614e2b565b9850506060614ed98d828e01614e2b565b9750506080614eea8d828e01614e2b565b96505060a0614efb8d828e01614e36565b955050610140614f0d8d828e01614e51565b945050610180614f1f8d828e01614e6c565b9350506101a0614f318d828e01614e2b565b9250506101c0614f438d828e01614e6c565b9150509295989b9194979a5092959850565b60008060408385031215614f6b57614f6b600080fd5b6000614f778585614e6c565b9250506020614f8885828601614e2b565b9150509250929050565b60008083601f840112614fa757614fa7600080fd5b5081356001600160401b03811115614fc157614fc1600080fd5b602083019150836020820283011115614fdc57614fdc600080fd5b9250929050565b6000806000806000806000806000806101008b8d03121561500657615006600080fd5b60006150128d8d614e2b565b9a505060206150238d828e01614e2b565b99505060406150348d828e01614e6c565b98505060606150458d828e01614e6c565b97505060806150568d828e01614e6c565b96505060a08b01356001600160401b0381111561507557615075600080fd5b6150818d828e01614f92565b955095505060c08b01356001600160401b038111156150a2576150a2600080fd5b6150ae8d828e01614f92565b935093505060e0614f438d828e01614e6c565b6000602082840312156150d6576150d6600080fd5b60006145038484614e6c565b614dfd81614e11565b602081016107bf82846150e2565b6000806000806000806080878903121561511557615115600080fd5b60006151218989614e2b565b96505060208701356001600160401b0381111561514057615140600080fd5b61514c89828a01614f92565b955095505060408701356001600160401b0381111561516d5761516d600080fd5b61517989828a01614f92565b9350935050606061518c89828a01614e6c565b9150509295509295509295565b80614dfd565b602081016107bf8284615199565b60008083601f8401126151c2576151c2600080fd5b5081356001600160401b038111156151dc576151dc600080fd5b602083019150836060820283011115614fdc57614fdc600080fd5b6000806020838503121561520d5761520d600080fd5b82356001600160401b0381111561522657615226600080fd5b615232858286016151ad565b92509250509250929050565b60006020828403121561525357615253600080fd5b60006145038484614e2b565b600061526b8383615199565b505060200190565b600061527d825190565b80845260209384019383018060005b838110156152b15781516152a0888261525f565b97506020830192505060010161528c565b509495945050505050565b604080825281016152cd8185615273565b905081810360208301526145038184615273565b634e487b7160e01b600052602160045260246000fd5b600381106128f6576128f66152e1565b80615311816152f7565b919050565b60006107bf82615307565b614dfd81615316565b608081016153388287615199565b6153456020830186615199565b6153526040830185615199565b613b4a6060830184615321565b6000806040838503121561537557615375600080fd5b60006153818585614e6c565b9250506020614f8885828601614e6c565b600080604083850312156153a8576153a8600080fd5b60006153818585614e2b565b63ffffffff8116614dfd565b60a081016153ce82886153b4565b6153db60208301876153b4565b6153e860408301866153b4565b6153f560608301856153b4565b61540260808301846153b4565b9695505050505050565b6001600160801b038116614dfd565b6001600160401b038116614dfd565b805160a083019061543b848261540c565b50602082015161544e602085018261540c565b506040820151615461604085018261541b565b50606082015161547460608501826150e2565b5060808201516118ae6080850182615199565b6000615493838361542a565b505060a00190565b60006154a5825190565b80845260209384019383018060005b838110156152b15781516154c88882615487565b9750602083019250506001016154b4565b602080825281016124e5818461549b565b60008060006060848603121561550257615502600080fd5b600061550e8686614e6c565b935050602061551f86828701614e2b565b925050604061553086828701614e6c565b9150509250925092565b602e81526000602082017f496e697469616c697a61626c653a20636f6e747261637420697320616c72656181526d191e481a5b9a5d1a585b1a5e995960921b602082015291505b5060400190565b602080825281016107bf8161553a565b634e487b7160e01b600052604160045260246000fd5b601f19601f83011681018181106001600160401b03821117156155d3576155d3615598565b6040525050565b60006155e560405190565b905061531182826155ae565b63ffffffff8116614dc2565b80356107bf816155f1565b600060a0828403121561561d5761561d600080fd5b61562760a06155da565b9050600061563584846155fd565b8252506020615646848483016155fd565b602083015250604061565a848285016155fd565b604083015250606061566e848285016155fd565b6060830152506080615682848285016155fd565b60808301525092915050565b600060a082840312156156a3576156a3600080fd5b60006145038484615608565b6000602082840312156156c4576156c4600080fd5b600061450384846155fd565b801515614dc2565b80516107bf816156d0565b6000602082840312156156f8576156f8600080fd5b600061450384846156d8565b60006107bf82615712565b90565b60ff1690565b614dfd81615704565b602081016107bf8284615718565b600f81526000602082016e1c185d5cd9590818dbdb9d1c9858dd608a1b815291505b5060200190565b602080825281016107bf8161572f565b634e487b7160e01b600052603260045260246000fd5b634e487b7160e01b600052601160045260246000fd5b818103818111156107bf576107bf61577e565b602f81526000602082017f416363657373436f6e74726f6c3a2063616e206f6e6c792072656e6f756e636581526e103937b632b9903337b91039b2b63360891b60208201529150615581565b602080825281016107bf816157a7565b80516107bf81614e66565b60006020828403121561582357615823600080fd5b60006145038484615803565b6060810161583d82866150e2565b61584a60208301856150e2565b6145036040830184615199565b808201808211156107bf576107bf61577e565b6000600019820361587d5761587d61577e565b5060010190565b604081016158928285615199565b6124e560208301846150e2565b60008160001904831182151516156158b9576158b961577e565b500290565b634e487b7160e01b600052601260045260246000fd5b6000826158e3576158e36158be565b500490565b6001600160e01b03198116614dfd565b602081016107bf82846158e8565b6000816159155761591561577e565b506000190190565b602b81526000602082017f496e697469616c697a61626c653a20636f6e7472616374206973206e6f74206981526a6e697469616c697a696e6760a81b60208201529150615581565b602080825281016107bf8161591d565b6101008101615984828b6150e2565b615991602083018a6150e2565b61599e6040830189615199565b6159ab6060830188615199565b6159b86080830187615199565b81810360a08301526159ca8186615273565b905081810360c08301526159de8185615273565b90506159ed60e0830184615199565b9998505050505050505050565b60168152600060208201756f6e6c792061646d696e2063616e20756e706175736560501b81529150615751565b602080825281016107bf816159fa565b60408101615a4582856150e2565b6124e56020830184615199565b600063ffffffff8216915063ffffffff831692508163ffffffff04831182151516156158b9576158b961577e565b60005b83811015615a9b578181015183820152602001615a83565b50506000910152565b6000615aae825190565b615abc818560208601615a80565b9290920192915050565b76020b1b1b2b9b9a1b7b73a3937b61d1030b1b1b7bab73a1604d1b81526017016000615af28285615aa4565b7001034b99036b4b9b9b4b733903937b6329607d1b815260110191506145038284615aa4565b6000615b22825190565b808452602084019350615b39818560208601615a80565b601f01601f19169290920192915050565b602080825281016124e58184615b18565b602a81526000602082017f5361666545524332303a204552433230206f7065726174696f6e20646964206e8152691bdd081cdd58d8d9595960b21b60208201529150615581565b602080825281016107bf81615b5b565b6040810161589282856150e2565b603681526000602082017f5361666545524332303a20617070726f76652066726f6d206e6f6e2d7a65726f81527520746f206e6f6e2d7a65726f20616c6c6f77616e636560501b60208201529150615581565b602080825281016107bf81615bc0565b63ffffffff9182169190811690828203908111156107bf576107bf61577e565b6000816107bf565b60006107bf8254615c43565b6000615c61825490565b808452600083815260208082209501949081905b838110156152b157615c8682615c4b565b615c90888261525f565b97505060019182019101615c75565b604080835260009083018183615cb58382615c57565b9250506001840185830360208701526154028382615c57565b60408082528101615cdf8185615c9f565b90506124e56020830184615199565b60208082527f537472696e67733a20686578206c656e67746820696e73756666696369656e7491019081526000615751565b602080825281016107bf81615cee565b601c81526000602082017f426f72696e674d6174683a2075696e74313238204f766572666c6f770000000081529150615751565b602080825281016107bf81615d30565b601b81526000602082017f426f72696e674d6174683a2075696e743634204f766572666c6f77000000000081529150615751565b602080825281016107bf81615d74565b6001600160801b039182169190811690828201908111156107bf576107bf61577e565b60006107bf61570f6001600160401b03841681565b614dfd81615ddb565b60808101615e078287615199565b615e146020830186615199565b615e216040830185615199565b613b4a6060830184615df0565b634e487b7160e01b600052603160045260246000fd5b602681526000602082017f416464726573733a20696e73756666696369656e742062616c616e636520666f8152651c8818d85b1b60d21b60208201529150615581565b602080825281016107bf81615e44565b601d81526000602082017f416464726573733a2063616c6c20746f206e6f6e2d636f6e747261637400000081529150615751565b602080825281016107bf81615e97565b60006124e58284615aa456fe930802d0eadfb856cb83e01d1c4daa3c89e9c6d9f74cfbe13124decf2b33128ae1dcbdb91df27212a29bc27177c840cf2f819ecf2187432e1fac86c2dd5dfca9a2646970667358221220858a3bd1cfc082a25ec6e7e60a42092d3ec2545916d9e3950e76e35388d2120364736f6c63430008100033",
    "immutableReferences": {},
    "source": "// SPDX-License-Identifier: AGPL 3.0\n// Copyright Fathom 2022\n\npragma solidity 0.8.16;\n\nimport \"./StakingHandler.sol\";\nimport \"./StakingGetters.sol\";\n\ncontract StakingPackage is StakingHandlers, StakingGetters {}\n",
    "sourcePath": "/Users/subiksinghshrestha/Documents/FATHOM/fathom-dao-smart-contracts/contracts/dao/staking/packages/StakingPackage.sol",
    "compiler": {
        "name": "solc",
        "version": "0.8.16+commit.07a7930e.Darwin.appleclang"
    },
    "schemaVersion": "3.4.10",
    "updatedAt": "2023-05-05T08:45:37.317Z",
    "devdoc": {
        "kind": "dev",
        "methods": {
            "adminPause(uint256)": {
                "details": "adminPause pauses this contract. Only pause role or default admin role can access this function.",
                "params": {
                    "flags": "flags variable is used for pausing this contract."
                }
            },
            "createFixedLocksOnBehalfOfUserByAdmin((uint256,uint256,address)[])": {
                "details": "Admin can create a lock on behalf of a user without early withdrawal"
            },
            "createStream(uint256,uint256)": {
                "details": "This function creates a stream and makes it live. Only the Stream Owner is able to call this function.      Stream Owner is set while proposing a stream"
            },
            "emergencyUnlockAndWithdraw()": {
                "details": "In case of emergency, unlock your tokens and withdraw all your position"
            },
            "getRoleAdmin(bytes32)": {
                "details": "Returns the admin role that controls `role`. See {grantRole} and {revokeRole}. To change a role's admin, use {_setRoleAdmin}."
            },
            "grantRole(bytes32,address)": {
                "details": "Grants `role` to `account`. If `account` had not been already granted `role`, emits a {RoleGranted} event. Requirements: - the caller must have ``role``'s admin role. May emit a {RoleGranted} event."
            },
            "hasRole(bytes32,address)": {
                "details": "Returns `true` if `account` has been granted `role`."
            },
            "initializeMainStream(address,uint256[],uint256[],uint256)": {
                "details": "The function is callable only once, and it can be done only with admin,       which at initial setup is Multisig"
            },
            "initializeStaking(address,address,address,address,address,(uint32,uint32,uint32,uint32,uint32),(uint32,uint32),uint256,address,uint256)": {
                "details": "initialize the contract and deploys the first stream of rewardsinitializable only once due to stakingInitialised flag",
                "params": {
                    "_admin": "the owner and manager of the main token stream",
                    "_mainToken": "token contract address",
                    "_vault": "The Vault address to store main token and rewards tokens",
                    "_weight": "Weighting coefficient for shares and penalties"
                }
            },
            "proposeStream(address,address,uint256,uint256,uint256,uint256[],uint256[],uint256)": {
                "details": "An admin of the staking contract can allowlist (propose) a stream. Allowlisting of the stream provides the option for the stream owner (presumably the issuing party of a specific token) to deposit some ERC-20 tokens on the staking contract and potentially get in return some main tokens immediately. ",
                "params": {
                    "maxDepositAmount": "The upper amount of the tokens that should be deposited by stream owner",
                    "rewardToken": "the address of the ERC-20 tokens to be deposited in the stream",
                    "scheduleRewards": "remaining rewards to be delivered at the beginning of each scheduled interval.  Last element is always zero. First value (in scheduleRewards) from array is supposed to be a total amount of rewards for stream.",
                    "scheduleTimes": "timestamp denoting the start of each scheduled interval. Last element is the end of the stream.",
                    "streamOwner": "only this account will be able to launch a stream",
                    "tau": "the tau is (pending release period) for this stream (e.g one day)"
                }
            },
            "removeStream(uint256,address)": {
                "details": "A stream can be removed after all the rewards pending have been withdrawn.      Stream can be removed by the Stream Manager which is Multisig at time of deployment."
            },
            "renounceRole(bytes32,address)": {
                "details": "Revokes `role` from the calling account. Roles are often managed via {grantRole} and {revokeRole}: this function's purpose is to provide a mechanism for accounts to lose their privileges if they are compromised (such as when a trusted device is misplaced). If the calling account had been revoked `role`, emits a {RoleRevoked} event. Requirements: - the caller must be `account`. May emit a {RoleRevoked} event."
            },
            "revokeRole(bytes32,address)": {
                "details": "Revokes `role` from `account`. If `account` had been granted `role`, emits a {RoleRevoked} event. Requirements: - the caller must have ``role``'s admin role. May emit a {RoleRevoked} event."
            },
            "setMaxLockPositions(uint256)": {
                "details": "This allows for setting up maximum lock positions.      Only admin which is Multisig at deployment can call this"
            },
            "setMinimumLockPeriod(uint256)": {
                "details": "This allows for setting up minimum locking period.      Only admin which is Multisig at deployment can call this"
            },
            "supportsInterface(bytes4)": {
                "details": "See {IERC165-supportsInterface}."
            },
            "updateVault(address)": {
                "details": "Vault can be updated only if the contract is at paused state.      Only Admin that is, Multisig at the time of deployment can update Vault"
            },
            "withdrawPenalty()": {
                "details": "Penalty accrued due to early unlocking can be withdrawn to some address, most likely the treasury.      Address with TREASURY_ROLE can access this function, which is Multisig at time of deployment"
            }
        },
        "version": 1
    },
    "userdoc": {
        "kind": "user",
        "methods": {
            "emergencyUnlockAndWithdraw()": {
                "notice": "This function neglects all the rewardsThis can be executed only if the contract is at paused state.This function can only be called if VaultContract is not compromised and vault is not at paused state."
            },
            "initializeStaking(address,address,address,address,address,(uint32,uint32,uint32,uint32,uint32),(uint32,uint32),uint256,address,uint256)": {
                "notice": "By calling this function, the deployer of this contract must make sure that the Rewards amount was deposited to the treasury contract before initializing of the default Stream"
            },
            "isProhibitedLockPosition(uint256,address)": {
                "notice": "this will be used by frontend to get the actual amount that can be claimed"
            },
            "proposeStream(address,address,uint256,uint256,uint256,uint256[],uint256[],uint256)": {
                "notice": "Manager of Vault must call"
            },
            "weight()": {
                "notice": "Weighting coefficient for shares and penalties"
            }
        },
        "version": 1
    }
}